{
  "_format": "hh-sol-artifact-1",
  "contractName": "ContractRoles",
  "sourceName": "contracts/ContractRoles.sol",
  "abi": [
    {
      "anonymous": false,
      "inputs": [
        {
          "indexed": false,
          "internalType": "uint8",
          "name": "version",
          "type": "uint8"
        }
      ],
      "name": "Initialized",
      "type": "event"
    },
    {
      "anonymous": false,
      "inputs": [
        {
          "indexed": true,
          "internalType": "bytes32",
          "name": "role",
          "type": "bytes32"
        },
        {
          "indexed": true,
          "internalType": "bytes32",
          "name": "previousAdminRole",
          "type": "bytes32"
        },
        {
          "indexed": true,
          "internalType": "bytes32",
          "name": "newAdminRole",
          "type": "bytes32"
        }
      ],
      "name": "RoleAdminChanged",
      "type": "event"
    },
    {
      "anonymous": false,
      "inputs": [
        {
          "indexed": true,
          "internalType": "bytes32",
          "name": "role",
          "type": "bytes32"
        },
        {
          "indexed": true,
          "internalType": "address",
          "name": "account",
          "type": "address"
        },
        {
          "indexed": true,
          "internalType": "address",
          "name": "sender",
          "type": "address"
        }
      ],
      "name": "RoleGranted",
      "type": "event"
    },
    {
      "anonymous": false,
      "inputs": [
        {
          "indexed": true,
          "internalType": "bytes32",
          "name": "role",
          "type": "bytes32"
        },
        {
          "indexed": true,
          "internalType": "address",
          "name": "account",
          "type": "address"
        },
        {
          "indexed": true,
          "internalType": "address",
          "name": "sender",
          "type": "address"
        }
      ],
      "name": "RoleRevoked",
      "type": "event"
    },
    {
      "inputs": [],
      "name": "DEFAULT_ADMIN_ROLE",
      "outputs": [
        {
          "internalType": "bytes32",
          "name": "",
          "type": "bytes32"
        }
      ],
      "stateMutability": "view",
      "type": "function"
    },
    {
      "inputs": [],
      "name": "ROLE_ADMIN",
      "outputs": [
        {
          "internalType": "bytes32",
          "name": "",
          "type": "bytes32"
        }
      ],
      "stateMutability": "view",
      "type": "function"
    },
    {
      "inputs": [],
      "name": "ROLE_OPERATOR",
      "outputs": [
        {
          "internalType": "bytes32",
          "name": "",
          "type": "bytes32"
        }
      ],
      "stateMutability": "view",
      "type": "function"
    },
    {
      "inputs": [
        {
          "internalType": "uint256",
          "name": "amount",
          "type": "uint256"
        }
      ],
      "name": "deposit",
      "outputs": [],
      "stateMutability": "payable",
      "type": "function"
    },
    {
      "inputs": [],
      "name": "getBalance",
      "outputs": [
        {
          "internalType": "uint256",
          "name": "",
          "type": "uint256"
        }
      ],
      "stateMutability": "view",
      "type": "function"
    },
    {
      "inputs": [
        {
          "internalType": "bytes32",
          "name": "role",
          "type": "bytes32"
        }
      ],
      "name": "getRoleAdmin",
      "outputs": [
        {
          "internalType": "bytes32",
          "name": "",
          "type": "bytes32"
        }
      ],
      "stateMutability": "view",
      "type": "function"
    },
    {
      "inputs": [
        {
          "internalType": "bytes32",
          "name": "role",
          "type": "bytes32"
        },
        {
          "internalType": "address",
          "name": "account",
          "type": "address"
        }
      ],
      "name": "grantRole",
      "outputs": [],
      "stateMutability": "nonpayable",
      "type": "function"
    },
    {
      "inputs": [
        {
          "internalType": "bytes32",
          "name": "role",
          "type": "bytes32"
        },
        {
          "internalType": "address",
          "name": "account",
          "type": "address"
        }
      ],
      "name": "hasRole",
      "outputs": [
        {
          "internalType": "bool",
          "name": "",
          "type": "bool"
        }
      ],
      "stateMutability": "view",
      "type": "function"
    },
    {
      "inputs": [],
      "name": "initialize",
      "outputs": [],
      "stateMutability": "nonpayable",
      "type": "function"
    },
    {
      "inputs": [
        {
          "internalType": "address",
          "name": "_addr",
          "type": "address"
        }
      ],
      "name": "isAdmin",
      "outputs": [
        {
          "internalType": "bool",
          "name": "",
          "type": "bool"
        }
      ],
      "stateMutability": "view",
      "type": "function"
    },
    {
      "inputs": [
        {
          "internalType": "address",
          "name": "_addr",
          "type": "address"
        }
      ],
      "name": "isOperator",
      "outputs": [
        {
          "internalType": "bool",
          "name": "",
          "type": "bool"
        }
      ],
      "stateMutability": "view",
      "type": "function"
    },
    {
      "inputs": [
        {
          "internalType": "bytes32",
          "name": "role",
          "type": "bytes32"
        },
        {
          "internalType": "address",
          "name": "account",
          "type": "address"
        }
      ],
      "name": "renounceRole",
      "outputs": [],
      "stateMutability": "nonpayable",
      "type": "function"
    },
    {
      "inputs": [
        {
          "internalType": "bytes32",
          "name": "role",
          "type": "bytes32"
        },
        {
          "internalType": "address",
          "name": "account",
          "type": "address"
        }
      ],
      "name": "revokeRole",
      "outputs": [],
      "stateMutability": "nonpayable",
      "type": "function"
    },
    {
      "inputs": [
        {
          "internalType": "bytes4",
          "name": "interfaceId",
          "type": "bytes4"
        }
      ],
      "name": "supportsInterface",
      "outputs": [
        {
          "internalType": "bool",
          "name": "",
          "type": "bool"
        }
      ],
      "stateMutability": "view",
      "type": "function"
    },
    {
      "inputs": [],
      "name": "withdraw",
      "outputs": [],
      "stateMutability": "nonpayable",
      "type": "function"
    }
  ],
  "bytecode": "0x608060405234801561001057600080fd5b50610cf2806100206000396000f3fe6080604052600436106100e85760003560e01c80636d70f7ae1161008a578063a217fddf11610059578063a217fddf1461025d578063b6b55f2514610272578063d391014b14610285578063d547741f146102a7576100e8565b80636d70f7ae146101e65780638129fc1c1461020657806391d148541461021b57806398a1b3971461023b576100e8565b806324d7806c116100c657806324d7806c1461016f5780632f2ff15d1461018f57806336568abe146101b15780633ccfd60b146101d1576100e8565b806301ffc9a7146100ed57806312065fe014610122578063248a9ca31461013f575b600080fd5b3480156100f957600080fd5b5061010d610108366004610b18565b6102c7565b60405190151581526020015b60405180910390f35b34801561012e57600080fd5b50475b604051908152602001610119565b34801561014b57600080fd5b5061013161015a366004610ad5565b60009081526065602052604090206001015490565b34801561017b57600080fd5b5061010d61018a366004610abb565b610300565b34801561019b57600080fd5b506101af6101aa366004610aed565b61031a565b005b3480156101bd57600080fd5b506101af6101cc366004610aed565b610344565b3480156101dd57600080fd5b506101af6103c7565b3480156101f257600080fd5b5061010d610201366004610abb565b610440565b34801561021257600080fd5b506101af61045a565b34801561022757600080fd5b5061010d610236366004610aed565b6105d9565b34801561024757600080fd5b50610131600080516020610c7d83398151915281565b34801561026957600080fd5b50610131600081565b6101af610280366004610ad5565b610604565b34801561029157600080fd5b50610131600080516020610c9d83398151915281565b3480156102b357600080fd5b506101af6102c2366004610aed565b610683565b60006001600160e01b03198216637965db0b60e01b14806102f857506301ffc9a760e01b6001600160e01b03198316145b90505b919050565b60006102f8600080516020610c9d833981519152836105d9565b600082815260656020526040902060010154610335816106a8565b61033f83836106b2565b505050565b6001600160a01b03811633146103b95760405162461bcd60e51b815260206004820152602f60248201527f416363657373436f6e74726f6c3a2063616e206f6e6c792072656e6f756e636560448201526e103937b632b9903337b91039b2b63360891b60648201526084015b60405180910390fd5b6103c38282610738565b5050565b6103df600080516020610c9d83398151915233610236565b6104115760405162461bcd60e51b815260206004820152600360248201526234303160e81b60448201526064016103b0565b60405133904780156108fc02916000818181858888f1935050505015801561043d573d6000803e3d6000fd5b50565b60006102f8600080516020610c7d833981519152836105d9565b600054610100900460ff161580801561047a5750600054600160ff909116105b806104945750303b158015610494575060005460ff166001145b6104f75760405162461bcd60e51b815260206004820152602e60248201527f496e697469616c697a61626c653a20636f6e747261637420697320616c72656160448201526d191e481a5b9a5d1a585b1a5e995960921b60648201526084016103b0565b6000805460ff19166001179055801561051a576000805461ff0019166101001790555b61052261079f565b61053a600080516020610c9d8339815191528061080c565b610560600080516020610c7d833981519152600080516020610c9d83398151915261080c565b610579600080516020610c9d833981519152335b6106b2565b610591600080516020610c7d83398151915233610574565b801561043d576000805461ff0019169055604051600181527f7f26b83ff96e1f2b6a682f133852f6798a09c465da95921460cefb38474024989060200160405180910390a150565b60009182526065602090815260408084206001600160a01b0393909316845291905290205460ff1690565b61061c600080516020610c9d83398151915233610236565b61064e5760405162461bcd60e51b815260206004820152600360248201526234303160e81b60448201526064016103b0565b80341461043d5760405162461bcd60e51b815260206004820152600360248201526203530360ec1b60448201526064016103b0565b60008281526065602052604090206001015461069e816106a8565b61033f8383610738565b61043d8133610857565b6106bc82826105d9565b6103c35760008281526065602090815260408083206001600160a01b03851684529091529020805460ff191660011790556106f43390565b6001600160a01b0316816001600160a01b0316837f2f8788117e7eff1d82e926ec794901d17c78024a50270940304540a733656f0d60405160405180910390a45050565b61074282826105d9565b156103c35760008281526065602090815260408083206001600160a01b0385168085529252808320805460ff1916905551339285917ff6391f5c32d9c69d2a47ea670b442974b53935d1edc7fd64eb21e047a839171b9190a45050565b600054610100900460ff1661080a5760405162461bcd60e51b815260206004820152602b60248201527f496e697469616c697a61626c653a20636f6e7472616374206973206e6f74206960448201526a6e697469616c697a696e6760a81b60648201526084016103b0565b565b600082815260656020526040808220600101805490849055905190918391839186917fbd79b86ffe0ab8e8776151514217cd7cacd52c909f66475c3af44e129f0b00ff9190a4505050565b61086182826105d9565b6103c357610879816001600160a01b031660146108bb565b6108848360206108bb565b604051602001610895929190610b40565b60408051601f198184030181529082905262461bcd60e51b82526103b091600401610bb5565b606060006108ca836002610c00565b6108d5906002610be8565b67ffffffffffffffff8111156108fb57634e487b7160e01b600052604160045260246000fd5b6040519080825280601f01601f191660200182016040528015610925576020820181803683370190505b509050600360fc1b8160008151811061094e57634e487b7160e01b600052603260045260246000fd5b60200101906001600160f81b031916908160001a905350600f60fb1b8160018151811061098b57634e487b7160e01b600052603260045260246000fd5b60200101906001600160f81b031916908160001a90535060006109af846002610c00565b6109ba906001610be8565b90505b6001811115610a4e576f181899199a1a9b1b9c1cb0b131b232b360811b85600f16601081106109fc57634e487b7160e01b600052603260045260246000fd5b1a60f81b828281518110610a2057634e487b7160e01b600052603260045260246000fd5b60200101906001600160f81b031916908160001a90535060049490941c93610a4781610c4f565b90506109bd565b508315610a9d5760405162461bcd60e51b815260206004820181905260248201527f537472696e67733a20686578206c656e67746820696e73756666696369656e7460448201526064016103b0565b9392505050565b80356001600160a01b03811681146102fb57600080fd5b600060208284031215610acc578081fd5b610a9d82610aa4565b600060208284031215610ae6578081fd5b5035919050565b60008060408385031215610aff578081fd5b82359150610b0f60208401610aa4565b90509250929050565b600060208284031215610b29578081fd5b81356001600160e01b031981168114610a9d578182fd5b60007f416363657373436f6e74726f6c3a206163636f756e742000000000000000000082528351610b78816017850160208801610c1f565b7001034b99036b4b9b9b4b733903937b6329607d1b6017918401918201528351610ba9816028840160208801610c1f565b01602801949350505050565b6000602082528251806020840152610bd4816040850160208701610c1f565b601f01601f19169190910160400192915050565b60008219821115610bfb57610bfb610c66565b500190565b6000816000190483118215151615610c1a57610c1a610c66565b500290565b60005b83811015610c3a578181015183820152602001610c22565b83811115610c49576000848401525b50505050565b600081610c5e57610c5e610c66565b506000190190565b634e487b7160e01b600052601160045260246000fdfe8eb14ca59fabf1855b268bf81675c9a63bdb63cfe93ebe32c54d0e9a4476b43c14a52d40101bae25b2fdcf3b38994e72781a10b91dd5c726475d95a6ff514adda26469706673582212206b15a64b33c6b466f5f6dcf47c4da44066bb85d0c63e299f33c50de9e168292e64736f6c63430008020033",
  "linkReferences": {},
  "deployedLinkReferences": {}
}