{
  "_format": "hh-sol-artifact-1",
  "contractName": "JGovNFT",
  "sourceName": "contracts/JGovNFT.sol",
  "abi": [
    {
      "inputs": [],
      "stateMutability": "nonpayable",
      "type": "constructor"
    },
    {
      "anonymous": false,
      "inputs": [
        {
          "indexed": true,
          "internalType": "address",
          "name": "owner",
          "type": "address"
        },
        {
          "indexed": true,
          "internalType": "address",
          "name": "approved",
          "type": "address"
        },
        {
          "indexed": true,
          "internalType": "uint256",
          "name": "tokenId",
          "type": "uint256"
        }
      ],
      "name": "Approval",
      "type": "event"
    },
    {
      "anonymous": false,
      "inputs": [
        {
          "indexed": true,
          "internalType": "address",
          "name": "owner",
          "type": "address"
        },
        {
          "indexed": true,
          "internalType": "address",
          "name": "operator",
          "type": "address"
        },
        {
          "indexed": false,
          "internalType": "bool",
          "name": "approved",
          "type": "bool"
        }
      ],
      "name": "ApprovalForAll",
      "type": "event"
    },
    {
      "anonymous": false,
      "inputs": [
        {
          "indexed": true,
          "internalType": "address",
          "name": "delegator",
          "type": "address"
        },
        {
          "indexed": true,
          "internalType": "address",
          "name": "fromDelegate",
          "type": "address"
        },
        {
          "indexed": true,
          "internalType": "address",
          "name": "toDelegate",
          "type": "address"
        }
      ],
      "name": "DelegateChanged",
      "type": "event"
    },
    {
      "anonymous": false,
      "inputs": [
        {
          "indexed": true,
          "internalType": "address",
          "name": "delegate",
          "type": "address"
        },
        {
          "indexed": false,
          "internalType": "uint256",
          "name": "previousBalance",
          "type": "uint256"
        },
        {
          "indexed": false,
          "internalType": "uint256",
          "name": "newBalance",
          "type": "uint256"
        }
      ],
      "name": "DelegateVotesChanged",
      "type": "event"
    },
    {
      "anonymous": false,
      "inputs": [
        {
          "indexed": false,
          "internalType": "uint8",
          "name": "version",
          "type": "uint8"
        }
      ],
      "name": "Initialized",
      "type": "event"
    },
    {
      "anonymous": false,
      "inputs": [
        {
          "indexed": true,
          "internalType": "address",
          "name": "previousOwner",
          "type": "address"
        },
        {
          "indexed": true,
          "internalType": "address",
          "name": "newOwner",
          "type": "address"
        }
      ],
      "name": "OwnershipTransferred",
      "type": "event"
    },
    {
      "anonymous": false,
      "inputs": [
        {
          "indexed": false,
          "internalType": "address",
          "name": "account",
          "type": "address"
        }
      ],
      "name": "Paused",
      "type": "event"
    },
    {
      "anonymous": false,
      "inputs": [
        {
          "indexed": true,
          "internalType": "address",
          "name": "from",
          "type": "address"
        },
        {
          "indexed": true,
          "internalType": "address",
          "name": "to",
          "type": "address"
        },
        {
          "indexed": true,
          "internalType": "uint256",
          "name": "tokenId",
          "type": "uint256"
        }
      ],
      "name": "Transfer",
      "type": "event"
    },
    {
      "anonymous": false,
      "inputs": [
        {
          "indexed": false,
          "internalType": "address",
          "name": "account",
          "type": "address"
        }
      ],
      "name": "Unpaused",
      "type": "event"
    },
    {
      "inputs": [],
      "name": "DOMAIN_SEPARATOR",
      "outputs": [
        {
          "internalType": "bytes32",
          "name": "",
          "type": "bytes32"
        }
      ],
      "stateMutability": "view",
      "type": "function"
    },
    {
      "inputs": [
        {
          "internalType": "address",
          "name": "to",
          "type": "address"
        },
        {
          "internalType": "uint256",
          "name": "tokenId",
          "type": "uint256"
        }
      ],
      "name": "approve",
      "outputs": [],
      "stateMutability": "nonpayable",
      "type": "function"
    },
    {
      "inputs": [
        {
          "internalType": "address",
          "name": "owner",
          "type": "address"
        }
      ],
      "name": "balanceOf",
      "outputs": [
        {
          "internalType": "uint256",
          "name": "",
          "type": "uint256"
        }
      ],
      "stateMutability": "view",
      "type": "function"
    },
    {
      "inputs": [
        {
          "internalType": "uint256",
          "name": "tokenId",
          "type": "uint256"
        }
      ],
      "name": "burn",
      "outputs": [],
      "stateMutability": "nonpayable",
      "type": "function"
    },
    {
      "inputs": [
        {
          "internalType": "address",
          "name": "delegatee",
          "type": "address"
        }
      ],
      "name": "delegate",
      "outputs": [],
      "stateMutability": "nonpayable",
      "type": "function"
    },
    {
      "inputs": [
        {
          "internalType": "address",
          "name": "delegatee",
          "type": "address"
        },
        {
          "internalType": "uint256",
          "name": "nonce",
          "type": "uint256"
        },
        {
          "internalType": "uint256",
          "name": "expiry",
          "type": "uint256"
        },
        {
          "internalType": "uint8",
          "name": "v",
          "type": "uint8"
        },
        {
          "internalType": "bytes32",
          "name": "r",
          "type": "bytes32"
        },
        {
          "internalType": "bytes32",
          "name": "s",
          "type": "bytes32"
        }
      ],
      "name": "delegateBySig",
      "outputs": [],
      "stateMutability": "nonpayable",
      "type": "function"
    },
    {
      "inputs": [
        {
          "internalType": "address",
          "name": "account",
          "type": "address"
        }
      ],
      "name": "delegates",
      "outputs": [
        {
          "internalType": "address",
          "name": "",
          "type": "address"
        }
      ],
      "stateMutability": "view",
      "type": "function"
    },
    {
      "inputs": [
        {
          "internalType": "uint256",
          "name": "tokenId",
          "type": "uint256"
        }
      ],
      "name": "getApproved",
      "outputs": [
        {
          "internalType": "address",
          "name": "",
          "type": "address"
        }
      ],
      "stateMutability": "view",
      "type": "function"
    },
    {
      "inputs": [
        {
          "internalType": "uint256",
          "name": "blockNumber",
          "type": "uint256"
        }
      ],
      "name": "getPastTotalSupply",
      "outputs": [
        {
          "internalType": "uint256",
          "name": "",
          "type": "uint256"
        }
      ],
      "stateMutability": "view",
      "type": "function"
    },
    {
      "inputs": [
        {
          "internalType": "address",
          "name": "account",
          "type": "address"
        },
        {
          "internalType": "uint256",
          "name": "blockNumber",
          "type": "uint256"
        }
      ],
      "name": "getPastVotes",
      "outputs": [
        {
          "internalType": "uint256",
          "name": "",
          "type": "uint256"
        }
      ],
      "stateMutability": "view",
      "type": "function"
    },
    {
      "inputs": [
        {
          "internalType": "uint256",
          "name": "id",
          "type": "uint256"
        }
      ],
      "name": "getProfileB",
      "outputs": [
        {
          "internalType": "string",
          "name": "name",
          "type": "string"
        },
        {
          "internalType": "string",
          "name": "salutation",
          "type": "string"
        },
        {
          "internalType": "string",
          "name": "accredition",
          "type": "string"
        }
      ],
      "stateMutability": "view",
      "type": "function"
    },
    {
      "inputs": [
        {
          "internalType": "address",
          "name": "_addr",
          "type": "address"
        }
      ],
      "name": "getProfileByAddress",
      "outputs": [
        {
          "internalType": "string",
          "name": "name",
          "type": "string"
        },
        {
          "internalType": "string",
          "name": "salutation",
          "type": "string"
        },
        {
          "internalType": "string",
          "name": "accredition",
          "type": "string"
        }
      ],
      "stateMutability": "view",
      "type": "function"
    },
    {
      "inputs": [
        {
          "internalType": "address",
          "name": "account",
          "type": "address"
        }
      ],
      "name": "getVotes",
      "outputs": [
        {
          "internalType": "uint256",
          "name": "",
          "type": "uint256"
        }
      ],
      "stateMutability": "view",
      "type": "function"
    },
    {
      "inputs": [
        {
          "internalType": "string",
          "name": "name",
          "type": "string"
        },
        {
          "internalType": "string",
          "name": "token",
          "type": "string"
        },
        {
          "internalType": "string",
          "name": "version",
          "type": "string"
        },
        {
          "internalType": "address",
          "name": "_rolesAddr",
          "type": "address"
        }
      ],
      "name": "initialize",
      "outputs": [],
      "stateMutability": "nonpayable",
      "type": "function"
    },
    {
      "inputs": [
        {
          "internalType": "address",
          "name": "owner",
          "type": "address"
        },
        {
          "internalType": "address",
          "name": "operator",
          "type": "address"
        }
      ],
      "name": "isApprovedForAll",
      "outputs": [
        {
          "internalType": "bool",
          "name": "",
          "type": "bool"
        }
      ],
      "stateMutability": "view",
      "type": "function"
    },
    {
      "inputs": [],
      "name": "name",
      "outputs": [
        {
          "internalType": "string",
          "name": "",
          "type": "string"
        }
      ],
      "stateMutability": "view",
      "type": "function"
    },
    {
      "inputs": [
        {
          "internalType": "address",
          "name": "owner",
          "type": "address"
        }
      ],
      "name": "nonces",
      "outputs": [
        {
          "internalType": "uint256",
          "name": "",
          "type": "uint256"
        }
      ],
      "stateMutability": "view",
      "type": "function"
    },
    {
      "inputs": [],
      "name": "owner",
      "outputs": [
        {
          "internalType": "address",
          "name": "",
          "type": "address"
        }
      ],
      "stateMutability": "view",
      "type": "function"
    },
    {
      "inputs": [
        {
          "internalType": "uint256",
          "name": "tokenId",
          "type": "uint256"
        }
      ],
      "name": "ownerOf",
      "outputs": [
        {
          "internalType": "address",
          "name": "",
          "type": "address"
        }
      ],
      "stateMutability": "view",
      "type": "function"
    },
    {
      "inputs": [],
      "name": "pause",
      "outputs": [],
      "stateMutability": "nonpayable",
      "type": "function"
    },
    {
      "inputs": [],
      "name": "paused",
      "outputs": [
        {
          "internalType": "bool",
          "name": "",
          "type": "bool"
        }
      ],
      "stateMutability": "view",
      "type": "function"
    },
    {
      "inputs": [
        {
          "internalType": "uint256",
          "name": "",
          "type": "uint256"
        }
      ],
      "name": "profiles",
      "outputs": [
        {
          "internalType": "string",
          "name": "name",
          "type": "string"
        },
        {
          "internalType": "string",
          "name": "salutation",
          "type": "string"
        },
        {
          "internalType": "string",
          "name": "accredition",
          "type": "string"
        }
      ],
      "stateMutability": "view",
      "type": "function"
    },
    {
      "inputs": [],
      "name": "renounceOwnership",
      "outputs": [],
      "stateMutability": "nonpayable",
      "type": "function"
    },
    {
      "inputs": [
        {
          "internalType": "address",
          "name": "to",
          "type": "address"
        },
        {
          "internalType": "string",
          "name": "uri",
          "type": "string"
        }
      ],
      "name": "safeMint",
      "outputs": [],
      "stateMutability": "nonpayable",
      "type": "function"
    },
    {
      "inputs": [
        {
          "internalType": "address",
          "name": "from",
          "type": "address"
        },
        {
          "internalType": "address",
          "name": "to",
          "type": "address"
        },
        {
          "internalType": "uint256",
          "name": "tokenId",
          "type": "uint256"
        }
      ],
      "name": "safeTransferFrom",
      "outputs": [],
      "stateMutability": "nonpayable",
      "type": "function"
    },
    {
      "inputs": [
        {
          "internalType": "address",
          "name": "from",
          "type": "address"
        },
        {
          "internalType": "address",
          "name": "to",
          "type": "address"
        },
        {
          "internalType": "uint256",
          "name": "tokenId",
          "type": "uint256"
        },
        {
          "internalType": "bytes",
          "name": "data",
          "type": "bytes"
        }
      ],
      "name": "safeTransferFrom",
      "outputs": [],
      "stateMutability": "nonpayable",
      "type": "function"
    },
    {
      "inputs": [
        {
          "internalType": "address",
          "name": "operator",
          "type": "address"
        },
        {
          "internalType": "bool",
          "name": "approved",
          "type": "bool"
        }
      ],
      "name": "setApprovalForAll",
      "outputs": [],
      "stateMutability": "nonpayable",
      "type": "function"
    },
    {
      "inputs": [
        {
          "internalType": "address",
          "name": "_addr",
          "type": "address"
        }
      ],
      "name": "setContractRoles",
      "outputs": [],
      "stateMutability": "nonpayable",
      "type": "function"
    },
    {
      "inputs": [
        {
          "internalType": "uint256",
          "name": "id",
          "type": "uint256"
        },
        {
          "internalType": "string",
          "name": "name",
          "type": "string"
        },
        {
          "internalType": "string",
          "name": "salutation",
          "type": "string"
        },
        {
          "internalType": "string",
          "name": "accredition",
          "type": "string"
        }
      ],
      "name": "setProfile",
      "outputs": [],
      "stateMutability": "nonpayable",
      "type": "function"
    },
    {
      "inputs": [
        {
          "internalType": "bytes4",
          "name": "interfaceId",
          "type": "bytes4"
        }
      ],
      "name": "supportsInterface",
      "outputs": [
        {
          "internalType": "bool",
          "name": "",
          "type": "bool"
        }
      ],
      "stateMutability": "view",
      "type": "function"
    },
    {
      "inputs": [],
      "name": "symbol",
      "outputs": [
        {
          "internalType": "string",
          "name": "",
          "type": "string"
        }
      ],
      "stateMutability": "view",
      "type": "function"
    },
    {
      "inputs": [
        {
          "internalType": "uint256",
          "name": "index",
          "type": "uint256"
        }
      ],
      "name": "tokenByIndex",
      "outputs": [
        {
          "internalType": "uint256",
          "name": "",
          "type": "uint256"
        }
      ],
      "stateMutability": "view",
      "type": "function"
    },
    {
      "inputs": [
        {
          "internalType": "address",
          "name": "owner",
          "type": "address"
        },
        {
          "internalType": "uint256",
          "name": "index",
          "type": "uint256"
        }
      ],
      "name": "tokenOfOwnerByIndex",
      "outputs": [
        {
          "internalType": "uint256",
          "name": "",
          "type": "uint256"
        }
      ],
      "stateMutability": "view",
      "type": "function"
    },
    {
      "inputs": [
        {
          "internalType": "uint256",
          "name": "tokenId",
          "type": "uint256"
        }
      ],
      "name": "tokenURI",
      "outputs": [
        {
          "internalType": "string",
          "name": "",
          "type": "string"
        }
      ],
      "stateMutability": "view",
      "type": "function"
    },
    {
      "inputs": [],
      "name": "totalSupply",
      "outputs": [
        {
          "internalType": "uint256",
          "name": "",
          "type": "uint256"
        }
      ],
      "stateMutability": "view",
      "type": "function"
    },
    {
      "inputs": [
        {
          "internalType": "address",
          "name": "from",
          "type": "address"
        },
        {
          "internalType": "address",
          "name": "to",
          "type": "address"
        },
        {
          "internalType": "uint256",
          "name": "tokenId",
          "type": "uint256"
        }
      ],
      "name": "transferFrom",
      "outputs": [],
      "stateMutability": "nonpayable",
      "type": "function"
    },
    {
      "inputs": [
        {
          "internalType": "address",
          "name": "newOwner",
          "type": "address"
        }
      ],
      "name": "transferOwnership",
      "outputs": [],
      "stateMutability": "nonpayable",
      "type": "function"
    },
    {
      "inputs": [],
      "name": "unpause",
      "outputs": [],
      "stateMutability": "nonpayable",
      "type": "function"
    }
  ],
  "bytecode": "0x60806040523480156200001157600080fd5b506200001c62000022565b620000e4565b600054610100900460ff16156200008f5760405162461bcd60e51b815260206004820152602760248201527f496e697469616c697a61626c653a20636f6e747261637420697320696e697469604482015266616c697a696e6760c81b606482015260840160405180910390fd5b60005460ff9081161015620000e2576000805460ff191660ff9081179091556040519081527f7f26b83ff96e1f2b6a682f133852f6798a09c465da95921460cefb38474024989060200160405180910390a15b565b613a4880620000f46000396000f3fe608060405234801561001057600080fd5b50600436106102325760003560e01c80636352211e116101305780639ab24eb0116100b8578063c87b56dd1161007c578063c87b56dd146104c3578063d204c45e146104d6578063e2fc71c1146104e9578063e985e9c5146104fc578063f2fde38b1461053857600080fd5b80639ab24eb014610464578063a22cb46514610477578063b88d4fde1461048a578063c36fe3d61461049d578063c3cda520146104b057600080fd5b80637ecebe00116100ff5780637ecebe001461041c5780638456cb591461042f5780638da5cb5b146104375780638e539e8c1461044957806395d89b411461045c57600080fd5b80636352211e146103db578063644ba330146103ee57806370a0823114610401578063715018a61461041457600080fd5b80633a46b1a8116101be5780634f6ccce7116101825780634f6ccce71461036a578063587cde1e1461037d5780635c19a95c146103aa5780635c6d8da1146103bd5780635c975abb146103d057600080fd5b80633a46b1a8146103075780633f4ba83a1461031a57806342842e0e1461032257806342966c68146103355780634cd6959c1461034857600080fd5b80630ea71cfc116102055780630ea71cfc146102b457806318160ddd146102c757806323b872dd146102d95780632f745c59146102ec5780633644e515146102ff57600080fd5b806301ffc9a71461023757806306fdde031461025f578063081812fc14610274578063095ea7b31461029f575b600080fd5b61024a6102453660046135a3565b61054b565b60405190151581526020015b60405180910390f35b61026761055c565b60405161025691906137a2565b610287610282366004613670565b6105ee565b6040516001600160a01b039091168152602001610256565b6102b26102ad366004613500565b610615565b005b6102b26102c2366004613688565b610730565b6099545b604051908152602001610256565b6102b26102e73660046133ca565b61085e565b6102cb6102fa366004613500565b610890565b6102cb610926565b6102cb610315366004613500565b610935565b6102b261095f565b6102b26103303660046133ca565b610971565b6102b2610343366004613670565b61098c565b61035b61035636600461337e565b6109bd565b604051610256939291906137b5565b6102cb610378366004613670565b610ba2565b61028761038b36600461337e565b6001600160a01b0390811660009081526101c560205260409020541690565b6102b26103b836600461337e565b610c43565b6102b26103cb3660046135db565b610c52565b60fb5460ff1661024a565b6102876103e9366004613670565b610dbf565b61035b6103fc366004613670565b610e1f565b6102cb61040f36600461337e565b610ff5565b6102b261107b565b6102cb61042a36600461337e565b61108d565b6102b26110ac565b61012d546001600160a01b0316610287565b6102cb610457366004613670565b6110bc565b610267611119565b6102cb61047236600461337e565b611128565b6102b261048536600461347e565b61114a565b6102b2610498366004613405565b611155565b61035b6104ab366004613670565b61118d565b6102b26104be366004613529565b611348565b6102676104d1366004613670565b611475565b6102b26104e43660046134b4565b611480565b6102b26104f736600461337e565b6114b9565b61024a61050a366004613398565b6001600160a01b039182166000908152606a6020908152604080832093909416825291909152205460ff1690565b6102b261054636600461337e565b6115a0565b600061055682611616565b92915050565b60606065805461056b90613948565b80601f016020809104026020016040519081016040528092919081815260200182805461059790613948565b80156105e45780601f106105b9576101008083540402835291602001916105e4565b820191906000526020600020905b8154815290600101906020018083116105c757829003601f168201915b5050505050905090565b60006105f98261163b565b506000908152606960205260409020546001600160a01b031690565b600061062082610dbf565b9050806001600160a01b0316836001600160a01b031614156106935760405162461bcd60e51b815260206004820152602160248201527f4552433732313a20617070726f76616c20746f2063757272656e74206f776e656044820152603960f91b60648201526084015b60405180910390fd5b336001600160a01b03821614806106af57506106af813361050a565b6107215760405162461bcd60e51b815260206004820152603e60248201527f4552433732313a20617070726f76652063616c6c6572206973206e6f7420746f60448201527f6b656e206f776e6572206e6f7220617070726f76656420666f7220616c6c0000606482015260840161068a565b61072b838361169a565b505050565b3361073a85610dbf565b6001600160a01b031614806107d4575061022a546001600160a01b03166324d7806c336040516001600160e01b031960e084901b1681526001600160a01b03909116600482015260240160206040518083038186803b15801561079c57600080fd5b505afa1580156107b0573d6000803e3d6000fd5b505050506040513d601f19601f820116820180604052508101906107d49190613587565b6108065760405162461bcd60e51b815260206004820152600360248201526234303160e81b604482015260640161068a565b600084815261022b602090815260409091208451909161082a918391870190613202565b5082516108409060018301906020860190613202565b5081516108569060028301906020850190613202565b505050505050565b610869335b82611708565b6108855760405162461bcd60e51b815260040161068a9061388b565b61072b838383611787565b600061089b83610ff5565b82106108fd5760405162461bcd60e51b815260206004820152602b60248201527f455243373231456e756d657261626c653a206f776e657220696e646578206f7560448201526a74206f6620626f756e647360a81b606482015260840161068a565b506001600160a01b03919091166000908152609760209081526040808320938352929052205490565b6000610930611934565b905090565b6001600160a01b03821660009081526101c66020526040812061095890836119b1565b9392505050565b610967611adc565b61096f611b37565b565b61072b83838360405180602001604052806000815250611155565b61099533610863565b6109b15760405162461bcd60e51b815260040161068a9061388b565b6109ba81611b89565b50565b606080606060006109cf856000610890565b600081815261022b6020526040902080549192509081906001820190600283019083906109fb90613948565b80601f0160208091040260200160405190810160405280929190818152602001828054610a2790613948565b8015610a745780601f10610a4957610100808354040283529160200191610a74565b820191906000526020600020905b815481529060010190602001808311610a5757829003601f168201915b50505050509250818054610a8790613948565b80601f0160208091040260200160405190810160405280929190818152602001828054610ab390613948565b8015610b005780601f10610ad557610100808354040283529160200191610b00565b820191906000526020600020905b815481529060010190602001808311610ae357829003601f168201915b50505050509150808054610b1390613948565b80601f0160208091040260200160405190810160405280929190818152602001828054610b3f90613948565b8015610b8c5780601f10610b6157610100808354040283529160200191610b8c565b820191906000526020600020905b815481529060010190602001808311610b6f57829003601f168201915b5050505050905094509450945050509193909250565b6000610bad60995490565b8210610c105760405162461bcd60e51b815260206004820152602c60248201527f455243373231456e756d657261626c653a20676c6f62616c20696e646578206f60448201526b7574206f6620626f756e647360a01b606482015260840161068a565b60998281548110610c3157634e487b7160e01b600052603260045260246000fd5b90600052602060002001549050919050565b33610c4e8183611b92565b5050565b600054610100900460ff1615808015610c725750600054600160ff909116105b80610c8c5750303b158015610c8c575060005460ff166001145b610cef5760405162461bcd60e51b815260206004820152602e60248201527f496e697469616c697a61626c653a20636f6e747261637420697320616c72656160448201526d191e481a5b9a5d1a585b1a5e995960921b606482015260840161068a565b6000805460ff191660011790558015610d12576000805461ff0019166101001790555b610d1c8585611c05565b610d24611c36565b610d2c611c36565b610d34611c5d565b610d3c611c8c565b610d44611c36565b610d4e8584611cbb565b610d56611c36565b61022a80546001600160a01b0319166001600160a01b0384161790558015610db8576000805461ff0019169055604051600181527f7f26b83ff96e1f2b6a682f133852f6798a09c465da95921460cefb38474024989060200160405180910390a15b5050505050565b6000818152606760205260408120546001600160a01b0316806105565760405162461bcd60e51b8152602060048201526018602482015277115490cdcc8c4e881a5b9d985b1a59081d1bdad95b88125160421b604482015260640161068a565b600081815261022b60205260409020805460609182918291908190600182019060028301908390610e4f90613948565b80601f0160208091040260200160405190810160405280929190818152602001828054610e7b90613948565b8015610ec85780601f10610e9d57610100808354040283529160200191610ec8565b820191906000526020600020905b815481529060010190602001808311610eab57829003601f168201915b50505050509250818054610edb90613948565b80601f0160208091040260200160405190810160405280929190818152602001828054610f0790613948565b8015610f545780601f10610f2957610100808354040283529160200191610f54565b820191906000526020600020905b815481529060010190602001808311610f3757829003601f168201915b50505050509150808054610f6790613948565b80601f0160208091040260200160405190810160405280929190818152602001828054610f9390613948565b8015610fe05780601f10610fb557610100808354040283529160200191610fe0565b820191906000526020600020905b815481529060010190602001808311610fc357829003601f168201915b50505050509050935093509350509193909250565b60006001600160a01b03821661105f5760405162461bcd60e51b815260206004820152602960248201527f4552433732313a2061646472657373207a65726f206973206e6f7420612076616044820152683634b21037bbb732b960b91b606482015260840161068a565b506001600160a01b031660009081526068602052604090205490565b611083611adc565b61096f6000611cec565b6001600160a01b03811660009081526101c86020526040812054610556565b6110b4611adc565b61096f611d3f565b600043821061110d5760405162461bcd60e51b815260206004820152601a60248201527f566f7465733a20626c6f636b206e6f7420796574206d696e6564000000000000604482015260640161068a565b6105566101c7836119b1565b60606066805461056b90613948565b6001600160a01b03811660009081526101c66020526040812061055690611d7c565b610c4e338383611de6565b61115f3383611708565b61117b5760405162461bcd60e51b815260040161068a9061388b565b61118784848484611eb5565b50505050565b61022b602052600090815260409020805481906111a990613948565b80601f01602080910402602001604051908101604052809291908181526020018280546111d590613948565b80156112225780601f106111f757610100808354040283529160200191611222565b820191906000526020600020905b81548152906001019060200180831161120557829003601f168201915b50505050509080600101805461123790613948565b80601f016020809104026020016040519081016040528092919081815260200182805461126390613948565b80156112b05780601f10611285576101008083540402835291602001916112b0565b820191906000526020600020905b81548152906001019060200180831161129357829003601f168201915b5050505050908060020180546112c590613948565b80601f01602080910402602001604051908101604052809291908181526020018280546112f190613948565b801561133e5780601f106113135761010080835404028352916020019161133e565b820191906000526020600020905b81548152906001019060200180831161132157829003601f168201915b5050505050905083565b834211156113985760405162461bcd60e51b815260206004820152601860248201527f566f7465733a207369676e617475726520657870697265640000000000000000604482015260640161068a565b604080517fe48329057bfd03d55e49b547132e39cffd9c1820ad7b9d4c5307691425d15adf60208201526001600160a01b0388169181019190915260608101869052608081018590526000906114129061140a9060a00160405160208183030381529060405280519060200120611ee8565b858585611f36565b905061141d81611f5e565b86146114625760405162461bcd60e51b8152602060048201526014602482015273566f7465733a20696e76616c6964206e6f6e636560601b604482015260640161068a565b61146c8188611b92565b50505050505050565b606061055682611f87565b611488611adc565b60006114946102295490565b90506114a561022980546001019055565b6114af83826120a0565b61072b81836120ba565b6114c1611adc565b61022a546001600160a01b03166324d7806c336040516001600160e01b031960e084901b1681526001600160a01b03909116600482015260240160206040518083038186803b15801561151357600080fd5b505afa158015611527573d6000803e3d6000fd5b505050506040513d601f19601f8201168201806040525081019061154b9190613587565b61157d5760405162461bcd60e51b815260206004820152600360248201526234303160e81b604482015260640161068a565b61022a80546001600160a01b0319166001600160a01b0392909216919091179055565b6115a8611adc565b6001600160a01b03811661160d5760405162461bcd60e51b815260206004820152602660248201527f4f776e61626c653a206e6577206f776e657220697320746865207a65726f206160448201526564647265737360d01b606482015260840161068a565b6109ba81611cec565b60006001600160e01b0319821663780e9d6360e01b1480610556575061055682612154565b6000818152606760205260409020546001600160a01b03166109ba5760405162461bcd60e51b8152602060048201526018602482015277115490cdcc8c4e881a5b9d985b1a59081d1bdad95b88125160421b604482015260640161068a565b600081815260696020526040902080546001600160a01b0319166001600160a01b03841690811790915581906116cf82610dbf565b6001600160a01b03167f8c5be1e5ebec7d5bd14f71427d1e84f3dd0314c0f7b2291e5b200ac8c7c3b92560405160405180910390a45050565b60008061171483610dbf565b9050806001600160a01b0316846001600160a01b0316148061175b57506001600160a01b038082166000908152606a602090815260408083209388168352929052205460ff165b8061177f5750836001600160a01b0316611774846105ee565b6001600160a01b0316145b949350505050565b826001600160a01b031661179a82610dbf565b6001600160a01b0316146117fe5760405162461bcd60e51b815260206004820152602560248201527f4552433732313a207472616e736665722066726f6d20696e636f72726563742060448201526437bbb732b960d91b606482015260840161068a565b6001600160a01b0382166118605760405162461bcd60e51b8152602060048201526024808201527f4552433732313a207472616e7366657220746f20746865207a65726f206164646044820152637265737360e01b606482015260840161068a565b61186b8383836121a4565b61187660008261169a565b6001600160a01b038316600090815260686020526040812080546001929061189f908490613905565b90915550506001600160a01b03821660009081526068602052604081208054600192906118cd9084906138d9565b909155505060008181526067602052604080822080546001600160a01b0319166001600160a01b0386811691821790925591518493918716917fddf252ad1be2c89b69c2b068fc378daa952ba7f163c4a11628f55a4df523b3ef91a461072b8383836121b7565b60006109307f8b73c3c69bb8fe3d512ecc4cf759cc79239f7b179b0ffacaa9a75d522b39400f6119646101915490565b610192546040805160208101859052908101839052606081018290524660808201523060a082015260009060c0016040516020818303038152906040528051906020012090509392505050565b6000438210611a025760405162461bcd60e51b815260206004820181905260248201527f436865636b706f696e74733a20626c6f636b206e6f7420796574206d696e6564604482015260640161068a565b825460005b81811015611a75576000611a1b82846121c2565b905084866000018281548110611a4157634e487b7160e01b600052603260045260246000fd5b60009182526020909120015463ffffffff161115611a6157809250611a6f565b611a6c8160016138d9565b91505b50611a07565b8115611ac75784611a87600184613905565b81548110611aa557634e487b7160e01b600052603260045260246000fd5b60009182526020909120015464010000000090046001600160e01b0316611aca565b60005b6001600160e01b031695945050505050565b61012d546001600160a01b0316331461096f5760405162461bcd60e51b815260206004820181905260248201527f4f776e61626c653a2063616c6c6572206973206e6f7420746865206f776e6572604482015260640161068a565b611b3f6121dd565b60fb805460ff191690557f5db9ee0a495bf2e6ff9c91a7834c1ba4fdd244a5e8aa4e537bd38aeae4b073aa335b6040516001600160a01b03909116815260200160405180910390a1565b6109ba81612226565b6001600160a01b0382811660008181526101c5602052604080822080548686166001600160a01b0319821681179092559151919094169392849290917f3134e8a2e6d97e929a7e54011ea5485d7d196dd5f0ba4d4ef95803e8e3fc257f9190a461072b8183611c0086612266565b612271565b600054610100900460ff16611c2c5760405162461bcd60e51b815260040161068a90613840565b610c4e82826123b0565b600054610100900460ff1661096f5760405162461bcd60e51b815260040161068a90613840565b600054610100900460ff16611c845760405162461bcd60e51b815260040161068a90613840565b61096f6123fe565b600054610100900460ff16611cb35760405162461bcd60e51b815260040161068a90613840565b61096f612431565b600054610100900460ff16611ce25760405162461bcd60e51b815260040161068a90613840565b610c4e8282612461565b61012d80546001600160a01b038381166001600160a01b0319831681179093556040519116919082907f8be0079c531659141344cd1fd0a4f28419497f9722a3daafe3b4186f6b6457e090600090a35050565b611d476124a4565b60fb805460ff191660011790557f62e78cea01bee320cd4e420270b5ea74000d11b0c9f74754ebdbfc544b05a258611b6c3390565b80546000908015611dd35782611d93600183613905565b81548110611db157634e487b7160e01b600052603260045260246000fd5b60009182526020909120015464010000000090046001600160e01b0316611dd6565b60005b6001600160e01b03169392505050565b816001600160a01b0316836001600160a01b03161415611e485760405162461bcd60e51b815260206004820152601960248201527f4552433732313a20617070726f766520746f2063616c6c657200000000000000604482015260640161068a565b6001600160a01b038381166000818152606a6020908152604080832094871680845294825291829020805460ff191686151590811790915591519182527f17307eab39ab6107e8899845ad3d59bd9653f200f220920489ca2b5937696c31910160405180910390a3505050565b611ec0848484611787565b611ecc848484846124ea565b6111875760405162461bcd60e51b815260040161068a906137ee565b6000610556611ef5611934565b8360405161190160f01b6020820152602281018390526042810182905260009060620160405160208183030381529060405280519060200120905092915050565b6000806000611f47878787876125f4565b91509150611f54816126e1565b5095945050505050565b6001600160a01b03811660009081526101c8602052604090208054600181018255905b50919050565b6060611f928261163b565b600082815260c9602052604081208054611fab90613948565b80601f0160208091040260200160405190810160405280929190818152602001828054611fd790613948565b80156120245780601f10611ff957610100808354040283529160200191612024565b820191906000526020600020905b81548152906001019060200180831161200757829003601f168201915b50505050509050600061205260408051808201909152600881526768747470733a2f2f60c01b602082015290565b9050805160001415612065575092915050565b81511561209757808260405160200161207f929190613736565b60405160208183030381529060405292505050919050565b61177f846128e2565b610c4e828260405180602001604052806000815250612965565b6000828152606760205260409020546001600160a01b03166121355760405162461bcd60e51b815260206004820152602e60248201527f45524337323155524953746f726167653a2055524920736574206f66206e6f6e60448201526d32bc34b9ba32b73a103a37b5b2b760911b606482015260840161068a565b600082815260c960209081526040909120825161072b92840190613202565b60006001600160e01b031982166380ac58cd60e01b148061218557506001600160e01b03198216635b5e139f60e01b145b8061055657506301ffc9a760e01b6001600160e01b0319831614610556565b6121ac6124a4565b61072b838383612998565b61072b838383612a50565b60006121d160028484186138f1565b610958908484166138d9565b60fb5460ff1661096f5760405162461bcd60e51b815260206004820152601460248201527314185d5cd8589b194e881b9bdd081c185d5cd95960621b604482015260640161068a565b61222f81612a5c565b600081815260c960205260409020805461224890613948565b1590506109ba57600081815260c9602052604081206109ba91613282565b600061055682610ff5565b816001600160a01b0316836001600160a01b0316141580156122935750600081115b1561072b576001600160a01b03831615612322576001600160a01b03831660009081526101c66020526040812081906122cf90612b0b85612b17565b91509150846001600160a01b03167fdec2bacdd2f05b59de34da9b523dff8be42e5e38e818c82fdb0bae774387a7248383604051612317929190918252602082015260400190565b60405180910390a250505b6001600160a01b0382161561072b576001600160a01b03821660009081526101c660205260408120819061235990612b4585612b17565b91509150836001600160a01b03167fdec2bacdd2f05b59de34da9b523dff8be42e5e38e818c82fdb0bae774387a72483836040516123a1929190918252602082015260400190565b60405180910390a25050505050565b600054610100900460ff166123d75760405162461bcd60e51b815260040161068a90613840565b81516123ea906065906020850190613202565b50805161072b906066906020840190613202565b600054610100900460ff166124255760405162461bcd60e51b815260040161068a90613840565b60fb805460ff19169055565b600054610100900460ff166124585760405162461bcd60e51b815260040161068a90613840565b61096f33611cec565b600054610100900460ff166124885760405162461bcd60e51b815260040161068a90613840565b8151602092830120815191909201206101919190915561019255565b60fb5460ff161561096f5760405162461bcd60e51b815260206004820152601060248201526f14185d5cd8589b194e881c185d5cd95960821b604482015260640161068a565b60006001600160a01b0384163b156125ec57604051630a85bd0160e11b81526001600160a01b0385169063150b7a029061252e903390899088908890600401613765565b602060405180830381600087803b15801561254857600080fd5b505af1925050508015612578575060408051601f3d908101601f19168201909252612575918101906135bf565b60015b6125d2573d8080156125a6576040519150601f19603f3d011682016040523d82523d6000602084013e6125ab565b606091505b5080516125ca5760405162461bcd60e51b815260040161068a906137ee565b805181602001fd5b6001600160e01b031916630a85bd0160e11b14905061177f565b50600161177f565b6000807f7fffffffffffffffffffffffffffffff5d576e7357a4501ddfe92f46681b20a083111561262b57506000905060036126d8565b8460ff16601b1415801561264357508460ff16601c14155b1561265457506000905060046126d8565b6040805160008082526020820180845289905260ff881692820192909252606081018690526080810185905260019060a0016020604051602081039080840390855afa1580156126a8573d6000803e3d6000fd5b5050604051601f1901519150506001600160a01b0381166126d1576000600192509250506126d8565b9150600090505b94509492505050565b600081600481111561270357634e487b7160e01b600052602160045260246000fd5b141561270c5750565b600181600481111561272e57634e487b7160e01b600052602160045260246000fd5b141561277c5760405162461bcd60e51b815260206004820152601860248201527f45434453413a20696e76616c6964207369676e61747572650000000000000000604482015260640161068a565b600281600481111561279e57634e487b7160e01b600052602160045260246000fd5b14156127ec5760405162461bcd60e51b815260206004820152601f60248201527f45434453413a20696e76616c6964207369676e6174757265206c656e67746800604482015260640161068a565b600381600481111561280e57634e487b7160e01b600052602160045260246000fd5b14156128675760405162461bcd60e51b815260206004820152602260248201527f45434453413a20696e76616c6964207369676e6174757265202773272076616c604482015261756560f01b606482015260840161068a565b600481600481111561288957634e487b7160e01b600052602160045260246000fd5b14156109ba5760405162461bcd60e51b815260206004820152602260248201527f45434453413a20696e76616c6964207369676e6174757265202776272076616c604482015261756560f01b606482015260840161068a565b60606128ed8261163b565b600061291460408051808201909152600881526768747470733a2f2f60c01b602082015290565b905060008151116129345760405180602001604052806000815250610958565b8061293e84612b51565b60405160200161294f929190613736565b6040516020818303038152906040529392505050565b61296f8383612c6b565b61297c60008484846124ea565b61072b5760405162461bcd60e51b815260040161068a906137ee565b6001600160a01b0383166129f3576129ee81609980546000838152609a60205260408120829055600182018355919091527f72a152ddfb8e864297c917af52ea6c1c68aead0fee1a62673fcc7e0c94979d000155565b612a16565b816001600160a01b0316836001600160a01b031614612a1657612a168382612dc1565b6001600160a01b038216612a2d5761072b81612e5e565b826001600160a01b0316826001600160a01b03161461072b5761072b8282612f37565b61072b83836001612f7b565b6000612a6782610dbf565b9050612a75816000846121a4565b612a8060008361169a565b6001600160a01b0381166000908152606860205260408120805460019290612aa9908490613905565b909155505060008281526067602052604080822080546001600160a01b0319169055518391906001600160a01b038416907fddf252ad1be2c89b69c2b068fc378daa952ba7f163c4a11628f55a4df523b3ef908390a4610c4e816000846121b7565b60006109588284613905565b600080612b3985612b34612b2a88611d7c565b868863ffffffff16565b612fee565b91509150935093915050565b600061095882846138d9565b606081612b755750506040805180820190915260018152600360fc1b602082015290565b8160005b8115612b9f5780612b898161397d565b9150612b989050600a836138f1565b9150612b79565b60008167ffffffffffffffff811115612bc857634e487b7160e01b600052604160045260246000fd5b6040519080825280601f01601f191660200182016040528015612bf2576020820181803683370190505b5090505b841561177f57612c07600183613905565b9150612c14600a86613998565b612c1f9060306138d9565b60f81b818381518110612c4257634e487b7160e01b600052603260045260246000fd5b60200101906001600160f81b031916908160001a905350612c64600a866138f1565b9450612bf6565b6001600160a01b038216612cc15760405162461bcd60e51b815260206004820181905260248201527f4552433732313a206d696e7420746f20746865207a65726f2061646472657373604482015260640161068a565b6000818152606760205260409020546001600160a01b031615612d265760405162461bcd60e51b815260206004820152601c60248201527f4552433732313a20746f6b656e20616c7265616479206d696e74656400000000604482015260640161068a565b612d32600083836121a4565b6001600160a01b0382166000908152606860205260408120805460019290612d5b9084906138d9565b909155505060008181526067602052604080822080546001600160a01b0319166001600160a01b03861690811790915590518392907fddf252ad1be2c89b69c2b068fc378daa952ba7f163c4a11628f55a4df523b3ef908290a4610c4e600083836121b7565b60006001612dce84610ff5565b612dd89190613905565b600083815260986020526040902054909150808214612e2b576001600160a01b03841660009081526097602090815260408083208584528252808320548484528184208190558352609890915290208190555b5060009182526098602090815260408084208490556001600160a01b039094168352609781528383209183525290812055565b609954600090612e7090600190613905565b6000838152609a602052604081205460998054939450909284908110612ea657634e487b7160e01b600052603260045260246000fd5b906000526020600020015490508060998381548110612ed557634e487b7160e01b600052603260045260246000fd5b6000918252602080832090910192909255828152609a90915260408082208490558582528120556099805480612f1b57634e487b7160e01b600052603160045260246000fd5b6001900381819060005260206000200160009055905550505050565b6000612f4283610ff5565b6001600160a01b039093166000908152609760209081526040808320868452825280832085905593825260989052919091209190915550565b6001600160a01b038316612f9b57612f986101c7612b4583612b17565b50505b6001600160a01b038216612fbb57612fb86101c7612b0b83612b17565b50505b6001600160a01b0383811660009081526101c5602052604080822054858416835291205461072b92918216911683612271565b8154600090819081612fff86611d7c565b905060008211801561304b57504386613019600185613905565b8154811061303757634e487b7160e01b600052603260045260246000fd5b60009182526020909120015463ffffffff16145b156130b95761305985613130565b86613065600185613905565b8154811061308357634e487b7160e01b600052603260045260246000fd5b9060005260206000200160000160046101000a8154816001600160e01b0302191690836001600160e01b03160217905550613127565b8560000160405180604001604052806130d14361319d565b63ffffffff1681526020016130e588613130565b6001600160e01b0390811690915282546001810184556000938452602093849020835194909301519091166401000000000263ffffffff909316929092179101555b95939450505050565b60006001600160e01b038211156131995760405162461bcd60e51b815260206004820152602760248201527f53616665436173743a2076616c756520646f65736e27742066697420696e20326044820152663234206269747360c81b606482015260840161068a565b5090565b600063ffffffff8211156131995760405162461bcd60e51b815260206004820152602660248201527f53616665436173743a2076616c756520646f65736e27742066697420696e203360448201526532206269747360d01b606482015260840161068a565b82805461320e90613948565b90600052602060002090601f0160209004810192826132305760008555613276565b82601f1061324957805160ff1916838001178555613276565b82800160010185558215613276579182015b8281111561327657825182559160200191906001019061325b565b506131999291506132b8565b50805461328e90613948565b6000825580601f1061329e575050565b601f0160209004906000526020600020908101906109ba91905b5b8082111561319957600081556001016132b9565b600067ffffffffffffffff808411156132e8576132e86139d8565b604051601f8501601f19908116603f01168101908282118183101715613310576133106139d8565b8160405280935085815286868601111561332957600080fd5b858560208301376000602087830101525050509392505050565b80356001600160a01b038116811461335a57600080fd5b919050565b600082601f83011261336f578081fd5b610958838335602085016132cd565b60006020828403121561338f578081fd5b61095882613343565b600080604083850312156133aa578081fd5b6133b383613343565b91506133c160208401613343565b90509250929050565b6000806000606084860312156133de578081fd5b6133e784613343565b92506133f560208501613343565b9150604084013590509250925092565b6000806000806080858703121561341a578081fd5b61342385613343565b935061343160208601613343565b925060408501359150606085013567ffffffffffffffff811115613453578182fd5b8501601f81018713613463578182fd5b613472878235602084016132cd565b91505092959194509250565b60008060408385031215613490578182fd5b61349983613343565b915060208301356134a9816139ee565b809150509250929050565b600080604083850312156134c6578182fd5b6134cf83613343565b9150602083013567ffffffffffffffff8111156134ea578182fd5b6134f68582860161335f565b9150509250929050565b60008060408385031215613512578182fd5b61351b83613343565b946020939093013593505050565b60008060008060008060c08789031215613541578182fd5b61354a87613343565b95506020870135945060408701359350606087013560ff8116811461356d578283fd5b9598949750929560808101359460a0909101359350915050565b600060208284031215613598578081fd5b8151610958816139ee565b6000602082840312156135b4578081fd5b8135610958816139fc565b6000602082840312156135d0578081fd5b8151610958816139fc565b600080600080608085870312156135f0578182fd5b843567ffffffffffffffff80821115613607578384fd5b6136138883890161335f565b95506020870135915080821115613628578384fd5b6136348883890161335f565b94506040870135915080821115613649578384fd5b506136568782880161335f565b92505061366560608601613343565b905092959194509250565b600060208284031215613681578081fd5b5035919050565b6000806000806080858703121561369d578182fd5b84359350602085013567ffffffffffffffff808211156136bb578384fd5b6136c78883890161335f565b945060408701359150808211156136dc578384fd5b6136e88883890161335f565b935060608701359150808211156136fd578283fd5b506134728782880161335f565b6000815180845261372281602086016020860161391c565b601f01601f19169290920160200192915050565b6000835161374881846020880161391c565b83519083019061375c81836020880161391c565b01949350505050565b6001600160a01b03858116825284166020820152604081018390526080606082018190526000906137989083018461370a565b9695505050505050565b602081526000610958602083018461370a565b6060815260006137c8606083018661370a565b82810360208401526137da818661370a565b90508281036040840152613798818561370a565b60208082526032908201527f4552433732313a207472616e7366657220746f206e6f6e20455243373231526560408201527131b2b4bb32b91034b6b83632b6b2b73a32b960711b606082015260800190565b6020808252602b908201527f496e697469616c697a61626c653a20636f6e7472616374206973206e6f74206960408201526a6e697469616c697a696e6760a81b606082015260800190565b6020808252602e908201527f4552433732313a2063616c6c6572206973206e6f7420746f6b656e206f776e6560408201526d1c881b9bdc88185c1c1c9bdd995960921b606082015260800190565b600082198211156138ec576138ec6139ac565b500190565b600082613900576139006139c2565b500490565b600082821015613917576139176139ac565b500390565b60005b8381101561393757818101518382015260200161391f565b838111156111875750506000910152565b600181811c9082168061395c57607f821691505b60208210811415611f8157634e487b7160e01b600052602260045260246000fd5b6000600019821415613991576139916139ac565b5060010190565b6000826139a7576139a76139c2565b500690565b634e487b7160e01b600052601160045260246000fd5b634e487b7160e01b600052601260045260246000fd5b634e487b7160e01b600052604160045260246000fd5b80151581146109ba57600080fd5b6001600160e01b0319811681146109ba57600080fdfea264697066735822122047714e7e7135146150638a769a3c87efdbb63a7047f394abce662584ebd8c1a364736f6c63430008040033",
  "linkReferences": {},
  "deployedLinkReferences": {}
}