{
  "_format": "hh-sol-artifact-1",
  "contractName": "JGovNFT",
  "sourceName": "contracts/JGovNFT.sol",
  "abi": [
    {
      "inputs": [],
      "stateMutability": "nonpayable",
      "type": "constructor"
    },
    {
      "anonymous": false,
      "inputs": [
        {
          "indexed": true,
          "internalType": "address",
          "name": "owner",
          "type": "address"
        },
        {
          "indexed": true,
          "internalType": "address",
          "name": "approved",
          "type": "address"
        },
        {
          "indexed": true,
          "internalType": "uint256",
          "name": "tokenId",
          "type": "uint256"
        }
      ],
      "name": "Approval",
      "type": "event"
    },
    {
      "anonymous": false,
      "inputs": [
        {
          "indexed": true,
          "internalType": "address",
          "name": "owner",
          "type": "address"
        },
        {
          "indexed": true,
          "internalType": "address",
          "name": "operator",
          "type": "address"
        },
        {
          "indexed": false,
          "internalType": "bool",
          "name": "approved",
          "type": "bool"
        }
      ],
      "name": "ApprovalForAll",
      "type": "event"
    },
    {
      "anonymous": false,
      "inputs": [
        {
          "indexed": true,
          "internalType": "address",
          "name": "delegator",
          "type": "address"
        },
        {
          "indexed": true,
          "internalType": "address",
          "name": "fromDelegate",
          "type": "address"
        },
        {
          "indexed": true,
          "internalType": "address",
          "name": "toDelegate",
          "type": "address"
        }
      ],
      "name": "DelegateChanged",
      "type": "event"
    },
    {
      "anonymous": false,
      "inputs": [
        {
          "indexed": true,
          "internalType": "address",
          "name": "delegate",
          "type": "address"
        },
        {
          "indexed": false,
          "internalType": "uint256",
          "name": "previousBalance",
          "type": "uint256"
        },
        {
          "indexed": false,
          "internalType": "uint256",
          "name": "newBalance",
          "type": "uint256"
        }
      ],
      "name": "DelegateVotesChanged",
      "type": "event"
    },
    {
      "anonymous": false,
      "inputs": [
        {
          "indexed": false,
          "internalType": "uint8",
          "name": "version",
          "type": "uint8"
        }
      ],
      "name": "Initialized",
      "type": "event"
    },
    {
      "anonymous": false,
      "inputs": [
        {
          "indexed": true,
          "internalType": "address",
          "name": "previousOwner",
          "type": "address"
        },
        {
          "indexed": true,
          "internalType": "address",
          "name": "newOwner",
          "type": "address"
        }
      ],
      "name": "OwnershipTransferred",
      "type": "event"
    },
    {
      "anonymous": false,
      "inputs": [
        {
          "indexed": false,
          "internalType": "address",
          "name": "account",
          "type": "address"
        }
      ],
      "name": "Paused",
      "type": "event"
    },
    {
      "anonymous": false,
      "inputs": [
        {
          "indexed": true,
          "internalType": "address",
          "name": "from",
          "type": "address"
        },
        {
          "indexed": true,
          "internalType": "address",
          "name": "to",
          "type": "address"
        },
        {
          "indexed": true,
          "internalType": "uint256",
          "name": "tokenId",
          "type": "uint256"
        }
      ],
      "name": "Transfer",
      "type": "event"
    },
    {
      "anonymous": false,
      "inputs": [
        {
          "indexed": false,
          "internalType": "address",
          "name": "account",
          "type": "address"
        }
      ],
      "name": "Unpaused",
      "type": "event"
    },
    {
      "inputs": [],
      "name": "DOMAIN_SEPARATOR",
      "outputs": [
        {
          "internalType": "bytes32",
          "name": "",
          "type": "bytes32"
        }
      ],
      "stateMutability": "view",
      "type": "function"
    },
    {
      "inputs": [
        {
          "internalType": "address",
          "name": "to",
          "type": "address"
        },
        {
          "internalType": "uint256",
          "name": "tokenId",
          "type": "uint256"
        }
      ],
      "name": "approve",
      "outputs": [],
      "stateMutability": "nonpayable",
      "type": "function"
    },
    {
      "inputs": [
        {
          "internalType": "address",
          "name": "owner",
          "type": "address"
        }
      ],
      "name": "balanceOf",
      "outputs": [
        {
          "internalType": "uint256",
          "name": "",
          "type": "uint256"
        }
      ],
      "stateMutability": "view",
      "type": "function"
    },
    {
      "inputs": [
        {
          "internalType": "uint256",
          "name": "tokenId",
          "type": "uint256"
        }
      ],
      "name": "burn",
      "outputs": [],
      "stateMutability": "nonpayable",
      "type": "function"
    },
    {
      "inputs": [
        {
          "internalType": "address",
          "name": "delegatee",
          "type": "address"
        }
      ],
      "name": "delegate",
      "outputs": [],
      "stateMutability": "nonpayable",
      "type": "function"
    },
    {
      "inputs": [
        {
          "internalType": "address",
          "name": "delegatee",
          "type": "address"
        },
        {
          "internalType": "uint256",
          "name": "nonce",
          "type": "uint256"
        },
        {
          "internalType": "uint256",
          "name": "expiry",
          "type": "uint256"
        },
        {
          "internalType": "uint8",
          "name": "v",
          "type": "uint8"
        },
        {
          "internalType": "bytes32",
          "name": "r",
          "type": "bytes32"
        },
        {
          "internalType": "bytes32",
          "name": "s",
          "type": "bytes32"
        }
      ],
      "name": "delegateBySig",
      "outputs": [],
      "stateMutability": "nonpayable",
      "type": "function"
    },
    {
      "inputs": [
        {
          "internalType": "address",
          "name": "account",
          "type": "address"
        }
      ],
      "name": "delegates",
      "outputs": [
        {
          "internalType": "address",
          "name": "",
          "type": "address"
        }
      ],
      "stateMutability": "view",
      "type": "function"
    },
    {
      "inputs": [
        {
          "internalType": "uint256",
          "name": "tokenId",
          "type": "uint256"
        }
      ],
      "name": "getApproved",
      "outputs": [
        {
          "internalType": "address",
          "name": "",
          "type": "address"
        }
      ],
      "stateMutability": "view",
      "type": "function"
    },
    {
      "inputs": [
        {
          "internalType": "uint256",
          "name": "blockNumber",
          "type": "uint256"
        }
      ],
      "name": "getPastTotalSupply",
      "outputs": [
        {
          "internalType": "uint256",
          "name": "",
          "type": "uint256"
        }
      ],
      "stateMutability": "view",
      "type": "function"
    },
    {
      "inputs": [
        {
          "internalType": "address",
          "name": "account",
          "type": "address"
        },
        {
          "internalType": "uint256",
          "name": "blockNumber",
          "type": "uint256"
        }
      ],
      "name": "getPastVotes",
      "outputs": [
        {
          "internalType": "uint256",
          "name": "",
          "type": "uint256"
        }
      ],
      "stateMutability": "view",
      "type": "function"
    },
    {
      "inputs": [
        {
          "internalType": "uint256",
          "name": "id",
          "type": "uint256"
        }
      ],
      "name": "getProfile",
      "outputs": [
        {
          "internalType": "string",
          "name": "name",
          "type": "string"
        },
        {
          "internalType": "string",
          "name": "salutation",
          "type": "string"
        },
        {
          "internalType": "string",
          "name": "accredition",
          "type": "string"
        }
      ],
      "stateMutability": "view",
      "type": "function"
    },
    {
      "inputs": [
        {
          "internalType": "address",
          "name": "account",
          "type": "address"
        }
      ],
      "name": "getVotes",
      "outputs": [
        {
          "internalType": "uint256",
          "name": "",
          "type": "uint256"
        }
      ],
      "stateMutability": "view",
      "type": "function"
    },
    {
      "inputs": [
        {
          "internalType": "string",
          "name": "name",
          "type": "string"
        },
        {
          "internalType": "string",
          "name": "token",
          "type": "string"
        },
        {
          "internalType": "string",
          "name": "version",
          "type": "string"
        },
        {
          "internalType": "address",
          "name": "_rolesAddr",
          "type": "address"
        }
      ],
      "name": "initialize",
      "outputs": [],
      "stateMutability": "nonpayable",
      "type": "function"
    },
    {
      "inputs": [
        {
          "internalType": "address",
          "name": "owner",
          "type": "address"
        },
        {
          "internalType": "address",
          "name": "operator",
          "type": "address"
        }
      ],
      "name": "isApprovedForAll",
      "outputs": [
        {
          "internalType": "bool",
          "name": "",
          "type": "bool"
        }
      ],
      "stateMutability": "view",
      "type": "function"
    },
    {
      "inputs": [],
      "name": "name",
      "outputs": [
        {
          "internalType": "string",
          "name": "",
          "type": "string"
        }
      ],
      "stateMutability": "view",
      "type": "function"
    },
    {
      "inputs": [
        {
          "internalType": "address",
          "name": "owner",
          "type": "address"
        }
      ],
      "name": "nonces",
      "outputs": [
        {
          "internalType": "uint256",
          "name": "",
          "type": "uint256"
        }
      ],
      "stateMutability": "view",
      "type": "function"
    },
    {
      "inputs": [],
      "name": "owner",
      "outputs": [
        {
          "internalType": "address",
          "name": "",
          "type": "address"
        }
      ],
      "stateMutability": "view",
      "type": "function"
    },
    {
      "inputs": [
        {
          "internalType": "uint256",
          "name": "tokenId",
          "type": "uint256"
        }
      ],
      "name": "ownerOf",
      "outputs": [
        {
          "internalType": "address",
          "name": "",
          "type": "address"
        }
      ],
      "stateMutability": "view",
      "type": "function"
    },
    {
      "inputs": [],
      "name": "pause",
      "outputs": [],
      "stateMutability": "nonpayable",
      "type": "function"
    },
    {
      "inputs": [],
      "name": "paused",
      "outputs": [
        {
          "internalType": "bool",
          "name": "",
          "type": "bool"
        }
      ],
      "stateMutability": "view",
      "type": "function"
    },
    {
      "inputs": [
        {
          "internalType": "uint256",
          "name": "",
          "type": "uint256"
        }
      ],
      "name": "profiles",
      "outputs": [
        {
          "internalType": "string",
          "name": "name",
          "type": "string"
        },
        {
          "internalType": "string",
          "name": "salutation",
          "type": "string"
        },
        {
          "internalType": "string",
          "name": "accredition",
          "type": "string"
        }
      ],
      "stateMutability": "view",
      "type": "function"
    },
    {
      "inputs": [],
      "name": "renounceOwnership",
      "outputs": [],
      "stateMutability": "nonpayable",
      "type": "function"
    },
    {
      "inputs": [
        {
          "internalType": "address",
          "name": "to",
          "type": "address"
        },
        {
          "internalType": "string",
          "name": "uri",
          "type": "string"
        }
      ],
      "name": "safeMint",
      "outputs": [],
      "stateMutability": "nonpayable",
      "type": "function"
    },
    {
      "inputs": [
        {
          "internalType": "address",
          "name": "from",
          "type": "address"
        },
        {
          "internalType": "address",
          "name": "to",
          "type": "address"
        },
        {
          "internalType": "uint256",
          "name": "tokenId",
          "type": "uint256"
        }
      ],
      "name": "safeTransferFrom",
      "outputs": [],
      "stateMutability": "nonpayable",
      "type": "function"
    },
    {
      "inputs": [
        {
          "internalType": "address",
          "name": "from",
          "type": "address"
        },
        {
          "internalType": "address",
          "name": "to",
          "type": "address"
        },
        {
          "internalType": "uint256",
          "name": "tokenId",
          "type": "uint256"
        },
        {
          "internalType": "bytes",
          "name": "data",
          "type": "bytes"
        }
      ],
      "name": "safeTransferFrom",
      "outputs": [],
      "stateMutability": "nonpayable",
      "type": "function"
    },
    {
      "inputs": [
        {
          "internalType": "address",
          "name": "operator",
          "type": "address"
        },
        {
          "internalType": "bool",
          "name": "approved",
          "type": "bool"
        }
      ],
      "name": "setApprovalForAll",
      "outputs": [],
      "stateMutability": "nonpayable",
      "type": "function"
    },
    {
      "inputs": [
        {
          "internalType": "address",
          "name": "_addr",
          "type": "address"
        }
      ],
      "name": "setContractRoles",
      "outputs": [],
      "stateMutability": "nonpayable",
      "type": "function"
    },
    {
      "inputs": [
        {
          "internalType": "uint256",
          "name": "id",
          "type": "uint256"
        },
        {
          "internalType": "string",
          "name": "name",
          "type": "string"
        },
        {
          "internalType": "string",
          "name": "salutation",
          "type": "string"
        },
        {
          "internalType": "string",
          "name": "accredition",
          "type": "string"
        }
      ],
      "name": "setProfile",
      "outputs": [],
      "stateMutability": "nonpayable",
      "type": "function"
    },
    {
      "inputs": [
        {
          "internalType": "bytes4",
          "name": "interfaceId",
          "type": "bytes4"
        }
      ],
      "name": "supportsInterface",
      "outputs": [
        {
          "internalType": "bool",
          "name": "",
          "type": "bool"
        }
      ],
      "stateMutability": "view",
      "type": "function"
    },
    {
      "inputs": [],
      "name": "symbol",
      "outputs": [
        {
          "internalType": "string",
          "name": "",
          "type": "string"
        }
      ],
      "stateMutability": "view",
      "type": "function"
    },
    {
      "inputs": [
        {
          "internalType": "uint256",
          "name": "index",
          "type": "uint256"
        }
      ],
      "name": "tokenByIndex",
      "outputs": [
        {
          "internalType": "uint256",
          "name": "",
          "type": "uint256"
        }
      ],
      "stateMutability": "view",
      "type": "function"
    },
    {
      "inputs": [
        {
          "internalType": "address",
          "name": "owner",
          "type": "address"
        },
        {
          "internalType": "uint256",
          "name": "index",
          "type": "uint256"
        }
      ],
      "name": "tokenOfOwnerByIndex",
      "outputs": [
        {
          "internalType": "uint256",
          "name": "",
          "type": "uint256"
        }
      ],
      "stateMutability": "view",
      "type": "function"
    },
    {
      "inputs": [
        {
          "internalType": "uint256",
          "name": "tokenId",
          "type": "uint256"
        }
      ],
      "name": "tokenURI",
      "outputs": [
        {
          "internalType": "string",
          "name": "",
          "type": "string"
        }
      ],
      "stateMutability": "view",
      "type": "function"
    },
    {
      "inputs": [],
      "name": "totalSupply",
      "outputs": [
        {
          "internalType": "uint256",
          "name": "",
          "type": "uint256"
        }
      ],
      "stateMutability": "view",
      "type": "function"
    },
    {
      "inputs": [
        {
          "internalType": "address",
          "name": "from",
          "type": "address"
        },
        {
          "internalType": "address",
          "name": "to",
          "type": "address"
        },
        {
          "internalType": "uint256",
          "name": "tokenId",
          "type": "uint256"
        }
      ],
      "name": "transferFrom",
      "outputs": [],
      "stateMutability": "nonpayable",
      "type": "function"
    },
    {
      "inputs": [
        {
          "internalType": "address",
          "name": "newOwner",
          "type": "address"
        }
      ],
      "name": "transferOwnership",
      "outputs": [],
      "stateMutability": "nonpayable",
      "type": "function"
    },
    {
      "inputs": [],
      "name": "unpause",
      "outputs": [],
      "stateMutability": "nonpayable",
      "type": "function"
    }
  ],
  "bytecode": "0x60806040523480156200001157600080fd5b506200001c62000022565b620000e4565b600054610100900460ff16156200008f5760405162461bcd60e51b815260206004820152602760248201527f496e697469616c697a61626c653a20636f6e747261637420697320696e697469604482015266616c697a696e6760c81b606482015260840160405180910390fd5b60005460ff9081161015620000e2576000805460ff191660ff9081179091556040519081527f7f26b83ff96e1f2b6a682f133852f6798a09c465da95921460cefb38474024989060200160405180910390a15b565b61384580620000f46000396000f3fe608060405234801561001057600080fd5b50600436106102275760003560e01c80636352211e11610130578063a22cb465116100b8578063d204c45e1161007c578063d204c45e146104a5578063e2fc71c1146104b8578063e985e9c5146104cb578063f08f4f6414610507578063f2fde38b1461051a57600080fd5b8063a22cb46514610437578063b88d4fde1461044a578063c36fe3d61461045d578063c3cda5201461047f578063c87b56dd1461049257600080fd5b80638456cb59116100ff5780638456cb59146103ef5780638da5cb5b146103f75780638e539e8c1461040957806395d89b411461041c5780639ab24eb01461042457600080fd5b80636352211e146103ae57806370a08231146103c1578063715018a6146103d45780637ecebe00146103dc57600080fd5b80633a46b1a8116101b35780634f6ccce7116101825780634f6ccce71461033d578063587cde1e146103505780635c19a95c1461037d5780635c6d8da1146103905780635c975abb146103a357600080fd5b80633a46b1a8146102fc5780633f4ba83a1461030f57806342842e0e1461031757806342966c681461032a57600080fd5b80630ea71cfc116101fa5780630ea71cfc146102a957806318160ddd146102bc57806323b872dd146102ce5780632f745c59146102e15780633644e515146102f457600080fd5b806301ffc9a71461022c57806306fdde0314610254578063081812fc14610269578063095ea7b314610294575b600080fd5b61023f61023a3660046133a0565b61052d565b60405190151581526020015b60405180910390f35b61025c61053e565b60405161024b919061359f565b61027c61027736600461346d565b6105d0565b6040516001600160a01b03909116815260200161024b565b6102a76102a23660046132fd565b6105f7565b005b6102a76102b7366004613485565b610712565b6099545b60405190815260200161024b565b6102a76102dc3660046131c7565b610840565b6102c06102ef3660046132fd565b610872565b6102c0610908565b6102c061030a3660046132fd565b610917565b6102a7610941565b6102a76103253660046131c7565b610953565b6102a761033836600461346d565b61096e565b6102c061034b36600461346d565b61099f565b61027c61035e36600461317b565b6001600160a01b0390811660009081526101c560205260409020541690565b6102a761038b36600461317b565b610a40565b6102a761039e3660046133d8565b610a4f565b60fb5460ff1661023f565b61027c6103bc36600461346d565b610bbc565b6102c06103cf36600461317b565b610c1c565b6102a7610ca2565b6102c06103ea36600461317b565b610cb4565b6102a7610cd3565b61012d546001600160a01b031661027c565b6102c061041736600461346d565b610ce3565b61025c610d40565b6102c061043236600461317b565b610d4f565b6102a761044536600461327b565b610d71565b6102a7610458366004613202565b610d7c565b61047061046b36600461346d565b610db4565b60405161024b939291906135b2565b6102a761048d366004613326565b610f6f565b61025c6104a036600461346d565b61109c565b6102a76104b33660046132b1565b6110a7565b6102a76104c636600461317b565b6110e0565b61023f6104d9366004613195565b6001600160a01b039182166000908152606a6020908152604080832093909416825291909152205460ff1690565b61047061051536600461346d565b6111c7565b6102a761052836600461317b565b61139d565b600061053882611413565b92915050565b60606065805461054d90613745565b80601f016020809104026020016040519081016040528092919081815260200182805461057990613745565b80156105c65780601f1061059b576101008083540402835291602001916105c6565b820191906000526020600020905b8154815290600101906020018083116105a957829003601f168201915b5050505050905090565b60006105db82611438565b506000908152606960205260409020546001600160a01b031690565b600061060282610bbc565b9050806001600160a01b0316836001600160a01b031614156106755760405162461bcd60e51b815260206004820152602160248201527f4552433732313a20617070726f76616c20746f2063757272656e74206f776e656044820152603960f91b60648201526084015b60405180910390fd5b336001600160a01b0382161480610691575061069181336104d9565b6107035760405162461bcd60e51b815260206004820152603e60248201527f4552433732313a20617070726f76652063616c6c6572206973206e6f7420746f60448201527f6b656e206f776e6572206e6f7220617070726f76656420666f7220616c6c0000606482015260840161066c565b61070d8383611497565b505050565b3361071c85610bbc565b6001600160a01b031614806107b6575061022a546001600160a01b03166324d7806c336040516001600160e01b031960e084901b1681526001600160a01b03909116600482015260240160206040518083038186803b15801561077e57600080fd5b505afa158015610792573d6000803e3d6000fd5b505050506040513d601f19601f820116820180604052508101906107b69190613384565b6107e85760405162461bcd60e51b815260206004820152600360248201526234303160e81b604482015260640161066c565b600084815261022b602090815260409091208451909161080c918391870190612fff565b5082516108229060018301906020860190612fff565b5081516108389060028301906020850190612fff565b505050505050565b61084b335b82611505565b6108675760405162461bcd60e51b815260040161066c90613688565b61070d838383611584565b600061087d83610c1c565b82106108df5760405162461bcd60e51b815260206004820152602b60248201527f455243373231456e756d657261626c653a206f776e657220696e646578206f7560448201526a74206f6620626f756e647360a81b606482015260840161066c565b506001600160a01b03919091166000908152609760209081526040808320938352929052205490565b6000610912611731565b905090565b6001600160a01b03821660009081526101c66020526040812061093a90836117ae565b9392505050565b6109496118d9565b610951611934565b565b61070d83838360405180602001604052806000815250610d7c565b61097733610845565b6109935760405162461bcd60e51b815260040161066c90613688565b61099c81611986565b50565b60006109aa60995490565b8210610a0d5760405162461bcd60e51b815260206004820152602c60248201527f455243373231456e756d657261626c653a20676c6f62616c20696e646578206f60448201526b7574206f6620626f756e647360a01b606482015260840161066c565b60998281548110610a2e57634e487b7160e01b600052603260045260246000fd5b90600052602060002001549050919050565b33610a4b818361198f565b5050565b600054610100900460ff1615808015610a6f5750600054600160ff909116105b80610a895750303b158015610a89575060005460ff166001145b610aec5760405162461bcd60e51b815260206004820152602e60248201527f496e697469616c697a61626c653a20636f6e747261637420697320616c72656160448201526d191e481a5b9a5d1a585b1a5e995960921b606482015260840161066c565b6000805460ff191660011790558015610b0f576000805461ff0019166101001790555b610b198585611a02565b610b21611a33565b610b29611a33565b610b31611a5a565b610b39611a89565b610b41611a33565b610b4b8584611ab8565b610b53611a33565b61022a80546001600160a01b0319166001600160a01b0384161790558015610bb5576000805461ff0019169055604051600181527f7f26b83ff96e1f2b6a682f133852f6798a09c465da95921460cefb38474024989060200160405180910390a15b5050505050565b6000818152606760205260408120546001600160a01b0316806105385760405162461bcd60e51b8152602060048201526018602482015277115490cdcc8c4e881a5b9d985b1a59081d1bdad95b88125160421b604482015260640161066c565b60006001600160a01b038216610c865760405162461bcd60e51b815260206004820152602960248201527f4552433732313a2061646472657373207a65726f206973206e6f7420612076616044820152683634b21037bbb732b960b91b606482015260840161066c565b506001600160a01b031660009081526068602052604090205490565b610caa6118d9565b6109516000611ae9565b6001600160a01b03811660009081526101c86020526040812054610538565b610cdb6118d9565b610951611b3c565b6000438210610d345760405162461bcd60e51b815260206004820152601a60248201527f566f7465733a20626c6f636b206e6f7420796574206d696e6564000000000000604482015260640161066c565b6105386101c7836117ae565b60606066805461054d90613745565b6001600160a01b03811660009081526101c66020526040812061053890611b79565b610a4b338383611be3565b610d863383611505565b610da25760405162461bcd60e51b815260040161066c90613688565b610dae84848484611cb2565b50505050565b61022b60205260009081526040902080548190610dd090613745565b80601f0160208091040260200160405190810160405280929190818152602001828054610dfc90613745565b8015610e495780601f10610e1e57610100808354040283529160200191610e49565b820191906000526020600020905b815481529060010190602001808311610e2c57829003601f168201915b505050505090806001018054610e5e90613745565b80601f0160208091040260200160405190810160405280929190818152602001828054610e8a90613745565b8015610ed75780601f10610eac57610100808354040283529160200191610ed7565b820191906000526020600020905b815481529060010190602001808311610eba57829003601f168201915b505050505090806002018054610eec90613745565b80601f0160208091040260200160405190810160405280929190818152602001828054610f1890613745565b8015610f655780601f10610f3a57610100808354040283529160200191610f65565b820191906000526020600020905b815481529060010190602001808311610f4857829003601f168201915b5050505050905083565b83421115610fbf5760405162461bcd60e51b815260206004820152601860248201527f566f7465733a207369676e617475726520657870697265640000000000000000604482015260640161066c565b604080517fe48329057bfd03d55e49b547132e39cffd9c1820ad7b9d4c5307691425d15adf60208201526001600160a01b038816918101919091526060810186905260808101859052600090611039906110319060a00160405160208183030381529060405280519060200120611ce5565b858585611d33565b905061104481611d5b565b86146110895760405162461bcd60e51b8152602060048201526014602482015273566f7465733a20696e76616c6964206e6f6e636560601b604482015260640161066c565b611093818861198f565b50505050505050565b606061053882611d84565b6110af6118d9565b60006110bb6102295490565b90506110cc61022980546001019055565b6110d68382611e9d565b61070d8183611eb7565b6110e86118d9565b61022a546001600160a01b03166324d7806c336040516001600160e01b031960e084901b1681526001600160a01b03909116600482015260240160206040518083038186803b15801561113a57600080fd5b505afa15801561114e573d6000803e3d6000fd5b505050506040513d601f19601f820116820180604052508101906111729190613384565b6111a45760405162461bcd60e51b815260206004820152600360248201526234303160e81b604482015260640161066c565b61022a80546001600160a01b0319166001600160a01b0392909216919091179055565b600081815261022b602052604090208054606091829182919081906001820190600283019083906111f790613745565b80601f016020809104026020016040519081016040528092919081815260200182805461122390613745565b80156112705780601f1061124557610100808354040283529160200191611270565b820191906000526020600020905b81548152906001019060200180831161125357829003601f168201915b5050505050925081805461128390613745565b80601f01602080910402602001604051908101604052809291908181526020018280546112af90613745565b80156112fc5780601f106112d1576101008083540402835291602001916112fc565b820191906000526020600020905b8154815290600101906020018083116112df57829003601f168201915b5050505050915080805461130f90613745565b80601f016020809104026020016040519081016040528092919081815260200182805461133b90613745565b80156113885780601f1061135d57610100808354040283529160200191611388565b820191906000526020600020905b81548152906001019060200180831161136b57829003601f168201915b50505050509050935093509350509193909250565b6113a56118d9565b6001600160a01b03811661140a5760405162461bcd60e51b815260206004820152602660248201527f4f776e61626c653a206e6577206f776e657220697320746865207a65726f206160448201526564647265737360d01b606482015260840161066c565b61099c81611ae9565b60006001600160e01b0319821663780e9d6360e01b1480610538575061053882611f51565b6000818152606760205260409020546001600160a01b031661099c5760405162461bcd60e51b8152602060048201526018602482015277115490cdcc8c4e881a5b9d985b1a59081d1bdad95b88125160421b604482015260640161066c565b600081815260696020526040902080546001600160a01b0319166001600160a01b03841690811790915581906114cc82610bbc565b6001600160a01b03167f8c5be1e5ebec7d5bd14f71427d1e84f3dd0314c0f7b2291e5b200ac8c7c3b92560405160405180910390a45050565b60008061151183610bbc565b9050806001600160a01b0316846001600160a01b0316148061155857506001600160a01b038082166000908152606a602090815260408083209388168352929052205460ff165b8061157c5750836001600160a01b0316611571846105d0565b6001600160a01b0316145b949350505050565b826001600160a01b031661159782610bbc565b6001600160a01b0316146115fb5760405162461bcd60e51b815260206004820152602560248201527f4552433732313a207472616e736665722066726f6d20696e636f72726563742060448201526437bbb732b960d91b606482015260840161066c565b6001600160a01b03821661165d5760405162461bcd60e51b8152602060048201526024808201527f4552433732313a207472616e7366657220746f20746865207a65726f206164646044820152637265737360e01b606482015260840161066c565b611668838383611fa1565b611673600082611497565b6001600160a01b038316600090815260686020526040812080546001929061169c908490613702565b90915550506001600160a01b03821660009081526068602052604081208054600192906116ca9084906136d6565b909155505060008181526067602052604080822080546001600160a01b0319166001600160a01b0386811691821790925591518493918716917fddf252ad1be2c89b69c2b068fc378daa952ba7f163c4a11628f55a4df523b3ef91a461070d838383611fb4565b60006109127f8b73c3c69bb8fe3d512ecc4cf759cc79239f7b179b0ffacaa9a75d522b39400f6117616101915490565b610192546040805160208101859052908101839052606081018290524660808201523060a082015260009060c0016040516020818303038152906040528051906020012090509392505050565b60004382106117ff5760405162461bcd60e51b815260206004820181905260248201527f436865636b706f696e74733a20626c6f636b206e6f7420796574206d696e6564604482015260640161066c565b825460005b818110156118725760006118188284611fbf565b90508486600001828154811061183e57634e487b7160e01b600052603260045260246000fd5b60009182526020909120015463ffffffff16111561185e5780925061186c565b6118698160016136d6565b91505b50611804565b81156118c45784611884600184613702565b815481106118a257634e487b7160e01b600052603260045260246000fd5b60009182526020909120015464010000000090046001600160e01b03166118c7565b60005b6001600160e01b031695945050505050565b61012d546001600160a01b031633146109515760405162461bcd60e51b815260206004820181905260248201527f4f776e61626c653a2063616c6c6572206973206e6f7420746865206f776e6572604482015260640161066c565b61193c611fda565b60fb805460ff191690557f5db9ee0a495bf2e6ff9c91a7834c1ba4fdd244a5e8aa4e537bd38aeae4b073aa335b6040516001600160a01b03909116815260200160405180910390a1565b61099c81612023565b6001600160a01b0382811660008181526101c5602052604080822080548686166001600160a01b0319821681179092559151919094169392849290917f3134e8a2e6d97e929a7e54011ea5485d7d196dd5f0ba4d4ef95803e8e3fc257f9190a461070d81836119fd86612063565b61206e565b600054610100900460ff16611a295760405162461bcd60e51b815260040161066c9061363d565b610a4b82826121ad565b600054610100900460ff166109515760405162461bcd60e51b815260040161066c9061363d565b600054610100900460ff16611a815760405162461bcd60e51b815260040161066c9061363d565b6109516121fb565b600054610100900460ff16611ab05760405162461bcd60e51b815260040161066c9061363d565b61095161222e565b600054610100900460ff16611adf5760405162461bcd60e51b815260040161066c9061363d565b610a4b828261225e565b61012d80546001600160a01b038381166001600160a01b0319831681179093556040519116919082907f8be0079c531659141344cd1fd0a4f28419497f9722a3daafe3b4186f6b6457e090600090a35050565b611b446122a1565b60fb805460ff191660011790557f62e78cea01bee320cd4e420270b5ea74000d11b0c9f74754ebdbfc544b05a2586119693390565b80546000908015611bd05782611b90600183613702565b81548110611bae57634e487b7160e01b600052603260045260246000fd5b60009182526020909120015464010000000090046001600160e01b0316611bd3565b60005b6001600160e01b03169392505050565b816001600160a01b0316836001600160a01b03161415611c455760405162461bcd60e51b815260206004820152601960248201527f4552433732313a20617070726f766520746f2063616c6c657200000000000000604482015260640161066c565b6001600160a01b038381166000818152606a6020908152604080832094871680845294825291829020805460ff191686151590811790915591519182527f17307eab39ab6107e8899845ad3d59bd9653f200f220920489ca2b5937696c31910160405180910390a3505050565b611cbd848484611584565b611cc9848484846122e7565b610dae5760405162461bcd60e51b815260040161066c906135eb565b6000610538611cf2611731565b8360405161190160f01b6020820152602281018390526042810182905260009060620160405160208183030381529060405280519060200120905092915050565b6000806000611d44878787876123f1565b91509150611d51816124de565b5095945050505050565b6001600160a01b03811660009081526101c8602052604090208054600181018255905b50919050565b6060611d8f82611438565b600082815260c9602052604081208054611da890613745565b80601f0160208091040260200160405190810160405280929190818152602001828054611dd490613745565b8015611e215780601f10611df657610100808354040283529160200191611e21565b820191906000526020600020905b815481529060010190602001808311611e0457829003601f168201915b505050505090506000611e4f60408051808201909152600881526768747470733a2f2f60c01b602082015290565b9050805160001415611e62575092915050565b815115611e94578082604051602001611e7c929190613533565b60405160208183030381529060405292505050919050565b61157c846126df565b610a4b828260405180602001604052806000815250612762565b6000828152606760205260409020546001600160a01b0316611f325760405162461bcd60e51b815260206004820152602e60248201527f45524337323155524953746f726167653a2055524920736574206f66206e6f6e60448201526d32bc34b9ba32b73a103a37b5b2b760911b606482015260840161066c565b600082815260c960209081526040909120825161070d92840190612fff565b60006001600160e01b031982166380ac58cd60e01b1480611f8257506001600160e01b03198216635b5e139f60e01b145b8061053857506301ffc9a760e01b6001600160e01b0319831614610538565b611fa96122a1565b61070d838383612795565b61070d83838361284d565b6000611fce60028484186136ee565b61093a908484166136d6565b60fb5460ff166109515760405162461bcd60e51b815260206004820152601460248201527314185d5cd8589b194e881b9bdd081c185d5cd95960621b604482015260640161066c565b61202c81612859565b600081815260c960205260409020805461204590613745565b15905061099c57600081815260c96020526040812061099c9161307f565b600061053882610c1c565b816001600160a01b0316836001600160a01b0316141580156120905750600081115b1561070d576001600160a01b0383161561211f576001600160a01b03831660009081526101c66020526040812081906120cc9061290885612914565b91509150846001600160a01b03167fdec2bacdd2f05b59de34da9b523dff8be42e5e38e818c82fdb0bae774387a7248383604051612114929190918252602082015260400190565b60405180910390a250505b6001600160a01b0382161561070d576001600160a01b03821660009081526101c66020526040812081906121569061294285612914565b91509150836001600160a01b03167fdec2bacdd2f05b59de34da9b523dff8be42e5e38e818c82fdb0bae774387a724838360405161219e929190918252602082015260400190565b60405180910390a25050505050565b600054610100900460ff166121d45760405162461bcd60e51b815260040161066c9061363d565b81516121e7906065906020850190612fff565b50805161070d906066906020840190612fff565b600054610100900460ff166122225760405162461bcd60e51b815260040161066c9061363d565b60fb805460ff19169055565b600054610100900460ff166122555760405162461bcd60e51b815260040161066c9061363d565b61095133611ae9565b600054610100900460ff166122855760405162461bcd60e51b815260040161066c9061363d565b8151602092830120815191909201206101919190915561019255565b60fb5460ff16156109515760405162461bcd60e51b815260206004820152601060248201526f14185d5cd8589b194e881c185d5cd95960821b604482015260640161066c565b60006001600160a01b0384163b156123e957604051630a85bd0160e11b81526001600160a01b0385169063150b7a029061232b903390899088908890600401613562565b602060405180830381600087803b15801561234557600080fd5b505af1925050508015612375575060408051601f3d908101601f19168201909252612372918101906133bc565b60015b6123cf573d8080156123a3576040519150601f19603f3d011682016040523d82523d6000602084013e6123a8565b606091505b5080516123c75760405162461bcd60e51b815260040161066c906135eb565b805181602001fd5b6001600160e01b031916630a85bd0160e11b14905061157c565b50600161157c565b6000807f7fffffffffffffffffffffffffffffff5d576e7357a4501ddfe92f46681b20a083111561242857506000905060036124d5565b8460ff16601b1415801561244057508460ff16601c14155b1561245157506000905060046124d5565b6040805160008082526020820180845289905260ff881692820192909252606081018690526080810185905260019060a0016020604051602081039080840390855afa1580156124a5573d6000803e3d6000fd5b5050604051601f1901519150506001600160a01b0381166124ce576000600192509250506124d5565b9150600090505b94509492505050565b600081600481111561250057634e487b7160e01b600052602160045260246000fd5b14156125095750565b600181600481111561252b57634e487b7160e01b600052602160045260246000fd5b14156125795760405162461bcd60e51b815260206004820152601860248201527f45434453413a20696e76616c6964207369676e61747572650000000000000000604482015260640161066c565b600281600481111561259b57634e487b7160e01b600052602160045260246000fd5b14156125e95760405162461bcd60e51b815260206004820152601f60248201527f45434453413a20696e76616c6964207369676e6174757265206c656e67746800604482015260640161066c565b600381600481111561260b57634e487b7160e01b600052602160045260246000fd5b14156126645760405162461bcd60e51b815260206004820152602260248201527f45434453413a20696e76616c6964207369676e6174757265202773272076616c604482015261756560f01b606482015260840161066c565b600481600481111561268657634e487b7160e01b600052602160045260246000fd5b141561099c5760405162461bcd60e51b815260206004820152602260248201527f45434453413a20696e76616c6964207369676e6174757265202776272076616c604482015261756560f01b606482015260840161066c565b60606126ea82611438565b600061271160408051808201909152600881526768747470733a2f2f60c01b602082015290565b90506000815111612731576040518060200160405280600081525061093a565b8061273b8461294e565b60405160200161274c929190613533565b6040516020818303038152906040529392505050565b61276c8383612a68565b61277960008484846122e7565b61070d5760405162461bcd60e51b815260040161066c906135eb565b6001600160a01b0383166127f0576127eb81609980546000838152609a60205260408120829055600182018355919091527f72a152ddfb8e864297c917af52ea6c1c68aead0fee1a62673fcc7e0c94979d000155565b612813565b816001600160a01b0316836001600160a01b031614612813576128138382612bbe565b6001600160a01b03821661282a5761070d81612c5b565b826001600160a01b0316826001600160a01b03161461070d5761070d8282612d34565b61070d83836001612d78565b600061286482610bbc565b905061287281600084611fa1565b61287d600083611497565b6001600160a01b03811660009081526068602052604081208054600192906128a6908490613702565b909155505060008281526067602052604080822080546001600160a01b0319169055518391906001600160a01b038416907fddf252ad1be2c89b69c2b068fc378daa952ba7f163c4a11628f55a4df523b3ef908390a4610a4b81600084611fb4565b600061093a8284613702565b6000806129368561293161292788611b79565b868863ffffffff16565b612deb565b91509150935093915050565b600061093a82846136d6565b6060816129725750506040805180820190915260018152600360fc1b602082015290565b8160005b811561299c57806129868161377a565b91506129959050600a836136ee565b9150612976565b60008167ffffffffffffffff8111156129c557634e487b7160e01b600052604160045260246000fd5b6040519080825280601f01601f1916602001820160405280156129ef576020820181803683370190505b5090505b841561157c57612a04600183613702565b9150612a11600a86613795565b612a1c9060306136d6565b60f81b818381518110612a3f57634e487b7160e01b600052603260045260246000fd5b60200101906001600160f81b031916908160001a905350612a61600a866136ee565b94506129f3565b6001600160a01b038216612abe5760405162461bcd60e51b815260206004820181905260248201527f4552433732313a206d696e7420746f20746865207a65726f2061646472657373604482015260640161066c565b6000818152606760205260409020546001600160a01b031615612b235760405162461bcd60e51b815260206004820152601c60248201527f4552433732313a20746f6b656e20616c7265616479206d696e74656400000000604482015260640161066c565b612b2f60008383611fa1565b6001600160a01b0382166000908152606860205260408120805460019290612b589084906136d6565b909155505060008181526067602052604080822080546001600160a01b0319166001600160a01b03861690811790915590518392907fddf252ad1be2c89b69c2b068fc378daa952ba7f163c4a11628f55a4df523b3ef908290a4610a4b60008383611fb4565b60006001612bcb84610c1c565b612bd59190613702565b600083815260986020526040902054909150808214612c28576001600160a01b03841660009081526097602090815260408083208584528252808320548484528184208190558352609890915290208190555b5060009182526098602090815260408084208490556001600160a01b039094168352609781528383209183525290812055565b609954600090612c6d90600190613702565b6000838152609a602052604081205460998054939450909284908110612ca357634e487b7160e01b600052603260045260246000fd5b906000526020600020015490508060998381548110612cd257634e487b7160e01b600052603260045260246000fd5b6000918252602080832090910192909255828152609a90915260408082208490558582528120556099805480612d1857634e487b7160e01b600052603160045260246000fd5b6001900381819060005260206000200160009055905550505050565b6000612d3f83610c1c565b6001600160a01b039093166000908152609760209081526040808320868452825280832085905593825260989052919091209190915550565b6001600160a01b038316612d9857612d956101c761294283612914565b50505b6001600160a01b038216612db857612db56101c761290883612914565b50505b6001600160a01b0383811660009081526101c5602052604080822054858416835291205461070d9291821691168361206e565b8154600090819081612dfc86611b79565b9050600082118015612e4857504386612e16600185613702565b81548110612e3457634e487b7160e01b600052603260045260246000fd5b60009182526020909120015463ffffffff16145b15612eb657612e5685612f2d565b86612e62600185613702565b81548110612e8057634e487b7160e01b600052603260045260246000fd5b9060005260206000200160000160046101000a8154816001600160e01b0302191690836001600160e01b03160217905550612f24565b856000016040518060400160405280612ece43612f9a565b63ffffffff168152602001612ee288612f2d565b6001600160e01b0390811690915282546001810184556000938452602093849020835194909301519091166401000000000263ffffffff909316929092179101555b95939450505050565b60006001600160e01b03821115612f965760405162461bcd60e51b815260206004820152602760248201527f53616665436173743a2076616c756520646f65736e27742066697420696e20326044820152663234206269747360c81b606482015260840161066c565b5090565b600063ffffffff821115612f965760405162461bcd60e51b815260206004820152602660248201527f53616665436173743a2076616c756520646f65736e27742066697420696e203360448201526532206269747360d01b606482015260840161066c565b82805461300b90613745565b90600052602060002090601f01602090048101928261302d5760008555613073565b82601f1061304657805160ff1916838001178555613073565b82800160010185558215613073579182015b82811115613073578251825591602001919060010190613058565b50612f969291506130b5565b50805461308b90613745565b6000825580601f1061309b575050565b601f01602090049060005260206000209081019061099c91905b5b80821115612f9657600081556001016130b6565b600067ffffffffffffffff808411156130e5576130e56137d5565b604051601f8501601f19908116603f0116810190828211818310171561310d5761310d6137d5565b8160405280935085815286868601111561312657600080fd5b858560208301376000602087830101525050509392505050565b80356001600160a01b038116811461315757600080fd5b919050565b600082601f83011261316c578081fd5b61093a838335602085016130ca565b60006020828403121561318c578081fd5b61093a82613140565b600080604083850312156131a7578081fd5b6131b083613140565b91506131be60208401613140565b90509250929050565b6000806000606084860312156131db578081fd5b6131e484613140565b92506131f260208501613140565b9150604084013590509250925092565b60008060008060808587031215613217578081fd5b61322085613140565b935061322e60208601613140565b925060408501359150606085013567ffffffffffffffff811115613250578182fd5b8501601f81018713613260578182fd5b61326f878235602084016130ca565b91505092959194509250565b6000806040838503121561328d578182fd5b61329683613140565b915060208301356132a6816137eb565b809150509250929050565b600080604083850312156132c3578182fd5b6132cc83613140565b9150602083013567ffffffffffffffff8111156132e7578182fd5b6132f38582860161315c565b9150509250929050565b6000806040838503121561330f578182fd5b61331883613140565b946020939093013593505050565b60008060008060008060c0878903121561333e578182fd5b61334787613140565b95506020870135945060408701359350606087013560ff8116811461336a578283fd5b9598949750929560808101359460a0909101359350915050565b600060208284031215613395578081fd5b815161093a816137eb565b6000602082840312156133b1578081fd5b813561093a816137f9565b6000602082840312156133cd578081fd5b815161093a816137f9565b600080600080608085870312156133ed578182fd5b843567ffffffffffffffff80821115613404578384fd5b6134108883890161315c565b95506020870135915080821115613425578384fd5b6134318883890161315c565b94506040870135915080821115613446578384fd5b506134538782880161315c565b92505061346260608601613140565b905092959194509250565b60006020828403121561347e578081fd5b5035919050565b6000806000806080858703121561349a578182fd5b84359350602085013567ffffffffffffffff808211156134b8578384fd5b6134c48883890161315c565b945060408701359150808211156134d9578384fd5b6134e58883890161315c565b935060608701359150808211156134fa578283fd5b5061326f8782880161315c565b6000815180845261351f816020860160208601613719565b601f01601f19169290920160200192915050565b60008351613545818460208801613719565b835190830190613559818360208801613719565b01949350505050565b6001600160a01b038581168252841660208201526040810183905260806060820181905260009061359590830184613507565b9695505050505050565b60208152600061093a6020830184613507565b6060815260006135c56060830186613507565b82810360208401526135d78186613507565b905082810360408401526135958185613507565b60208082526032908201527f4552433732313a207472616e7366657220746f206e6f6e20455243373231526560408201527131b2b4bb32b91034b6b83632b6b2b73a32b960711b606082015260800190565b6020808252602b908201527f496e697469616c697a61626c653a20636f6e7472616374206973206e6f74206960408201526a6e697469616c697a696e6760a81b606082015260800190565b6020808252602e908201527f4552433732313a2063616c6c6572206973206e6f7420746f6b656e206f776e6560408201526d1c881b9bdc88185c1c1c9bdd995960921b606082015260800190565b600082198211156136e9576136e96137a9565b500190565b6000826136fd576136fd6137bf565b500490565b600082821015613714576137146137a9565b500390565b60005b8381101561373457818101518382015260200161371c565b83811115610dae5750506000910152565b600181811c9082168061375957607f821691505b60208210811415611d7e57634e487b7160e01b600052602260045260246000fd5b600060001982141561378e5761378e6137a9565b5060010190565b6000826137a4576137a46137bf565b500690565b634e487b7160e01b600052601160045260246000fd5b634e487b7160e01b600052601260045260246000fd5b634e487b7160e01b600052604160045260246000fd5b801515811461099c57600080fd5b6001600160e01b03198116811461099c57600080fdfea2646970667358221220106e9342023d1f95b824962b05e7d163ff1de63c5925f3e1f5a8864391bfa59364736f6c63430008040033",
  "linkReferences": {},
  "deployedLinkReferences": {}
}