{
  "_format": "hh-sol-artifact-1",
  "contractName": "JGovNFT",
  "sourceName": "contracts/JGovNFT.sol",
  "abi": [
    {
      "inputs": [],
      "stateMutability": "nonpayable",
      "type": "constructor"
    },
    {
      "anonymous": false,
      "inputs": [
        {
          "indexed": true,
          "internalType": "address",
          "name": "owner",
          "type": "address"
        },
        {
          "indexed": true,
          "internalType": "address",
          "name": "approved",
          "type": "address"
        },
        {
          "indexed": true,
          "internalType": "uint256",
          "name": "tokenId",
          "type": "uint256"
        }
      ],
      "name": "Approval",
      "type": "event"
    },
    {
      "anonymous": false,
      "inputs": [
        {
          "indexed": true,
          "internalType": "address",
          "name": "owner",
          "type": "address"
        },
        {
          "indexed": true,
          "internalType": "address",
          "name": "operator",
          "type": "address"
        },
        {
          "indexed": false,
          "internalType": "bool",
          "name": "approved",
          "type": "bool"
        }
      ],
      "name": "ApprovalForAll",
      "type": "event"
    },
    {
      "anonymous": false,
      "inputs": [
        {
          "indexed": true,
          "internalType": "address",
          "name": "delegator",
          "type": "address"
        },
        {
          "indexed": true,
          "internalType": "address",
          "name": "fromDelegate",
          "type": "address"
        },
        {
          "indexed": true,
          "internalType": "address",
          "name": "toDelegate",
          "type": "address"
        }
      ],
      "name": "DelegateChanged",
      "type": "event"
    },
    {
      "anonymous": false,
      "inputs": [
        {
          "indexed": true,
          "internalType": "address",
          "name": "delegate",
          "type": "address"
        },
        {
          "indexed": false,
          "internalType": "uint256",
          "name": "previousBalance",
          "type": "uint256"
        },
        {
          "indexed": false,
          "internalType": "uint256",
          "name": "newBalance",
          "type": "uint256"
        }
      ],
      "name": "DelegateVotesChanged",
      "type": "event"
    },
    {
      "anonymous": false,
      "inputs": [
        {
          "indexed": false,
          "internalType": "uint8",
          "name": "version",
          "type": "uint8"
        }
      ],
      "name": "Initialized",
      "type": "event"
    },
    {
      "anonymous": false,
      "inputs": [
        {
          "indexed": true,
          "internalType": "address",
          "name": "previousOwner",
          "type": "address"
        },
        {
          "indexed": true,
          "internalType": "address",
          "name": "newOwner",
          "type": "address"
        }
      ],
      "name": "OwnershipTransferred",
      "type": "event"
    },
    {
      "anonymous": false,
      "inputs": [
        {
          "indexed": false,
          "internalType": "address",
          "name": "account",
          "type": "address"
        }
      ],
      "name": "Paused",
      "type": "event"
    },
    {
      "anonymous": false,
      "inputs": [
        {
          "indexed": true,
          "internalType": "address",
          "name": "from",
          "type": "address"
        },
        {
          "indexed": true,
          "internalType": "address",
          "name": "to",
          "type": "address"
        },
        {
          "indexed": true,
          "internalType": "uint256",
          "name": "tokenId",
          "type": "uint256"
        }
      ],
      "name": "Transfer",
      "type": "event"
    },
    {
      "anonymous": false,
      "inputs": [
        {
          "indexed": false,
          "internalType": "address",
          "name": "account",
          "type": "address"
        }
      ],
      "name": "Unpaused",
      "type": "event"
    },
    {
      "inputs": [],
      "name": "DOMAIN_SEPARATOR",
      "outputs": [
        {
          "internalType": "bytes32",
          "name": "",
          "type": "bytes32"
        }
      ],
      "stateMutability": "view",
      "type": "function"
    },
    {
      "inputs": [
        {
          "internalType": "address",
          "name": "to",
          "type": "address"
        },
        {
          "internalType": "uint256",
          "name": "tokenId",
          "type": "uint256"
        }
      ],
      "name": "approve",
      "outputs": [],
      "stateMutability": "nonpayable",
      "type": "function"
    },
    {
      "inputs": [
        {
          "internalType": "address",
          "name": "owner",
          "type": "address"
        }
      ],
      "name": "balanceOf",
      "outputs": [
        {
          "internalType": "uint256",
          "name": "",
          "type": "uint256"
        }
      ],
      "stateMutability": "view",
      "type": "function"
    },
    {
      "inputs": [
        {
          "internalType": "uint256",
          "name": "tokenId",
          "type": "uint256"
        }
      ],
      "name": "burn",
      "outputs": [],
      "stateMutability": "nonpayable",
      "type": "function"
    },
    {
      "inputs": [
        {
          "internalType": "address",
          "name": "delegatee",
          "type": "address"
        }
      ],
      "name": "delegate",
      "outputs": [],
      "stateMutability": "nonpayable",
      "type": "function"
    },
    {
      "inputs": [
        {
          "internalType": "address",
          "name": "delegatee",
          "type": "address"
        },
        {
          "internalType": "uint256",
          "name": "nonce",
          "type": "uint256"
        },
        {
          "internalType": "uint256",
          "name": "expiry",
          "type": "uint256"
        },
        {
          "internalType": "uint8",
          "name": "v",
          "type": "uint8"
        },
        {
          "internalType": "bytes32",
          "name": "r",
          "type": "bytes32"
        },
        {
          "internalType": "bytes32",
          "name": "s",
          "type": "bytes32"
        }
      ],
      "name": "delegateBySig",
      "outputs": [],
      "stateMutability": "nonpayable",
      "type": "function"
    },
    {
      "inputs": [
        {
          "internalType": "address",
          "name": "account",
          "type": "address"
        }
      ],
      "name": "delegates",
      "outputs": [
        {
          "internalType": "address",
          "name": "",
          "type": "address"
        }
      ],
      "stateMutability": "view",
      "type": "function"
    },
    {
      "inputs": [
        {
          "internalType": "uint256",
          "name": "tokenId",
          "type": "uint256"
        }
      ],
      "name": "getApproved",
      "outputs": [
        {
          "internalType": "address",
          "name": "",
          "type": "address"
        }
      ],
      "stateMutability": "view",
      "type": "function"
    },
    {
      "inputs": [
        {
          "internalType": "uint256",
          "name": "blockNumber",
          "type": "uint256"
        }
      ],
      "name": "getPastTotalSupply",
      "outputs": [
        {
          "internalType": "uint256",
          "name": "",
          "type": "uint256"
        }
      ],
      "stateMutability": "view",
      "type": "function"
    },
    {
      "inputs": [
        {
          "internalType": "address",
          "name": "account",
          "type": "address"
        },
        {
          "internalType": "uint256",
          "name": "blockNumber",
          "type": "uint256"
        }
      ],
      "name": "getPastVotes",
      "outputs": [
        {
          "internalType": "uint256",
          "name": "",
          "type": "uint256"
        }
      ],
      "stateMutability": "view",
      "type": "function"
    },
    {
      "inputs": [
        {
          "internalType": "address",
          "name": "account",
          "type": "address"
        }
      ],
      "name": "getVotes",
      "outputs": [
        {
          "internalType": "uint256",
          "name": "",
          "type": "uint256"
        }
      ],
      "stateMutability": "view",
      "type": "function"
    },
    {
      "inputs": [
        {
          "internalType": "string",
          "name": "name",
          "type": "string"
        },
        {
          "internalType": "string",
          "name": "token",
          "type": "string"
        },
        {
          "internalType": "string",
          "name": "version",
          "type": "string"
        },
        {
          "internalType": "address",
          "name": "_rolesAddr",
          "type": "address"
        }
      ],
      "name": "initialize",
      "outputs": [],
      "stateMutability": "nonpayable",
      "type": "function"
    },
    {
      "inputs": [
        {
          "internalType": "address",
          "name": "owner",
          "type": "address"
        },
        {
          "internalType": "address",
          "name": "operator",
          "type": "address"
        }
      ],
      "name": "isApprovedForAll",
      "outputs": [
        {
          "internalType": "bool",
          "name": "",
          "type": "bool"
        }
      ],
      "stateMutability": "view",
      "type": "function"
    },
    {
      "inputs": [],
      "name": "name",
      "outputs": [
        {
          "internalType": "string",
          "name": "",
          "type": "string"
        }
      ],
      "stateMutability": "view",
      "type": "function"
    },
    {
      "inputs": [
        {
          "internalType": "address",
          "name": "owner",
          "type": "address"
        }
      ],
      "name": "nonces",
      "outputs": [
        {
          "internalType": "uint256",
          "name": "",
          "type": "uint256"
        }
      ],
      "stateMutability": "view",
      "type": "function"
    },
    {
      "inputs": [],
      "name": "owner",
      "outputs": [
        {
          "internalType": "address",
          "name": "",
          "type": "address"
        }
      ],
      "stateMutability": "view",
      "type": "function"
    },
    {
      "inputs": [
        {
          "internalType": "uint256",
          "name": "tokenId",
          "type": "uint256"
        }
      ],
      "name": "ownerOf",
      "outputs": [
        {
          "internalType": "address",
          "name": "",
          "type": "address"
        }
      ],
      "stateMutability": "view",
      "type": "function"
    },
    {
      "inputs": [],
      "name": "pause",
      "outputs": [],
      "stateMutability": "nonpayable",
      "type": "function"
    },
    {
      "inputs": [],
      "name": "paused",
      "outputs": [
        {
          "internalType": "bool",
          "name": "",
          "type": "bool"
        }
      ],
      "stateMutability": "view",
      "type": "function"
    },
    {
      "inputs": [],
      "name": "renounceOwnership",
      "outputs": [],
      "stateMutability": "nonpayable",
      "type": "function"
    },
    {
      "inputs": [
        {
          "internalType": "address",
          "name": "to",
          "type": "address"
        },
        {
          "internalType": "string",
          "name": "uri",
          "type": "string"
        }
      ],
      "name": "safeMint",
      "outputs": [],
      "stateMutability": "nonpayable",
      "type": "function"
    },
    {
      "inputs": [
        {
          "internalType": "address",
          "name": "from",
          "type": "address"
        },
        {
          "internalType": "address",
          "name": "to",
          "type": "address"
        },
        {
          "internalType": "uint256",
          "name": "tokenId",
          "type": "uint256"
        }
      ],
      "name": "safeTransferFrom",
      "outputs": [],
      "stateMutability": "nonpayable",
      "type": "function"
    },
    {
      "inputs": [
        {
          "internalType": "address",
          "name": "from",
          "type": "address"
        },
        {
          "internalType": "address",
          "name": "to",
          "type": "address"
        },
        {
          "internalType": "uint256",
          "name": "tokenId",
          "type": "uint256"
        },
        {
          "internalType": "bytes",
          "name": "data",
          "type": "bytes"
        }
      ],
      "name": "safeTransferFrom",
      "outputs": [],
      "stateMutability": "nonpayable",
      "type": "function"
    },
    {
      "inputs": [
        {
          "internalType": "address",
          "name": "operator",
          "type": "address"
        },
        {
          "internalType": "bool",
          "name": "approved",
          "type": "bool"
        }
      ],
      "name": "setApprovalForAll",
      "outputs": [],
      "stateMutability": "nonpayable",
      "type": "function"
    },
    {
      "inputs": [
        {
          "internalType": "address",
          "name": "_addr",
          "type": "address"
        }
      ],
      "name": "setContractRoles",
      "outputs": [],
      "stateMutability": "nonpayable",
      "type": "function"
    },
    {
      "inputs": [
        {
          "internalType": "bytes4",
          "name": "interfaceId",
          "type": "bytes4"
        }
      ],
      "name": "supportsInterface",
      "outputs": [
        {
          "internalType": "bool",
          "name": "",
          "type": "bool"
        }
      ],
      "stateMutability": "view",
      "type": "function"
    },
    {
      "inputs": [],
      "name": "symbol",
      "outputs": [
        {
          "internalType": "string",
          "name": "",
          "type": "string"
        }
      ],
      "stateMutability": "view",
      "type": "function"
    },
    {
      "inputs": [
        {
          "internalType": "uint256",
          "name": "index",
          "type": "uint256"
        }
      ],
      "name": "tokenByIndex",
      "outputs": [
        {
          "internalType": "uint256",
          "name": "",
          "type": "uint256"
        }
      ],
      "stateMutability": "view",
      "type": "function"
    },
    {
      "inputs": [
        {
          "internalType": "address",
          "name": "owner",
          "type": "address"
        },
        {
          "internalType": "uint256",
          "name": "index",
          "type": "uint256"
        }
      ],
      "name": "tokenOfOwnerByIndex",
      "outputs": [
        {
          "internalType": "uint256",
          "name": "",
          "type": "uint256"
        }
      ],
      "stateMutability": "view",
      "type": "function"
    },
    {
      "inputs": [
        {
          "internalType": "uint256",
          "name": "tokenId",
          "type": "uint256"
        }
      ],
      "name": "tokenURI",
      "outputs": [
        {
          "internalType": "string",
          "name": "",
          "type": "string"
        }
      ],
      "stateMutability": "view",
      "type": "function"
    },
    {
      "inputs": [],
      "name": "totalSupply",
      "outputs": [
        {
          "internalType": "uint256",
          "name": "",
          "type": "uint256"
        }
      ],
      "stateMutability": "view",
      "type": "function"
    },
    {
      "inputs": [
        {
          "internalType": "address",
          "name": "from",
          "type": "address"
        },
        {
          "internalType": "address",
          "name": "to",
          "type": "address"
        },
        {
          "internalType": "uint256",
          "name": "tokenId",
          "type": "uint256"
        }
      ],
      "name": "transferFrom",
      "outputs": [],
      "stateMutability": "nonpayable",
      "type": "function"
    },
    {
      "inputs": [
        {
          "internalType": "address",
          "name": "newOwner",
          "type": "address"
        }
      ],
      "name": "transferOwnership",
      "outputs": [],
      "stateMutability": "nonpayable",
      "type": "function"
    },
    {
      "inputs": [],
      "name": "unpause",
      "outputs": [],
      "stateMutability": "nonpayable",
      "type": "function"
    }
  ],
  "bytecode": "0x60806040523480156200001157600080fd5b506200001c62000022565b620000e4565b600054610100900460ff16156200008f5760405162461bcd60e51b815260206004820152602760248201527f496e697469616c697a61626c653a20636f6e747261637420697320696e697469604482015266616c697a696e6760c81b606482015260840160405180910390fd5b60005460ff9081161015620000e2576000805460ff191660ff9081179091556040519081527f7f26b83ff96e1f2b6a682f133852f6798a09c465da95921460cefb38474024989060200160405180910390a15b565b61326280620000f46000396000f3fe608060405234801561001057600080fd5b50600436106102065760003560e01c80636352211e1161011a5780639ab24eb0116100ad578063c87b56dd1161007c578063c87b56dd1461043c578063d204c45e1461044f578063e2fc71c114610462578063e985e9c514610475578063f2fde38b146104b157600080fd5b80639ab24eb0146103f0578063a22cb46514610403578063b88d4fde14610416578063c3cda5201461042957600080fd5b80638456cb59116100e95780638456cb59146103bb5780638da5cb5b146103c35780638e539e8c146103d557806395d89b41146103e857600080fd5b80636352211e1461037a57806370a082311461038d578063715018a6146103a05780637ecebe00146103a857600080fd5b80633a46b1a81161019d5780634f6ccce71161016c5780634f6ccce714610309578063587cde1e1461031c5780635c19a95c146103495780635c6d8da11461035c5780635c975abb1461036f57600080fd5b80633a46b1a8146102c85780633f4ba83a146102db57806342842e0e146102e357806342966c68146102f657600080fd5b806318160ddd116101d957806318160ddd1461028857806323b872dd1461029a5780632f745c59146102ad5780633644e515146102c057600080fd5b806301ffc9a71461020b57806306fdde0314610233578063081812fc14610248578063095ea7b314610273575b600080fd5b61021e610219366004612e78565b6104c4565b60405190151581526020015b60405180910390f35b61023b6104d5565b60405161022a9190612ff5565b61025b610256366004612f45565b610567565b6040516001600160a01b03909116815260200161022a565b610286610281366004612dd5565b61058e565b005b6099545b60405190815260200161022a565b6102866102a8366004612c9f565b6106a9565b61028c6102bb366004612dd5565b6106db565b61028c610771565b61028c6102d6366004612dd5565b610780565b6102866107aa565b6102866102f1366004612c9f565b6107bc565b610286610304366004612f45565b6107d7565b61028c610317366004612f45565b610808565b61025b61032a366004612c53565b6001600160a01b0390811660009081526101c560205260409020541690565b610286610357366004612c53565b6108a9565b61028661036a366004612eb0565b6108b8565b60fb5460ff1661021e565b61025b610388366004612f45565b610a25565b61028c61039b366004612c53565b610a85565b610286610b0b565b61028c6103b6366004612c53565b610b1d565b610286610b3c565b61012d546001600160a01b031661025b565b61028c6103e3366004612f45565b610b4c565b61023b610ba9565b61028c6103fe366004612c53565b610bb8565b610286610411366004612d53565b610bda565b610286610424366004612cda565b610be5565b610286610437366004612dfe565b610c1d565b61023b61044a366004612f45565b610d4a565b61028661045d366004612d89565b610d55565b610286610470366004612c53565b610d8e565b61021e610483366004612c6d565b6001600160a01b039182166000908152606a6020908152604080832093909416825291909152205460ff1690565b6102866104bf366004612c53565b610e75565b60006104cf82610eeb565b92915050565b6060606580546104e490613162565b80601f016020809104026020016040519081016040528092919081815260200182805461051090613162565b801561055d5780601f106105325761010080835404028352916020019161055d565b820191906000526020600020905b81548152906001019060200180831161054057829003601f168201915b5050505050905090565b600061057282610f10565b506000908152606960205260409020546001600160a01b031690565b600061059982610a25565b9050806001600160a01b0316836001600160a01b0316141561060c5760405162461bcd60e51b815260206004820152602160248201527f4552433732313a20617070726f76616c20746f2063757272656e74206f776e656044820152603960f91b60648201526084015b60405180910390fd5b336001600160a01b038216148061062857506106288133610483565b61069a5760405162461bcd60e51b815260206004820152603e60248201527f4552433732313a20617070726f76652063616c6c6572206973206e6f7420746f60448201527f6b656e206f776e6572206e6f7220617070726f76656420666f7220616c6c00006064820152608401610603565b6106a48383610f6f565b505050565b6106b4335b82610fdd565b6106d05760405162461bcd60e51b8152600401610603906130a5565b6106a483838361105c565b60006106e683610a85565b82106107485760405162461bcd60e51b815260206004820152602b60248201527f455243373231456e756d657261626c653a206f776e657220696e646578206f7560448201526a74206f6620626f756e647360a81b6064820152608401610603565b506001600160a01b03919091166000908152609760209081526040808320938352929052205490565b600061077b611209565b905090565b6001600160a01b03821660009081526101c6602052604081206107a39083611286565b9392505050565b6107b26113b1565b6107ba61140c565b565b6106a483838360405180602001604052806000815250610be5565b6107e0336106ae565b6107fc5760405162461bcd60e51b8152600401610603906130a5565b6108058161145e565b50565b600061081360995490565b82106108765760405162461bcd60e51b815260206004820152602c60248201527f455243373231456e756d657261626c653a20676c6f62616c20696e646578206f60448201526b7574206f6620626f756e647360a01b6064820152608401610603565b6099828154811061089757634e487b7160e01b600052603260045260246000fd5b90600052602060002001549050919050565b336108b48183611467565b5050565b600054610100900460ff16158080156108d85750600054600160ff909116105b806108f25750303b1580156108f2575060005460ff166001145b6109555760405162461bcd60e51b815260206004820152602e60248201527f496e697469616c697a61626c653a20636f6e747261637420697320616c72656160448201526d191e481a5b9a5d1a585b1a5e995960921b6064820152608401610603565b6000805460ff191660011790558015610978576000805461ff0019166101001790555b61098285856114da565b61098a61150b565b61099261150b565b61099a611532565b6109a2611561565b6109aa61150b565b6109b48584611590565b6109bc61150b565b61022a80546001600160a01b0319166001600160a01b0384161790558015610a1e576000805461ff0019169055604051600181527f7f26b83ff96e1f2b6a682f133852f6798a09c465da95921460cefb38474024989060200160405180910390a15b5050505050565b6000818152606760205260408120546001600160a01b0316806104cf5760405162461bcd60e51b8152602060048201526018602482015277115490cdcc8c4e881a5b9d985b1a59081d1bdad95b88125160421b6044820152606401610603565b60006001600160a01b038216610aef5760405162461bcd60e51b815260206004820152602960248201527f4552433732313a2061646472657373207a65726f206973206e6f7420612076616044820152683634b21037bbb732b960b91b6064820152608401610603565b506001600160a01b031660009081526068602052604090205490565b610b136113b1565b6107ba60006115c1565b6001600160a01b03811660009081526101c860205260408120546104cf565b610b446113b1565b6107ba611614565b6000438210610b9d5760405162461bcd60e51b815260206004820152601a60248201527f566f7465733a20626c6f636b206e6f7420796574206d696e65640000000000006044820152606401610603565b6104cf6101c783611286565b6060606680546104e490613162565b6001600160a01b03811660009081526101c6602052604081206104cf90611651565b6108b43383836116bb565b610bef3383610fdd565b610c0b5760405162461bcd60e51b8152600401610603906130a5565b610c178484848461178a565b50505050565b83421115610c6d5760405162461bcd60e51b815260206004820152601860248201527f566f7465733a207369676e6174757265206578706972656400000000000000006044820152606401610603565b604080517fe48329057bfd03d55e49b547132e39cffd9c1820ad7b9d4c5307691425d15adf60208201526001600160a01b038816918101919091526060810186905260808101859052600090610ce790610cdf9060a001604051602081830303815290604052805190602001206117bd565b85858561180b565b9050610cf281611833565b8614610d375760405162461bcd60e51b8152602060048201526014602482015273566f7465733a20696e76616c6964206e6f6e636560601b6044820152606401610603565b610d418188611467565b50505050505050565b60606104cf8261185c565b610d5d6113b1565b6000610d696102295490565b9050610d7a61022980546001019055565b610d848382611975565b6106a4818361198f565b610d966113b1565b61022a546001600160a01b03166324d7806c336040516001600160e01b031960e084901b1681526001600160a01b03909116600482015260240160206040518083038186803b158015610de857600080fd5b505afa158015610dfc573d6000803e3d6000fd5b505050506040513d601f19601f82011682018060405250810190610e209190612e5c565b610e525760405162461bcd60e51b815260206004820152600360248201526234303160e81b6044820152606401610603565b61022a80546001600160a01b0319166001600160a01b0392909216919091179055565b610e7d6113b1565b6001600160a01b038116610ee25760405162461bcd60e51b815260206004820152602660248201527f4f776e61626c653a206e6577206f776e657220697320746865207a65726f206160448201526564647265737360d01b6064820152608401610603565b610805816115c1565b60006001600160e01b0319821663780e9d6360e01b14806104cf57506104cf82611a29565b6000818152606760205260409020546001600160a01b03166108055760405162461bcd60e51b8152602060048201526018602482015277115490cdcc8c4e881a5b9d985b1a59081d1bdad95b88125160421b6044820152606401610603565b600081815260696020526040902080546001600160a01b0319166001600160a01b0384169081179091558190610fa482610a25565b6001600160a01b03167f8c5be1e5ebec7d5bd14f71427d1e84f3dd0314c0f7b2291e5b200ac8c7c3b92560405160405180910390a45050565b600080610fe983610a25565b9050806001600160a01b0316846001600160a01b0316148061103057506001600160a01b038082166000908152606a602090815260408083209388168352929052205460ff165b806110545750836001600160a01b031661104984610567565b6001600160a01b0316145b949350505050565b826001600160a01b031661106f82610a25565b6001600160a01b0316146110d35760405162461bcd60e51b815260206004820152602560248201527f4552433732313a207472616e736665722066726f6d20696e636f72726563742060448201526437bbb732b960d91b6064820152608401610603565b6001600160a01b0382166111355760405162461bcd60e51b8152602060048201526024808201527f4552433732313a207472616e7366657220746f20746865207a65726f206164646044820152637265737360e01b6064820152608401610603565b611140838383611a79565b61114b600082610f6f565b6001600160a01b038316600090815260686020526040812080546001929061117490849061311f565b90915550506001600160a01b03821660009081526068602052604081208054600192906111a29084906130f3565b909155505060008181526067602052604080822080546001600160a01b0319166001600160a01b0386811691821790925591518493918716917fddf252ad1be2c89b69c2b068fc378daa952ba7f163c4a11628f55a4df523b3ef91a46106a4838383611a8c565b600061077b7f8b73c3c69bb8fe3d512ecc4cf759cc79239f7b179b0ffacaa9a75d522b39400f6112396101915490565b610192546040805160208101859052908101839052606081018290524660808201523060a082015260009060c0016040516020818303038152906040528051906020012090509392505050565b60004382106112d75760405162461bcd60e51b815260206004820181905260248201527f436865636b706f696e74733a20626c6f636b206e6f7420796574206d696e65646044820152606401610603565b825460005b8181101561134a5760006112f08284611a97565b90508486600001828154811061131657634e487b7160e01b600052603260045260246000fd5b60009182526020909120015463ffffffff16111561133657809250611344565b6113418160016130f3565b91505b506112dc565b811561139c578461135c60018461311f565b8154811061137a57634e487b7160e01b600052603260045260246000fd5b60009182526020909120015464010000000090046001600160e01b031661139f565b60005b6001600160e01b031695945050505050565b61012d546001600160a01b031633146107ba5760405162461bcd60e51b815260206004820181905260248201527f4f776e61626c653a2063616c6c6572206973206e6f7420746865206f776e65726044820152606401610603565b611414611ab2565b60fb805460ff191690557f5db9ee0a495bf2e6ff9c91a7834c1ba4fdd244a5e8aa4e537bd38aeae4b073aa335b6040516001600160a01b03909116815260200160405180910390a1565b61080581611afb565b6001600160a01b0382811660008181526101c5602052604080822080548686166001600160a01b0319821681179092559151919094169392849290917f3134e8a2e6d97e929a7e54011ea5485d7d196dd5f0ba4d4ef95803e8e3fc257f9190a46106a481836114d586611b3b565b611b46565b600054610100900460ff166115015760405162461bcd60e51b81526004016106039061305a565b6108b48282611c85565b600054610100900460ff166107ba5760405162461bcd60e51b81526004016106039061305a565b600054610100900460ff166115595760405162461bcd60e51b81526004016106039061305a565b6107ba611cd3565b600054610100900460ff166115885760405162461bcd60e51b81526004016106039061305a565b6107ba611d06565b600054610100900460ff166115b75760405162461bcd60e51b81526004016106039061305a565b6108b48282611d36565b61012d80546001600160a01b038381166001600160a01b0319831681179093556040519116919082907f8be0079c531659141344cd1fd0a4f28419497f9722a3daafe3b4186f6b6457e090600090a35050565b61161c611d79565b60fb805460ff191660011790557f62e78cea01bee320cd4e420270b5ea74000d11b0c9f74754ebdbfc544b05a2586114413390565b805460009080156116a8578261166860018361311f565b8154811061168657634e487b7160e01b600052603260045260246000fd5b60009182526020909120015464010000000090046001600160e01b03166116ab565b60005b6001600160e01b03169392505050565b816001600160a01b0316836001600160a01b0316141561171d5760405162461bcd60e51b815260206004820152601960248201527f4552433732313a20617070726f766520746f2063616c6c6572000000000000006044820152606401610603565b6001600160a01b038381166000818152606a6020908152604080832094871680845294825291829020805460ff191686151590811790915591519182527f17307eab39ab6107e8899845ad3d59bd9653f200f220920489ca2b5937696c31910160405180910390a3505050565b61179584848461105c565b6117a184848484611dbf565b610c175760405162461bcd60e51b815260040161060390613008565b60006104cf6117ca611209565b8360405161190160f01b6020820152602281018390526042810182905260009060620160405160208183030381529060405280519060200120905092915050565b600080600061181c87878787611ec9565b9150915061182981611fb6565b5095945050505050565b6001600160a01b03811660009081526101c8602052604090208054600181018255905b50919050565b606061186782610f10565b600082815260c960205260408120805461188090613162565b80601f01602080910402602001604051908101604052809291908181526020018280546118ac90613162565b80156118f95780601f106118ce576101008083540402835291602001916118f9565b820191906000526020600020905b8154815290600101906020018083116118dc57829003601f168201915b50505050509050600061192760408051808201909152600881526768747470733a2f2f60c01b602082015290565b905080516000141561193a575092915050565b81511561196c578082604051602001611954929190612f89565b60405160208183030381529060405292505050919050565b611054846121b7565b6108b482826040518060200160405280600081525061223a565b6000828152606760205260409020546001600160a01b0316611a0a5760405162461bcd60e51b815260206004820152602e60248201527f45524337323155524953746f726167653a2055524920736574206f66206e6f6e60448201526d32bc34b9ba32b73a103a37b5b2b760911b6064820152608401610603565b600082815260c96020908152604090912082516106a492840190612ad7565b60006001600160e01b031982166380ac58cd60e01b1480611a5a57506001600160e01b03198216635b5e139f60e01b145b806104cf57506301ffc9a760e01b6001600160e01b03198316146104cf565b611a81611d79565b6106a483838361226d565b6106a4838383612325565b6000611aa6600284841861310b565b6107a3908484166130f3565b60fb5460ff166107ba5760405162461bcd60e51b815260206004820152601460248201527314185d5cd8589b194e881b9bdd081c185d5cd95960621b6044820152606401610603565b611b0481612331565b600081815260c9602052604090208054611b1d90613162565b15905061080557600081815260c96020526040812061080591612b57565b60006104cf82610a85565b816001600160a01b0316836001600160a01b031614158015611b685750600081115b156106a4576001600160a01b03831615611bf7576001600160a01b03831660009081526101c6602052604081208190611ba4906123e0856123ec565b91509150846001600160a01b03167fdec2bacdd2f05b59de34da9b523dff8be42e5e38e818c82fdb0bae774387a7248383604051611bec929190918252602082015260400190565b60405180910390a250505b6001600160a01b038216156106a4576001600160a01b03821660009081526101c6602052604081208190611c2e9061241a856123ec565b91509150836001600160a01b03167fdec2bacdd2f05b59de34da9b523dff8be42e5e38e818c82fdb0bae774387a7248383604051611c76929190918252602082015260400190565b60405180910390a25050505050565b600054610100900460ff16611cac5760405162461bcd60e51b81526004016106039061305a565b8151611cbf906065906020850190612ad7565b5080516106a4906066906020840190612ad7565b600054610100900460ff16611cfa5760405162461bcd60e51b81526004016106039061305a565b60fb805460ff19169055565b600054610100900460ff16611d2d5760405162461bcd60e51b81526004016106039061305a565b6107ba336115c1565b600054610100900460ff16611d5d5760405162461bcd60e51b81526004016106039061305a565b8151602092830120815191909201206101919190915561019255565b60fb5460ff16156107ba5760405162461bcd60e51b815260206004820152601060248201526f14185d5cd8589b194e881c185d5cd95960821b6044820152606401610603565b60006001600160a01b0384163b15611ec157604051630a85bd0160e11b81526001600160a01b0385169063150b7a0290611e03903390899088908890600401612fb8565b602060405180830381600087803b158015611e1d57600080fd5b505af1925050508015611e4d575060408051601f3d908101601f19168201909252611e4a91810190612e94565b60015b611ea7573d808015611e7b576040519150601f19603f3d011682016040523d82523d6000602084013e611e80565b606091505b508051611e9f5760405162461bcd60e51b815260040161060390613008565b805181602001fd5b6001600160e01b031916630a85bd0160e11b149050611054565b506001611054565b6000807f7fffffffffffffffffffffffffffffff5d576e7357a4501ddfe92f46681b20a0831115611f005750600090506003611fad565b8460ff16601b14158015611f1857508460ff16601c14155b15611f295750600090506004611fad565b6040805160008082526020820180845289905260ff881692820192909252606081018690526080810185905260019060a0016020604051602081039080840390855afa158015611f7d573d6000803e3d6000fd5b5050604051601f1901519150506001600160a01b038116611fa657600060019250925050611fad565b9150600090505b94509492505050565b6000816004811115611fd857634e487b7160e01b600052602160045260246000fd5b1415611fe15750565b600181600481111561200357634e487b7160e01b600052602160045260246000fd5b14156120515760405162461bcd60e51b815260206004820152601860248201527f45434453413a20696e76616c6964207369676e617475726500000000000000006044820152606401610603565b600281600481111561207357634e487b7160e01b600052602160045260246000fd5b14156120c15760405162461bcd60e51b815260206004820152601f60248201527f45434453413a20696e76616c6964207369676e6174757265206c656e677468006044820152606401610603565b60038160048111156120e357634e487b7160e01b600052602160045260246000fd5b141561213c5760405162461bcd60e51b815260206004820152602260248201527f45434453413a20696e76616c6964207369676e6174757265202773272076616c604482015261756560f01b6064820152608401610603565b600481600481111561215e57634e487b7160e01b600052602160045260246000fd5b14156108055760405162461bcd60e51b815260206004820152602260248201527f45434453413a20696e76616c6964207369676e6174757265202776272076616c604482015261756560f01b6064820152608401610603565b60606121c282610f10565b60006121e960408051808201909152600881526768747470733a2f2f60c01b602082015290565b9050600081511161220957604051806020016040528060008152506107a3565b8061221384612426565b604051602001612224929190612f89565b6040516020818303038152906040529392505050565b6122448383612540565b6122516000848484611dbf565b6106a45760405162461bcd60e51b815260040161060390613008565b6001600160a01b0383166122c8576122c381609980546000838152609a60205260408120829055600182018355919091527f72a152ddfb8e864297c917af52ea6c1c68aead0fee1a62673fcc7e0c94979d000155565b6122eb565b816001600160a01b0316836001600160a01b0316146122eb576122eb8382612696565b6001600160a01b038216612302576106a481612733565b826001600160a01b0316826001600160a01b0316146106a4576106a4828261280c565b6106a483836001612850565b600061233c82610a25565b905061234a81600084611a79565b612355600083610f6f565b6001600160a01b038116600090815260686020526040812080546001929061237e90849061311f565b909155505060008281526067602052604080822080546001600160a01b0319169055518391906001600160a01b038416907fddf252ad1be2c89b69c2b068fc378daa952ba7f163c4a11628f55a4df523b3ef908390a46108b481600084611a8c565b60006107a3828461311f565b60008061240e856124096123ff88611651565b868863ffffffff16565b6128c3565b91509150935093915050565b60006107a382846130f3565b60608161244a5750506040805180820190915260018152600360fc1b602082015290565b8160005b8115612474578061245e81613197565b915061246d9050600a8361310b565b915061244e565b60008167ffffffffffffffff81111561249d57634e487b7160e01b600052604160045260246000fd5b6040519080825280601f01601f1916602001820160405280156124c7576020820181803683370190505b5090505b8415611054576124dc60018361311f565b91506124e9600a866131b2565b6124f49060306130f3565b60f81b81838151811061251757634e487b7160e01b600052603260045260246000fd5b60200101906001600160f81b031916908160001a905350612539600a8661310b565b94506124cb565b6001600160a01b0382166125965760405162461bcd60e51b815260206004820181905260248201527f4552433732313a206d696e7420746f20746865207a65726f20616464726573736044820152606401610603565b6000818152606760205260409020546001600160a01b0316156125fb5760405162461bcd60e51b815260206004820152601c60248201527f4552433732313a20746f6b656e20616c7265616479206d696e746564000000006044820152606401610603565b61260760008383611a79565b6001600160a01b03821660009081526068602052604081208054600192906126309084906130f3565b909155505060008181526067602052604080822080546001600160a01b0319166001600160a01b03861690811790915590518392907fddf252ad1be2c89b69c2b068fc378daa952ba7f163c4a11628f55a4df523b3ef908290a46108b460008383611a8c565b600060016126a384610a85565b6126ad919061311f565b600083815260986020526040902054909150808214612700576001600160a01b03841660009081526097602090815260408083208584528252808320548484528184208190558352609890915290208190555b5060009182526098602090815260408084208490556001600160a01b039094168352609781528383209183525290812055565b6099546000906127459060019061311f565b6000838152609a60205260408120546099805493945090928490811061277b57634e487b7160e01b600052603260045260246000fd5b9060005260206000200154905080609983815481106127aa57634e487b7160e01b600052603260045260246000fd5b6000918252602080832090910192909255828152609a909152604080822084905585825281205560998054806127f057634e487b7160e01b600052603160045260246000fd5b6001900381819060005260206000200160009055905550505050565b600061281783610a85565b6001600160a01b039093166000908152609760209081526040808320868452825280832085905593825260989052919091209190915550565b6001600160a01b0383166128705761286d6101c761241a836123ec565b50505b6001600160a01b0382166128905761288d6101c76123e0836123ec565b50505b6001600160a01b0383811660009081526101c560205260408082205485841683529120546106a492918216911683611b46565b81546000908190816128d486611651565b9050600082118015612920575043866128ee60018561311f565b8154811061290c57634e487b7160e01b600052603260045260246000fd5b60009182526020909120015463ffffffff16145b1561298e5761292e85612a05565b8661293a60018561311f565b8154811061295857634e487b7160e01b600052603260045260246000fd5b9060005260206000200160000160046101000a8154816001600160e01b0302191690836001600160e01b031602179055506129fc565b8560000160405180604001604052806129a643612a72565b63ffffffff1681526020016129ba88612a05565b6001600160e01b0390811690915282546001810184556000938452602093849020835194909301519091166401000000000263ffffffff909316929092179101555b95939450505050565b60006001600160e01b03821115612a6e5760405162461bcd60e51b815260206004820152602760248201527f53616665436173743a2076616c756520646f65736e27742066697420696e20326044820152663234206269747360c81b6064820152608401610603565b5090565b600063ffffffff821115612a6e5760405162461bcd60e51b815260206004820152602660248201527f53616665436173743a2076616c756520646f65736e27742066697420696e203360448201526532206269747360d01b6064820152608401610603565b828054612ae390613162565b90600052602060002090601f016020900481019282612b055760008555612b4b565b82601f10612b1e57805160ff1916838001178555612b4b565b82800160010185558215612b4b579182015b82811115612b4b578251825591602001919060010190612b30565b50612a6e929150612b8d565b508054612b6390613162565b6000825580601f10612b73575050565b601f01602090049060005260206000209081019061080591905b5b80821115612a6e5760008155600101612b8e565b600067ffffffffffffffff80841115612bbd57612bbd6131f2565b604051601f8501601f19908116603f01168101908282118183101715612be557612be56131f2565b81604052809350858152868686011115612bfe57600080fd5b858560208301376000602087830101525050509392505050565b80356001600160a01b0381168114612c2f57600080fd5b919050565b600082601f830112612c44578081fd5b6107a383833560208501612ba2565b600060208284031215612c64578081fd5b6107a382612c18565b60008060408385031215612c7f578081fd5b612c8883612c18565b9150612c9660208401612c18565b90509250929050565b600080600060608486031215612cb3578081fd5b612cbc84612c18565b9250612cca60208501612c18565b9150604084013590509250925092565b60008060008060808587031215612cef578081fd5b612cf885612c18565b9350612d0660208601612c18565b925060408501359150606085013567ffffffffffffffff811115612d28578182fd5b8501601f81018713612d38578182fd5b612d4787823560208401612ba2565b91505092959194509250565b60008060408385031215612d65578182fd5b612d6e83612c18565b91506020830135612d7e81613208565b809150509250929050565b60008060408385031215612d9b578182fd5b612da483612c18565b9150602083013567ffffffffffffffff811115612dbf578182fd5b612dcb85828601612c34565b9150509250929050565b60008060408385031215612de7578182fd5b612df083612c18565b946020939093013593505050565b60008060008060008060c08789031215612e16578182fd5b612e1f87612c18565b95506020870135945060408701359350606087013560ff81168114612e42578283fd5b9598949750929560808101359460a0909101359350915050565b600060208284031215612e6d578081fd5b81516107a381613208565b600060208284031215612e89578081fd5b81356107a381613216565b600060208284031215612ea5578081fd5b81516107a381613216565b60008060008060808587031215612ec5578182fd5b843567ffffffffffffffff80821115612edc578384fd5b612ee888838901612c34565b95506020870135915080821115612efd578384fd5b612f0988838901612c34565b94506040870135915080821115612f1e578384fd5b50612f2b87828801612c34565b925050612f3a60608601612c18565b905092959194509250565b600060208284031215612f56578081fd5b5035919050565b60008151808452612f75816020860160208601613136565b601f01601f19169290920160200192915050565b60008351612f9b818460208801613136565b835190830190612faf818360208801613136565b01949350505050565b6001600160a01b0385811682528416602082015260408101839052608060608201819052600090612feb90830184612f5d565b9695505050505050565b6020815260006107a36020830184612f5d565b60208082526032908201527f4552433732313a207472616e7366657220746f206e6f6e20455243373231526560408201527131b2b4bb32b91034b6b83632b6b2b73a32b960711b606082015260800190565b6020808252602b908201527f496e697469616c697a61626c653a20636f6e7472616374206973206e6f74206960408201526a6e697469616c697a696e6760a81b606082015260800190565b6020808252602e908201527f4552433732313a2063616c6c6572206973206e6f7420746f6b656e206f776e6560408201526d1c881b9bdc88185c1c1c9bdd995960921b606082015260800190565b60008219821115613106576131066131c6565b500190565b60008261311a5761311a6131dc565b500490565b600082821015613131576131316131c6565b500390565b60005b83811015613151578181015183820152602001613139565b83811115610c175750506000910152565b600181811c9082168061317657607f821691505b6020821081141561185657634e487b7160e01b600052602260045260246000fd5b60006000198214156131ab576131ab6131c6565b5060010190565b6000826131c1576131c16131dc565b500690565b634e487b7160e01b600052601160045260246000fd5b634e487b7160e01b600052601260045260246000fd5b634e487b7160e01b600052604160045260246000fd5b801515811461080557600080fd5b6001600160e01b03198116811461080557600080fdfea264697066735822122060be11df6c52ef03a24d4ed2a3a6f8c9bc9f45884ad94b14d1c64f5e5000b0af64736f6c63430008040033",
  "linkReferences": {},
  "deployedLinkReferences": {}
}