{
  "_format": "hh-sol-artifact-1",
  "contractName": "JouralContract",
  "sourceName": "contracts/JournalContract.sol",
  "abi": [
    {
      "anonymous": false,
      "inputs": [
        {
          "indexed": false,
          "internalType": "uint8",
          "name": "version",
          "type": "uint8"
        }
      ],
      "name": "Initialized",
      "type": "event"
    },
    {
      "inputs": [
        {
          "internalType": "uint256",
          "name": "journalId",
          "type": "uint256"
        }
      ],
      "name": "approveJournal",
      "outputs": [],
      "stateMutability": "nonpayable",
      "type": "function"
    },
    {
      "inputs": [
        {
          "internalType": "uint256",
          "name": "applicationId",
          "type": "uint256"
        }
      ],
      "name": "createJournal",
      "outputs": [
        {
          "internalType": "uint256",
          "name": "",
          "type": "uint256"
        }
      ],
      "stateMutability": "nonpayable",
      "type": "function"
    },
    {
      "inputs": [],
      "name": "goal",
      "outputs": [
        {
          "internalType": "uint8",
          "name": "",
          "type": "uint8"
        }
      ],
      "stateMutability": "view",
      "type": "function"
    },
    {
      "inputs": [],
      "name": "govToken",
      "outputs": [
        {
          "internalType": "contract IERC721Upgradeable",
          "name": "",
          "type": "address"
        }
      ],
      "stateMutability": "view",
      "type": "function"
    },
    {
      "inputs": [
        {
          "internalType": "address",
          "name": "_jReviewAddress",
          "type": "address"
        },
        {
          "internalType": "address",
          "name": "_govTokenAddress",
          "type": "address"
        },
        {
          "internalType": "uint8",
          "name": "_goal",
          "type": "uint8"
        }
      ],
      "name": "initialize",
      "outputs": [],
      "stateMutability": "nonpayable",
      "type": "function"
    },
    {
      "inputs": [],
      "name": "jReview",
      "outputs": [
        {
          "internalType": "contract JReview",
          "name": "",
          "type": "address"
        }
      ],
      "stateMutability": "view",
      "type": "function"
    },
    {
      "inputs": [
        {
          "internalType": "address",
          "name": "",
          "type": "address"
        },
        {
          "internalType": "uint256",
          "name": "",
          "type": "uint256"
        }
      ],
      "name": "journals",
      "outputs": [
        {
          "internalType": "uint256",
          "name": "id",
          "type": "uint256"
        },
        {
          "components": [
            {
              "internalType": "uint256",
              "name": "id",
              "type": "uint256"
            },
            {
              "internalType": "uint256",
              "name": "journalId",
              "type": "uint256"
            },
            {
              "internalType": "uint256",
              "name": "bounty",
              "type": "uint256"
            },
            {
              "internalType": "address[]",
              "name": "reviewers",
              "type": "address[]"
            },
            {
              "internalType": "uint8",
              "name": "reviewerCount",
              "type": "uint8"
            },
            {
              "internalType": "enum JReview.ReviewStatus",
              "name": "status",
              "type": "uint8"
            }
          ],
          "internalType": "struct JReview.ReviewApplication",
          "name": "application",
          "type": "tuple"
        },
        {
          "internalType": "uint8",
          "name": "approversCount",
          "type": "uint8"
        },
        {
          "internalType": "enum JouralContract.JournalStatus",
          "name": "status",
          "type": "uint8"
        }
      ],
      "stateMutability": "view",
      "type": "function"
    },
    {
      "inputs": [
        {
          "internalType": "uint256",
          "name": "",
          "type": "uint256"
        }
      ],
      "name": "publishers",
      "outputs": [
        {
          "internalType": "address",
          "name": "",
          "type": "address"
        }
      ],
      "stateMutability": "view",
      "type": "function"
    }
  ],
  "bytecode": "0x608060405234801561001057600080fd5b50610cda806100206000396000f3fe608060405234801561001057600080fd5b50600436106100885760003560e01c806389232a001161005b57806389232a0014610119578063a11b1e351461012e578063e23ee0dd14610141578063ff060fbd1461016257600080fd5b806305268cff1461008d57806330bc6154146100bd57806340193883146100d0578063468437c8146100f6575b600080fd5b6035546100a0906001600160a01b031681565b6040516001600160a01b0390911681526020015b60405180910390f35b6034546100a0906001600160a01b031681565b6035546100e490600160a01b900460ff1681565b60405160ff90911681526020016100b4565b610109610104366004610a27565b61018b565b6040516100b49493929190610b4d565b61012c6101273660046109dd565b61029f565b005b61012c61013c366004610afb565b610457565b61015461014f366004610afb565b61066c565b6040519081526020016100b4565b6100a0610170366004610afb565b6036602052600090815260409020546001600160a01b031681565b60376020908152600092835260408084208252918352918190208054825160c0810184526001830180548252600284015482870152600384015482860152600484018054865181890281018901909752808752939694959294919360608601939283018282801561022557602002820191906000526020600020905b81546001600160a01b03168152600190910190602001808311610207575b5050509183525050600482015460ff808216602084015260409092019161010090910416600181111561026857634e487b7160e01b600052602160045260246000fd5b600181111561028757634e487b7160e01b600052602160045260246000fd5b90525060079091015460ff8082169161010090041684565b600054610100900460ff16158080156102bf5750600054600160ff909116105b806102d95750303b1580156102d9575060005460ff166001145b6103415760405162461bcd60e51b815260206004820152602e60248201527f496e697469616c697a61626c653a20636f6e747261637420697320616c72656160448201526d191e481a5b9a5d1a585b1a5e995960921b60648201526084015b60405180910390fd5b6000805460ff191660011790558015610364576000805461ff0019166101001790555b60ff8216606410156103c75760405162461bcd60e51b815260206004820152602660248201527f476f616c206d757374206265206c657373207468616e206f7220657175616c206044820152650746f203130360d41b6064820152608401610338565b603480546001600160a01b0319166001600160a01b0386811691909117909155603580549185166001600160a81b031990921691909117600160a01b60ff8516021790558015610451576000805461ff0019169055604051600181527f7f26b83ff96e1f2b6a682f133852f6798a09c465da95921460cefb38474024989060200160405180910390a15b50505050565b6000818152603660205260409020546001600160a01b0316806104af5760405162461bcd60e51b815260206004820152601060248201526f125b9d985b1a5908195b9d1c9e481a5960821b6044820152606401610338565b6035546000906001600160a01b03166370a08231336040516001600160e01b031960e084901b1681526001600160a01b03909116600482015260240160206040518083038186803b15801561050357600080fd5b505afa158015610517573d6000803e3d6000fd5b505050506040513d601f19601f8201168201806040525081019061053b9190610b13565b1161057f5760405162461bcd60e51b81526020600482015260146024820152732ab0baba3437b934bd32b2103932bb34b2bbb2b960611b6044820152606401610338565b6001600160a01b03811660009081526037602090815260408083208584528083529083206006810180546001810182559085528385200180546001600160a01b031916331790558584529152600701805460ff16916105dd83610c3b565b82546101009290920a60ff8181021990931691831602179091556035546001600160a01b0384166000908152603760209081526040808320888452909152902060070154600160a01b90910482169116109050610668576001600160a01b03811660009081526037602090815260408083208584529091529020600701805461ff0019166101001790555b5050565b603454604051631f2f4bfd60e01b81526004810183905260009182916001600160a01b0390911690631f2f4bfd9060240160006040518083038186803b1580156106b557600080fd5b505afa1580156106c9573d6000803e3d6000fd5b505050506040513d6000823e601f3d908101601f191682016040526106f19190810190610a52565b905060006106fe60335490565b6040805160a081018252828152602080820186905282516064808252610ca082018552949550919392840192908201610c808036833750505081526000602080830182905260409283018290523382526037815282822085835281529082902083518155838201518051600183019081558184015160028401559381015160038301556060810151805192949193919261079e926004870192019061089d565b50608082015160048201805460ff90921660ff1983168117825560a08501519261ffff1916176101008360018111156107e757634e487b7160e01b600052602160045260246000fd5b021790555050506040820151805161080991600684019160209091019061089d565b50606082015160078201805460ff90921660ff1983168117825560808501519261ffff19161761010083600181111561085257634e487b7160e01b600052602160045260246000fd5b02179055509050506108613390565b600082815260366020526040902080546001600160a01b0319166001600160a01b03929092169190911790556033805460010190559392505050565b8280548282559060005260206000209081019282156108f2579160200282015b828111156108f257825182546001600160a01b0319166001600160a01b039091161782556020909201916001909101906108bd565b506108fe929150610902565b5090565b5b808211156108fe5760008155600101610903565b600082601f830112610927578081fd5b8151602067ffffffffffffffff8083111561094457610944610c67565b8260051b604051601f19603f8301168101818110848211171561096957610969610c67565b60405284815283810192508684018288018501891015610987578687fd5b8692505b858310156109b257805161099e81610c7d565b84529284019260019290920191840161098b565b50979650505050505050565b8051600281106109cd57600080fd5b919050565b80516109cd81610c95565b6000806000606084860312156109f1578283fd5b83356109fc81610c7d565b92506020840135610a0c81610c7d565b91506040840135610a1c81610c95565b809150509250925092565b60008060408385031215610a39578182fd5b8235610a4481610c7d565b946020939093013593505050565b600060208284031215610a63578081fd5b815167ffffffffffffffff80821115610a7a578283fd5b9083019060c08286031215610a8d578283fd5b610a95610c12565b825181526020830151602082015260408301516040820152606083015182811115610abe578485fd5b610aca87828601610917565b606083015250610adc608084016109d2565b6080820152610aed60a084016109be565b60a082015295945050505050565b600060208284031215610b0c578081fd5b5035919050565b600060208284031215610b24578081fd5b5051919050565b60028110610b4957634e487b7160e01b600052602160045260246000fd5b9052565b848152600060206080818401526101408301865160808501528187015160a0850152604087015160c0850152606087015160c060e08601528181518084526101608701915084830193508592505b80831015610bc45783516001600160a01b03168252928401926001929092019190840190610b9b565b50608089015160ff1661010087015260a08901519350610be8610120870185610b2b565b60ff881660408701529350610bfc92505050565b610c096060830184610b2b565b95945050505050565b60405160c0810167ffffffffffffffff81118282101715610c3557610c35610c67565b60405290565b600060ff821660ff811415610c5e57634e487b7160e01b82526011600452602482fd5b60010192915050565b634e487b7160e01b600052604160045260246000fd5b6001600160a01b0381168114610c9257600080fd5b50565b60ff81168114610c9257600080fdfea2646970667358221220cfc0c699031ff72a1cd7f2749ce6a6e1ae5111c93d5624d658cec4d4570ef6ec64736f6c63430008040033",
  "linkReferences": {},
  "deployedLinkReferences": {}
}