{
  "_format": "hh-sol-artifact-1",
  "contractName": "JReview",
  "sourceName": "contracts/JReview.sol",
  "abi": [
    {
      "anonymous": false,
      "inputs": [
        {
          "indexed": false,
          "internalType": "uint8",
          "name": "version",
          "type": "uint8"
        }
      ],
      "name": "Initialized",
      "type": "event"
    },
    {
      "inputs": [
        {
          "internalType": "uint256",
          "name": "id",
          "type": "uint256"
        }
      ],
      "name": "getApplication",
      "outputs": [
        {
          "components": [
            {
              "internalType": "uint256",
              "name": "id",
              "type": "uint256"
            },
            {
              "internalType": "uint256",
              "name": "journalId",
              "type": "uint256"
            },
            {
              "internalType": "uint256",
              "name": "bounty",
              "type": "uint256"
            },
            {
              "internalType": "address[]",
              "name": "reviewers",
              "type": "address[]"
            },
            {
              "internalType": "uint8",
              "name": "reviewerCount",
              "type": "uint8"
            },
            {
              "internalType": "enum JReview.ReviewStatus",
              "name": "status",
              "type": "uint8"
            }
          ],
          "internalType": "struct JReview.ReviewApplication",
          "name": "",
          "type": "tuple"
        }
      ],
      "stateMutability": "view",
      "type": "function"
    },
    {
      "inputs": [],
      "name": "govToken",
      "outputs": [
        {
          "internalType": "contract IERC721Upgradeable",
          "name": "",
          "type": "address"
        }
      ],
      "stateMutability": "view",
      "type": "function"
    },
    {
      "inputs": [
        {
          "internalType": "address",
          "name": "_govTokenAddress",
          "type": "address"
        },
        {
          "internalType": "address",
          "name": "_jTokenAddress",
          "type": "address"
        }
      ],
      "name": "initialize",
      "outputs": [],
      "stateMutability": "nonpayable",
      "type": "function"
    },
    {
      "inputs": [],
      "name": "jToken",
      "outputs": [
        {
          "internalType": "contract IERC20Upgradeable",
          "name": "",
          "type": "address"
        }
      ],
      "stateMutability": "view",
      "type": "function"
    },
    {
      "inputs": [
        {
          "internalType": "uint256",
          "name": "id",
          "type": "uint256"
        }
      ],
      "name": "releaseBounty",
      "outputs": [],
      "stateMutability": "nonpayable",
      "type": "function"
    },
    {
      "inputs": [
        {
          "internalType": "address",
          "name": "",
          "type": "address"
        },
        {
          "internalType": "uint256",
          "name": "",
          "type": "uint256"
        }
      ],
      "name": "reviews",
      "outputs": [
        {
          "internalType": "uint256",
          "name": "id",
          "type": "uint256"
        },
        {
          "internalType": "uint256",
          "name": "journalId",
          "type": "uint256"
        },
        {
          "internalType": "uint256",
          "name": "bounty",
          "type": "uint256"
        },
        {
          "internalType": "uint8",
          "name": "reviewerCount",
          "type": "uint8"
        },
        {
          "internalType": "enum JReview.ReviewStatus",
          "name": "status",
          "type": "uint8"
        }
      ],
      "stateMutability": "view",
      "type": "function"
    },
    {
      "inputs": [
        {
          "internalType": "address",
          "name": "_token",
          "type": "address"
        }
      ],
      "name": "setToken",
      "outputs": [],
      "stateMutability": "nonpayable",
      "type": "function"
    },
    {
      "inputs": [
        {
          "internalType": "uint256",
          "name": "journalId",
          "type": "uint256"
        },
        {
          "internalType": "uint256",
          "name": "bounty",
          "type": "uint256"
        }
      ],
      "name": "submitApplication",
      "outputs": [
        {
          "internalType": "uint256",
          "name": "",
          "type": "uint256"
        }
      ],
      "stateMutability": "nonpayable",
      "type": "function"
    },
    {
      "inputs": [
        {
          "internalType": "uint256",
          "name": "id",
          "type": "uint256"
        }
      ],
      "name": "submitReview",
      "outputs": [],
      "stateMutability": "nonpayable",
      "type": "function"
    },
    {
      "inputs": [
        {
          "internalType": "uint256",
          "name": "",
          "type": "uint256"
        }
      ],
      "name": "submitters",
      "outputs": [
        {
          "internalType": "address",
          "name": "",
          "type": "address"
        }
      ],
      "stateMutability": "view",
      "type": "function"
    }
  ],
  "bytecode": "0x608060405234801561001057600080fd5b50610f20806100206000396000f3fe608060405234801561001057600080fd5b506004361061009e5760003560e01c80635ecb8f0c116100665780635ecb8f0c146101595780636db3328f1461016c578063e30b2e28146101c9578063ed0e15e9146101dc578063fc2db777146101ef57600080fd5b806305268cff146100a3578063144fa6d7146100d35780631f2f4bfd14610105578063485cc955146101255780634a70f39114610138575b600080fd5b6034546100b6906001600160a01b031681565b6040516001600160a01b0390911681526020015b60405180910390f35b6101036100e1366004610c71565b603580546001600160a01b0319166001600160a01b0392909216919091179055565b005b610118610113366004610d0d565b610218565b6040516100ca9190610db0565b610103610133366004610c92565b610365565b61014b610146366004610d3d565b6104a0565b6040519081526020016100ca565b610103610167366004610d0d565b610747565b6101b861017a366004610cc4565b603760209081526000928352604080842090915290825290208054600182015460028301546004909301549192909160ff8082169161010090041685565b6040516100ca959493929190610e4e565b6101036101d7366004610d0d565b610a02565b6035546100b6906001600160a01b031681565b6100b66101fd366004610d0d565b6036602052600090815260409020546001600160a01b031681565b610220610b84565b6000828152603660205260409020546001600160a01b03168061025e5760405162461bcd60e51b815260040161025590610d80565b60405180910390fd5b6001600160a01b0381166000908152603760209081526040808320868452825291829020825160c0810184528154815260018201548184015260028201548185015260038201805485518186028101860190965280865291949293606086019392908301828280156102f957602002820191906000526020600020905b81546001600160a01b031681526001909101906020018083116102db575b5050509183525050600482015460ff808216602084015260409092019161010090910416600181111561033c57634e487b7160e01b600052602160045260246000fd5b600181111561035b57634e487b7160e01b600052602160045260246000fd5b9052509392505050565b600054610100900460ff16158080156103855750600054600160ff909116105b8061039f5750303b15801561039f575060005460ff166001145b6104025760405162461bcd60e51b815260206004820152602e60248201527f496e697469616c697a61626c653a20636f6e747261637420697320616c72656160448201526d191e481a5b9a5d1a585b1a5e995960921b6064820152608401610255565b6000805460ff191660011790558015610425576000805461ff0019166101001790555b603480546001600160a01b038086166001600160a01b0319928316179092556035805492851692909116919091179055801561049b576000805461ff0019169055604051600181527f7f26b83ff96e1f2b6a682f133852f6798a09c465da95921460cefb38474024989060200160405180910390a15b505050565b600080336035546040516370a0823160e01b81526001600160a01b0380841660048301529293508592909116906370a082319060240160206040518083038186803b1580156104ee57600080fd5b505afa158015610502573d6000803e3d6000fd5b505050506040513d601f19601f820116820180604052508101906105269190610d25565b10156105745760405162461bcd60e51b815260206004820152601c60248201527f496e73756666696369656e74204a20546f6b656e2062616c616e6365000000006044820152606401610255565b6035546001600160a01b03166323b872dd336040516001600160e01b031960e084901b1681526001600160a01b03909116600482015230602482015260448101869052606401602060405180830381600087803b1580156105d457600080fd5b505af11580156105e8573d6000803e3d6000fd5b505050506040513d601f19601f8201168201806040525081019061060c9190610ced565b50600061061860335490565b9050610628603380546001019055565b6040805160c081018252828152602080820188905281830187905282516064808252610ca0820190945291926060840192918201610c808036833750505081526000602080830182905260409283018290526001600160a01b03861682526037815282822085835281529082902083518155838201516001820155918301516002830155606083015180516106c39260038501920190610bdb565b50608082015160048201805460ff90921660ff1983168117825560a08501519261ffff19161761010083600181111561070c57634e487b7160e01b600052602160045260246000fd5b02179055505050600081815260366020526040902080546001600160a01b0319166001600160a01b0393909316929092179091559392505050565b6000818152603660205260409020546001600160a01b03168061077c5760405162461bcd60e51b815260040161025590610d80565b336001600160a01b038216146107d45760405162461bcd60e51b815260206004820152601e60248201527f556e617574686f72697a656420746f2072656c6561736520626f756e747900006044820152606401610255565b6001600160a01b038116600090815260376020908152604080832085845290915290206004015460ff1661083f5760405162461bcd60e51b8152602060048201526012602482015271139bc81c995d9a595dd95c9cc8199bdd5b9960721b6044820152606401610255565b6001600160a01b0381166000908152603760209081526040808320858452909152902060020154156109cf576001600160a01b0381166000908152603760209081526040808320858452909152812060048101546002909101546108a69160ff1690610e79565b905060005b6001600160a01b038316600090815260376020908152604080832087845290915290206004015460ff168110156109cc576001600160a01b0383166000908152603760209081526040808320878452909152812060030180548390811061092257634e487b7160e01b600052603260045260246000fd5b60009182526020909120015460355460405163a9059cbb60e01b81526001600160a01b039283166004820181905260248201879052935091169063a9059cbb90604401602060405180830381600087803b15801561097f57600080fd5b505af1158015610993573d6000803e3d6000fd5b505050506040513d601f19601f820116820180604052508101906109b79190610ced565b505080806109c490610e99565b9150506108ab565b50505b6001600160a01b0316600090815260376020908152604080832093835292905220600401805461ff001916610100179055565b6000336034546040516370a0823160e01b81526001600160a01b038084166004830152929350600092909116906370a082319060240160206040518083038186803b158015610a5057600080fd5b505afa158015610a64573d6000803e3d6000fd5b505050506040513d601f19601f82011682018060405250810190610a889190610d25565b11610acc5760405162461bcd60e51b81526020600482015260146024820152732ab0baba3437b934bd32b2103932bb34b2bbb2b960611b6044820152606401610255565b6000828152603660205260409020546001600160a01b031680610b015760405162461bcd60e51b815260040161025590610d80565b6001600160a01b0381811660009081526037602090815260408083208784528252822060038101805460018101825590845291832090910180546001600160a01b031916938616939093179092558481526004909101805460ff1691610b6683610eb4565b91906101000a81548160ff021916908360ff16021790555050505050565b6040518060c0016040528060008152602001600081526020016000815260200160608152602001600060ff16815260200160006001811115610bd657634e487b7160e01b600052602160045260246000fd5b905290565b828054828255906000526020600020908101928215610c30579160200282015b82811115610c3057825182546001600160a01b0319166001600160a01b03909116178255602090920191600190910190610bfb565b50610c3c929150610c40565b5090565b5b80821115610c3c5760008155600101610c41565b80356001600160a01b0381168114610c6c57600080fd5b919050565b600060208284031215610c82578081fd5b610c8b82610c55565b9392505050565b60008060408385031215610ca4578081fd5b610cad83610c55565b9150610cbb60208401610c55565b90509250929050565b60008060408385031215610cd6578182fd5b610cdf83610c55565b946020939093013593505050565b600060208284031215610cfe578081fd5b81518015158114610c8b578182fd5b600060208284031215610d1e578081fd5b5035919050565b600060208284031215610d36578081fd5b5051919050565b60008060408385031215610d4f578182fd5b50508035926020909101359150565b60028110610d7c57634e487b7160e01b600052602160045260246000fd5b9052565b602080825260169082015275125b9d985b1a5908185c1c1b1a58d85d1a5bdb881a5960521b604082015260600190565b6000602080835260e0830184518285015281850151604085015260408501516060850152606085015160c060808601528181518084526101008701915084830193508592505b80831015610e1f5783516001600160a01b03168252928401926001929092019190840190610df6565b50608087015160ff811660a0880152935060a08701519350610e4460c0870185610d5e565b9695505050505050565b858152602081018590526040810184905260ff8316606082015260a08101610e446080830184610d5e565b600082610e9457634e487b7160e01b81526012600452602481fd5b500490565b6000600019821415610ead57610ead610ed4565b5060010190565b600060ff821660ff811415610ecb57610ecb610ed4565b60010192915050565b634e487b7160e01b600052601160045260246000fdfea2646970667358221220fb0c56abc11f316416e20be8fcc1d005f77531627a75be9dc299474e3fad658564736f6c63430008040033",
  "linkReferences": {},
  "deployedLinkReferences": {}
}