{
  "_format": "hh-sol-artifact-1",
  "contractName": "JReview",
  "sourceName": "contracts/JReview.sol",
  "abi": [
    {
      "anonymous": false,
      "inputs": [
        {
          "indexed": false,
          "internalType": "uint8",
          "name": "version",
          "type": "uint8"
        }
      ],
      "name": "Initialized",
      "type": "event"
    },
    {
      "inputs": [],
      "name": "govToken",
      "outputs": [
        {
          "internalType": "contract IERC721Upgradeable",
          "name": "",
          "type": "address"
        }
      ],
      "stateMutability": "view",
      "type": "function"
    },
    {
      "inputs": [
        {
          "internalType": "address",
          "name": "_govTokenAddress",
          "type": "address"
        },
        {
          "internalType": "address",
          "name": "_jTokenAddress",
          "type": "address"
        }
      ],
      "name": "initialize",
      "outputs": [],
      "stateMutability": "nonpayable",
      "type": "function"
    },
    {
      "inputs": [],
      "name": "jToken",
      "outputs": [
        {
          "internalType": "contract IERC20Upgradeable",
          "name": "",
          "type": "address"
        }
      ],
      "stateMutability": "view",
      "type": "function"
    },
    {
      "inputs": [
        {
          "internalType": "uint256",
          "name": "id",
          "type": "uint256"
        }
      ],
      "name": "releaseBounty",
      "outputs": [],
      "stateMutability": "nonpayable",
      "type": "function"
    },
    {
      "inputs": [
        {
          "internalType": "address",
          "name": "",
          "type": "address"
        },
        {
          "internalType": "uint256",
          "name": "",
          "type": "uint256"
        }
      ],
      "name": "reviews",
      "outputs": [
        {
          "internalType": "uint256",
          "name": "id",
          "type": "uint256"
        },
        {
          "internalType": "string",
          "name": "journalUuid",
          "type": "string"
        },
        {
          "internalType": "uint256",
          "name": "bounty",
          "type": "uint256"
        },
        {
          "internalType": "uint8",
          "name": "reviewerCount",
          "type": "uint8"
        },
        {
          "internalType": "enum JReview.ReviewStatus",
          "name": "status",
          "type": "uint8"
        }
      ],
      "stateMutability": "view",
      "type": "function"
    },
    {
      "inputs": [
        {
          "internalType": "string",
          "name": "journalUuid",
          "type": "string"
        },
        {
          "internalType": "uint256",
          "name": "bounty",
          "type": "uint256"
        }
      ],
      "name": "submitApplication",
      "outputs": [
        {
          "internalType": "uint256",
          "name": "",
          "type": "uint256"
        }
      ],
      "stateMutability": "nonpayable",
      "type": "function"
    },
    {
      "inputs": [
        {
          "internalType": "uint256",
          "name": "id",
          "type": "uint256"
        }
      ],
      "name": "submitReview",
      "outputs": [],
      "stateMutability": "nonpayable",
      "type": "function"
    },
    {
      "inputs": [
        {
          "internalType": "uint256",
          "name": "",
          "type": "uint256"
        }
      ],
      "name": "submitters",
      "outputs": [
        {
          "internalType": "address",
          "name": "",
          "type": "address"
        }
      ],
      "stateMutability": "view",
      "type": "function"
    }
  ],
  "bytecode": "0x608060405234801561001057600080fd5b50610ed8806100206000396000f3fe608060405234801561001057600080fd5b50600436106100885760003560e01c80638adac8381161005b5780638adac83814610109578063e30b2e281461012a578063ed0e15e91461013d578063fc2db7771461015057600080fd5b806305268cff1461008d578063485cc955146100bd5780635ecb8f0c146100d25780636db3328f146100e5575b600080fd5b6034546100a0906001600160a01b031681565b6040516001600160a01b0390911681526020015b60405180910390f35b6100d06100cb366004610bd8565b610179565b005b6100d06100e0366004610d0c565b6102b9565b6100f86100f3366004610c0a565b61059d565b6040516100b4959493929190610d5e565b61011c610117366004610c5a565b610666565b6040519081526020016100b4565b6100d0610138366004610d0c565b610923565b6035546100a0906001600160a01b031681565b6100a061015e366004610d0c565b6036602052600090815260409020546001600160a01b031681565b600054610100900460ff16158080156101995750600054600160ff909116105b806101b35750303b1580156101b3575060005460ff166001145b61021b5760405162461bcd60e51b815260206004820152602e60248201527f496e697469616c697a61626c653a20636f6e747261637420697320616c72656160448201526d191e481a5b9a5d1a585b1a5e995960921b60648201526084015b60405180910390fd5b6000805460ff19166001179055801561023e576000805461ff0019166101001790555b603480546001600160a01b038086166001600160a01b031992831617909255603580549285169290911691909117905580156102b4576000805461ff0019169055604051600181527f7f26b83ff96e1f2b6a682f133852f6798a09c465da95921460cefb38474024989060200160405180910390a15b505050565b6000818152603660205260409020546001600160a01b0316806103175760405162461bcd60e51b8152602060048201526016602482015275125b9d985b1a5908185c1c1b1a58d85d1a5bdb881a5960521b6044820152606401610212565b336001600160a01b0382161461036f5760405162461bcd60e51b815260206004820152601e60248201527f556e617574686f72697a656420746f2072656c6561736520626f756e747900006044820152606401610212565b6001600160a01b038116600090815260376020908152604080832085845290915290206004015460ff166103da5760405162461bcd60e51b8152602060048201526012602482015271139bc81c995d9a595dd95c9cc8199bdd5b9960721b6044820152606401610212565b6001600160a01b03811660009081526037602090815260408083208584529091529020600201541561056a576001600160a01b0381166000908152603760209081526040808320858452909152812060048101546002909101546104419160ff1690610de0565b905060005b6001600160a01b038316600090815260376020908152604080832087845290915290206004015460ff16811015610567576001600160a01b038316600090815260376020908152604080832087845290915281206003018054839081106104bd57634e487b7160e01b600052603260045260246000fd5b60009182526020909120015460355460405163a9059cbb60e01b81526001600160a01b039283166004820181905260248201879052935091169063a9059cbb90604401602060405180830381600087803b15801561051a57600080fd5b505af115801561052e573d6000803e3d6000fd5b505050506040513d601f19601f820116820180604052508101906105529190610c33565b5050808061055f90610e3b565b915050610446565b50505b6001600160a01b0316600090815260376020908152604080832093835292905220600401805461ff001916610100179055565b6037602090815260009283526040808420909152908252902080546001820180549192916105ca90610e00565b80601f01602080910402602001604051908101604052809291908181526020018280546105f690610e00565b80156106435780601f1061061857610100808354040283529160200191610643565b820191906000526020600020905b81548152906001019060200180831161062657829003601f168201915b50505050600283015460049093015491929160ff80821692506101009091041685565b600080336035546040516370a0823160e01b81526001600160a01b0380841660048301529293508592909116906370a082319060240160206040518083038186803b1580156106b457600080fd5b505afa1580156106c8573d6000803e3d6000fd5b505050506040513d601f19601f820116820180604052508101906106ec9190610d24565b101561073a5760405162461bcd60e51b815260206004820152601c60248201527f496e73756666696369656e74204a20546f6b656e2062616c616e6365000000006044820152606401610212565b6035546001600160a01b03166323b872dd336040516001600160e01b031960e084901b1681526001600160a01b03909116600482015230602482015260448101869052606401602060405180830381600087803b15801561079a57600080fd5b505af11580156107ae573d6000803e3d6000fd5b505050506040513d601f19601f820116820180604052508101906107d29190610c33565b5060006107de60335490565b90506107ee603380546001019055565b6040805160c081018252828152602080820188905281830187905282516064808252610ca0820190945291926060840192918201610c808036833750505081526000602080830182905260409283018290526001600160a01b038616825260378152828220858352815291902082518155828201518051919261087992600185019290910190610ace565b50604082015160028201556060820151805161089f916003840191602090910190610b52565b50608082015160048201805460ff90921660ff1983168117825560a08501519261ffff1916176101008360018111156108e857634e487b7160e01b600052602160045260246000fd5b02179055505050600081815260366020526040902080546001600160a01b0319166001600160a01b0393909316929092179091559392505050565b6000336034546040516370a0823160e01b81526001600160a01b038084166004830152929350600092909116906370a082319060240160206040518083038186803b15801561097157600080fd5b505afa158015610985573d6000803e3d6000fd5b505050506040513d601f19601f820116820180604052508101906109a99190610d24565b116109ed5760405162461bcd60e51b81526020600482015260146024820152732ab0baba3437b934bd32b2103932bb34b2bbb2b960611b6044820152606401610212565b6000828152603660205260409020546001600160a01b031680610a4b5760405162461bcd60e51b8152602060048201526016602482015275125b9d985b1a5908185c1c1b1a58d85d1a5bdb881a5960521b6044820152606401610212565b6001600160a01b0381811660009081526037602090815260408083208784528252822060038101805460018101825590845291832090910180546001600160a01b031916938616939093179092558481526004909101805460ff1691610ab083610e56565b91906101000a81548160ff021916908360ff16021790555050505050565b828054610ada90610e00565b90600052602060002090601f016020900481019282610afc5760008555610b42565b82601f10610b1557805160ff1916838001178555610b42565b82800160010185558215610b42579182015b82811115610b42578251825591602001919060010190610b27565b50610b4e929150610ba7565b5090565b828054828255906000526020600020908101928215610b42579160200282015b82811115610b4257825182546001600160a01b0319166001600160a01b03909116178255602090920191600190910190610b72565b5b80821115610b4e5760008155600101610ba8565b80356001600160a01b0381168114610bd357600080fd5b919050565b60008060408385031215610bea578182fd5b610bf383610bbc565b9150610c0160208401610bbc565b90509250929050565b60008060408385031215610c1c578182fd5b610c2583610bbc565b946020939093013593505050565b600060208284031215610c44578081fd5b81518015158114610c53578182fd5b9392505050565b60008060408385031215610c6c578182fd5b823567ffffffffffffffff80821115610c83578384fd5b818501915085601f830112610c96578384fd5b813581811115610ca857610ca8610e8c565b604051601f8201601f19908116603f01168101908382118183101715610cd057610cd0610e8c565b81604052828152886020848701011115610ce8578687fd5b82602086016020830137918201602090810196909652509694909301359450505050565b600060208284031215610d1d578081fd5b5035919050565b600060208284031215610d35578081fd5b5051919050565b60028110610d5a57634e487b7160e01b600052602160045260246000fd5b9052565b8581526000602060a08184015286518060a0850152825b81811015610d915788810183015185820160c001528201610d75565b81811115610da2578360c083870101525b5060408401879052601f01601f1916830160c0019150610dc99050606083018560ff169052565b610dd66080830184610d3c565b9695505050505050565b600082610dfb57634e487b7160e01b81526012600452602481fd5b500490565b600181811c90821680610e1457607f821691505b60208210811415610e3557634e487b7160e01b600052602260045260246000fd5b50919050565b6000600019821415610e4f57610e4f610e76565b5060010190565b600060ff821660ff811415610e6d57610e6d610e76565b60010192915050565b634e487b7160e01b600052601160045260246000fd5b634e487b7160e01b600052604160045260246000fdfea26469706673582212200738f97b100ebff36f0d5c948c718ac8782b5d0b6b39e086cd73c364aa1a658a64736f6c63430008040033",
  "linkReferences": {},
  "deployedLinkReferences": {}
}