{
  "_format": "hh-sol-artifact-1",
  "contractName": "TestToken",
  "sourceName": "contracts/TestToken.sol",
  "abi": [
    {
      "inputs": [],
      "stateMutability": "nonpayable",
      "type": "constructor"
    },
    {
      "anonymous": false,
      "inputs": [
        {
          "indexed": true,
          "internalType": "address",
          "name": "owner",
          "type": "address"
        },
        {
          "indexed": true,
          "internalType": "address",
          "name": "spender",
          "type": "address"
        },
        {
          "indexed": false,
          "internalType": "uint256",
          "name": "value",
          "type": "uint256"
        }
      ],
      "name": "Approval",
      "type": "event"
    },
    {
      "anonymous": false,
      "inputs": [
        {
          "indexed": true,
          "internalType": "address",
          "name": "previousOwner",
          "type": "address"
        },
        {
          "indexed": true,
          "internalType": "address",
          "name": "newOwner",
          "type": "address"
        }
      ],
      "name": "OwnershipTransferred",
      "type": "event"
    },
    {
      "anonymous": false,
      "inputs": [
        {
          "indexed": false,
          "internalType": "address",
          "name": "account",
          "type": "address"
        }
      ],
      "name": "Paused",
      "type": "event"
    },
    {
      "anonymous": false,
      "inputs": [
        {
          "indexed": true,
          "internalType": "bytes32",
          "name": "role",
          "type": "bytes32"
        },
        {
          "indexed": true,
          "internalType": "bytes32",
          "name": "previousAdminRole",
          "type": "bytes32"
        },
        {
          "indexed": true,
          "internalType": "bytes32",
          "name": "newAdminRole",
          "type": "bytes32"
        }
      ],
      "name": "RoleAdminChanged",
      "type": "event"
    },
    {
      "anonymous": false,
      "inputs": [
        {
          "indexed": true,
          "internalType": "bytes32",
          "name": "role",
          "type": "bytes32"
        },
        {
          "indexed": true,
          "internalType": "address",
          "name": "account",
          "type": "address"
        },
        {
          "indexed": true,
          "internalType": "address",
          "name": "sender",
          "type": "address"
        }
      ],
      "name": "RoleGranted",
      "type": "event"
    },
    {
      "anonymous": false,
      "inputs": [
        {
          "indexed": true,
          "internalType": "bytes32",
          "name": "role",
          "type": "bytes32"
        },
        {
          "indexed": true,
          "internalType": "address",
          "name": "account",
          "type": "address"
        },
        {
          "indexed": true,
          "internalType": "address",
          "name": "sender",
          "type": "address"
        }
      ],
      "name": "RoleRevoked",
      "type": "event"
    },
    {
      "anonymous": false,
      "inputs": [
        {
          "indexed": true,
          "internalType": "address",
          "name": "from",
          "type": "address"
        },
        {
          "indexed": true,
          "internalType": "address",
          "name": "to",
          "type": "address"
        },
        {
          "indexed": false,
          "internalType": "uint256",
          "name": "value",
          "type": "uint256"
        }
      ],
      "name": "Transfer",
      "type": "event"
    },
    {
      "anonymous": false,
      "inputs": [
        {
          "indexed": false,
          "internalType": "address",
          "name": "account",
          "type": "address"
        }
      ],
      "name": "Unpaused",
      "type": "event"
    },
    {
      "inputs": [],
      "name": "DEFAULT_ADMIN_ROLE",
      "outputs": [
        {
          "internalType": "bytes32",
          "name": "",
          "type": "bytes32"
        }
      ],
      "stateMutability": "view",
      "type": "function"
    },
    {
      "inputs": [],
      "name": "MINTER_ROLE",
      "outputs": [
        {
          "internalType": "bytes32",
          "name": "",
          "type": "bytes32"
        }
      ],
      "stateMutability": "view",
      "type": "function"
    },
    {
      "inputs": [],
      "name": "PAUSER_ROLE",
      "outputs": [
        {
          "internalType": "bytes32",
          "name": "",
          "type": "bytes32"
        }
      ],
      "stateMutability": "view",
      "type": "function"
    },
    {
      "inputs": [
        {
          "internalType": "address",
          "name": "owner",
          "type": "address"
        },
        {
          "internalType": "address",
          "name": "spender",
          "type": "address"
        }
      ],
      "name": "allowance",
      "outputs": [
        {
          "internalType": "uint256",
          "name": "",
          "type": "uint256"
        }
      ],
      "stateMutability": "view",
      "type": "function"
    },
    {
      "inputs": [
        {
          "internalType": "address",
          "name": "spender",
          "type": "address"
        },
        {
          "internalType": "uint256",
          "name": "amount",
          "type": "uint256"
        }
      ],
      "name": "approve",
      "outputs": [
        {
          "internalType": "bool",
          "name": "",
          "type": "bool"
        }
      ],
      "stateMutability": "nonpayable",
      "type": "function"
    },
    {
      "inputs": [
        {
          "internalType": "address",
          "name": "account",
          "type": "address"
        }
      ],
      "name": "balanceOf",
      "outputs": [
        {
          "internalType": "uint256",
          "name": "",
          "type": "uint256"
        }
      ],
      "stateMutability": "view",
      "type": "function"
    },
    {
      "inputs": [
        {
          "internalType": "uint256",
          "name": "amount",
          "type": "uint256"
        }
      ],
      "name": "burn",
      "outputs": [],
      "stateMutability": "nonpayable",
      "type": "function"
    },
    {
      "inputs": [
        {
          "internalType": "address",
          "name": "account",
          "type": "address"
        },
        {
          "internalType": "uint256",
          "name": "amount",
          "type": "uint256"
        }
      ],
      "name": "burnFrom",
      "outputs": [],
      "stateMutability": "nonpayable",
      "type": "function"
    },
    {
      "inputs": [],
      "name": "decimals",
      "outputs": [
        {
          "internalType": "uint8",
          "name": "",
          "type": "uint8"
        }
      ],
      "stateMutability": "view",
      "type": "function"
    },
    {
      "inputs": [
        {
          "internalType": "address",
          "name": "spender",
          "type": "address"
        },
        {
          "internalType": "uint256",
          "name": "subtractedValue",
          "type": "uint256"
        }
      ],
      "name": "decreaseAllowance",
      "outputs": [
        {
          "internalType": "bool",
          "name": "",
          "type": "bool"
        }
      ],
      "stateMutability": "nonpayable",
      "type": "function"
    },
    {
      "inputs": [
        {
          "internalType": "bytes32",
          "name": "role",
          "type": "bytes32"
        }
      ],
      "name": "getRoleAdmin",
      "outputs": [
        {
          "internalType": "bytes32",
          "name": "",
          "type": "bytes32"
        }
      ],
      "stateMutability": "view",
      "type": "function"
    },
    {
      "inputs": [
        {
          "internalType": "bytes32",
          "name": "role",
          "type": "bytes32"
        },
        {
          "internalType": "uint256",
          "name": "index",
          "type": "uint256"
        }
      ],
      "name": "getRoleMember",
      "outputs": [
        {
          "internalType": "address",
          "name": "",
          "type": "address"
        }
      ],
      "stateMutability": "view",
      "type": "function"
    },
    {
      "inputs": [
        {
          "internalType": "bytes32",
          "name": "role",
          "type": "bytes32"
        }
      ],
      "name": "getRoleMemberCount",
      "outputs": [
        {
          "internalType": "uint256",
          "name": "",
          "type": "uint256"
        }
      ],
      "stateMutability": "view",
      "type": "function"
    },
    {
      "inputs": [
        {
          "internalType": "bytes32",
          "name": "role",
          "type": "bytes32"
        },
        {
          "internalType": "address",
          "name": "account",
          "type": "address"
        }
      ],
      "name": "grantRole",
      "outputs": [],
      "stateMutability": "nonpayable",
      "type": "function"
    },
    {
      "inputs": [
        {
          "internalType": "bytes32",
          "name": "role",
          "type": "bytes32"
        },
        {
          "internalType": "address",
          "name": "account",
          "type": "address"
        }
      ],
      "name": "hasRole",
      "outputs": [
        {
          "internalType": "bool",
          "name": "",
          "type": "bool"
        }
      ],
      "stateMutability": "view",
      "type": "function"
    },
    {
      "inputs": [
        {
          "internalType": "address",
          "name": "spender",
          "type": "address"
        },
        {
          "internalType": "uint256",
          "name": "addedValue",
          "type": "uint256"
        }
      ],
      "name": "increaseAllowance",
      "outputs": [
        {
          "internalType": "bool",
          "name": "",
          "type": "bool"
        }
      ],
      "stateMutability": "nonpayable",
      "type": "function"
    },
    {
      "inputs": [
        {
          "internalType": "address",
          "name": "to",
          "type": "address"
        },
        {
          "internalType": "uint256",
          "name": "amount",
          "type": "uint256"
        }
      ],
      "name": "mint",
      "outputs": [],
      "stateMutability": "nonpayable",
      "type": "function"
    },
    {
      "inputs": [],
      "name": "name",
      "outputs": [
        {
          "internalType": "string",
          "name": "",
          "type": "string"
        }
      ],
      "stateMutability": "view",
      "type": "function"
    },
    {
      "inputs": [],
      "name": "owner",
      "outputs": [
        {
          "internalType": "address",
          "name": "",
          "type": "address"
        }
      ],
      "stateMutability": "view",
      "type": "function"
    },
    {
      "inputs": [],
      "name": "pause",
      "outputs": [],
      "stateMutability": "nonpayable",
      "type": "function"
    },
    {
      "inputs": [],
      "name": "paused",
      "outputs": [
        {
          "internalType": "bool",
          "name": "",
          "type": "bool"
        }
      ],
      "stateMutability": "view",
      "type": "function"
    },
    {
      "inputs": [],
      "name": "renounceOwnership",
      "outputs": [],
      "stateMutability": "nonpayable",
      "type": "function"
    },
    {
      "inputs": [
        {
          "internalType": "bytes32",
          "name": "role",
          "type": "bytes32"
        },
        {
          "internalType": "address",
          "name": "account",
          "type": "address"
        }
      ],
      "name": "renounceRole",
      "outputs": [],
      "stateMutability": "nonpayable",
      "type": "function"
    },
    {
      "inputs": [
        {
          "internalType": "bytes32",
          "name": "role",
          "type": "bytes32"
        },
        {
          "internalType": "address",
          "name": "account",
          "type": "address"
        }
      ],
      "name": "revokeRole",
      "outputs": [],
      "stateMutability": "nonpayable",
      "type": "function"
    },
    {
      "inputs": [
        {
          "internalType": "bytes4",
          "name": "interfaceId",
          "type": "bytes4"
        }
      ],
      "name": "supportsInterface",
      "outputs": [
        {
          "internalType": "bool",
          "name": "",
          "type": "bool"
        }
      ],
      "stateMutability": "view",
      "type": "function"
    },
    {
      "inputs": [],
      "name": "symbol",
      "outputs": [
        {
          "internalType": "string",
          "name": "",
          "type": "string"
        }
      ],
      "stateMutability": "view",
      "type": "function"
    },
    {
      "inputs": [],
      "name": "totalSupply",
      "outputs": [
        {
          "internalType": "uint256",
          "name": "",
          "type": "uint256"
        }
      ],
      "stateMutability": "view",
      "type": "function"
    },
    {
      "inputs": [
        {
          "internalType": "address",
          "name": "to",
          "type": "address"
        },
        {
          "internalType": "uint256",
          "name": "amount",
          "type": "uint256"
        }
      ],
      "name": "transfer",
      "outputs": [
        {
          "internalType": "bool",
          "name": "",
          "type": "bool"
        }
      ],
      "stateMutability": "nonpayable",
      "type": "function"
    },
    {
      "inputs": [
        {
          "internalType": "address",
          "name": "from",
          "type": "address"
        },
        {
          "internalType": "address",
          "name": "to",
          "type": "address"
        },
        {
          "internalType": "uint256",
          "name": "amount",
          "type": "uint256"
        }
      ],
      "name": "transferFrom",
      "outputs": [
        {
          "internalType": "bool",
          "name": "",
          "type": "bool"
        }
      ],
      "stateMutability": "nonpayable",
      "type": "function"
    },
    {
      "inputs": [
        {
          "internalType": "address",
          "name": "newOwner",
          "type": "address"
        }
      ],
      "name": "transferOwnership",
      "outputs": [],
      "stateMutability": "nonpayable",
      "type": "function"
    },
    {
      "inputs": [],
      "name": "unpause",
      "outputs": [],
      "stateMutability": "nonpayable",
      "type": "function"
    }
  ],
  "bytecode": "0x60806040523480156200001157600080fd5b5060408051808201825260098152682a32b9ba2a37b5b2b760b91b60208083019182528351808501909452600384526220a92160e91b90840152815191929183918391620000629160059162000466565b5080516200007890600690602084019062000466565b50506007805460ff1916905550620000936000335b62000116565b620000bf7f9f2df0fed2c77648de5860a4cc508cd0818c85b8b8a1ab4ceeef8d981c8956a6336200008d565b620000eb7f65d7a28e3265b37a6474929f336521b332c1681b933f6cb9f3376673440d862a336200008d565b50620000f990503362000126565b62000110336a52b7d2dcc80cd2e400000062000180565b6200056e565b62000122828262000279565b5050565b600780546001600160a01b03838116610100818102610100600160a81b031985161790945560405193909204169182907f8be0079c531659141344cd1fd0a4f28419497f9722a3daafe3b4186f6b6457e090600090a35050565b6001600160a01b038216620001dc5760405162461bcd60e51b815260206004820152601f60248201527f45524332303a206d696e7420746f20746865207a65726f20616464726573730060448201526064015b60405180910390fd5b620001ea60008383620002bc565b8060046000828254620001fe91906200050c565b90915550506001600160a01b038216600090815260026020526040812080548392906200022d9084906200050c565b90915550506040518181526001600160a01b038316906000907fddf252ad1be2c89b69c2b068fc378daa952ba7f163c4a11628f55a4df523b3ef9060200160405180910390a362000122565b620002908282620002d460201b62000a1c1760201c565b6000828152600160209081526040909120620002b791839062000aa062000374821b17901c565b505050565b620002b78383836200039460201b62000ab51760201c565b6000828152602081815260408083206001600160a01b038516845290915290205460ff1662000122576000828152602081815260408083206001600160a01b03851684529091529020805460ff19166001179055620003303390565b6001600160a01b0316816001600160a01b0316837f2f8788117e7eff1d82e926ec794901d17c78024a50270940304540a733656f0d60405160405180910390a45050565b60006200038b836001600160a01b03841662000414565b90505b92915050565b620003ac838383620002b760201b620005981760201c565b60075460ff1615620002b75760405162461bcd60e51b815260206004820152602a60248201527f45524332305061757361626c653a20746f6b656e207472616e736665722077686044820152691a5b19481c185d5cd95960b21b6064820152608401620001d3565b60008181526001830160205260408120546200045d575081546001818101845560008481526020808220909301849055845484825282860190935260409020919091556200038e565b5060006200038e565b828054620004749062000531565b90600052602060002090601f016020900481019282620004985760008555620004e3565b82601f10620004b357805160ff1916838001178555620004e3565b82800160010185558215620004e3579182015b82811115620004e3578251825591602001919060010190620004c6565b50620004f1929150620004f5565b5090565b5b80821115620004f15760008155600101620004f6565b600082198211156200052c57634e487b7160e01b81526011600452602481fd5b500190565b6002810460018216806200054657607f821691505b602082108114156200056857634e487b7160e01b600052602260045260246000fd5b50919050565b611ac2806200057e6000396000f3fe608060405234801561001057600080fd5b50600436106101e55760003560e01c8063715018a61161010f578063a457c2d7116100a2578063d547741f11610071578063d547741f14610416578063dd62ed3e14610429578063e63ab1e91461043c578063f2fde38b14610463576101e5565b8063a457c2d7146103b6578063a9059cbb146103c9578063ca15c873146103dc578063d5391393146103ef576101e5565b80639010d07c116100de5780639010d07c1461038057806391d148541461039357806395d89b41146103a6578063a217fddf146103ae576101e5565b8063715018a61461032e57806379cc6790146103365780638456cb59146103495780638da5cb5b14610351576101e5565b8063313ce5671161018757806340c10f191161015657806340c10f19146102d457806342966c68146102e75780635c975abb146102fa57806370a0823114610305576101e5565b8063313ce5671461029757806336568abe146102a657806339509351146102b95780633f4ba83a146102cc576101e5565b806318160ddd116101c357806318160ddd1461023a57806323b872dd1461024c578063248a9ca31461025f5780632f2ff15d14610282576101e5565b806301ffc9a7146101ea57806306fdde0314610212578063095ea7b314610227575b600080fd5b6101fd6101f83660046118da565b610476565b60405190151581526020015b60405180910390f35b61021a6104a3565b6040516102099190611977565b6101fd610235366004611856565b610535565b6004545b604051908152602001610209565b6101fd61025a36600461181b565b61054f565b61023e61026d36600461187f565b60009081526020819052604090206001015490565b610295610290366004611897565b610573565b005b60405160128152602001610209565b6102956102b4366004611897565b61059d565b6101fd6102c7366004611856565b610620565b610295610642565b6102956102e2366004611856565b6106e8565b6102956102f536600461187f565b610787565b60075460ff166101fd565b61023e6103133660046117cf565b6001600160a01b031660009081526002602052604090205490565b610295610794565b610295610344366004611856565b6107a6565b6102956107bb565b61036860075461010090046001600160a01b031690565b6040516001600160a01b039091168152602001610209565b61036861038e3660046118b9565b61085f565b6101fd6103a1366004611897565b61087e565b61021a6108a7565b61023e600081565b6101fd6103c4366004611856565b6108b6565b6101fd6103d7366004611856565b610931565b61023e6103ea36600461187f565b61093f565b61023e7f9f2df0fed2c77648de5860a4cc508cd0818c85b8b8a1ab4ceeef8d981c8956a681565b610295610424366004611897565b610956565b61023e6104373660046117e9565b61097b565b61023e7f65d7a28e3265b37a6474929f336521b332c1681b933f6cb9f3376673440d862a81565b6102956104713660046117cf565b6109a6565b60006001600160e01b03198216635a05180f60e01b148061049b575061049b82610b1b565b90505b919050565b6060600580546104b290611a3b565b80601f01602080910402602001604051908101604052809291908181526020018280546104de90611a3b565b801561052b5780601f106105005761010080835404028352916020019161052b565b820191906000526020600020905b81548152906001019060200180831161050e57829003601f168201915b5050505050905090565b600033610543818585610b50565b60019150505b92915050565b60003361055d858285610c74565b610568858585610cee565b506001949350505050565b60008281526020819052604090206001015461058e81610ec7565b6105988383610ed1565b505050565b6001600160a01b03811633146106125760405162461bcd60e51b815260206004820152602f60248201527f416363657373436f6e74726f6c3a2063616e206f6e6c792072656e6f756e636560448201526e103937b632b9903337b91039b2b63360891b60648201526084015b60405180910390fd5b61061c8282610ef3565b5050565b600033610543818585610633838361097b565b61063d91906119aa565b610b50565b61066c7f65d7a28e3265b37a6474929f336521b332c1681b933f6cb9f3376673440d862a336103a1565b6106de5760405162461bcd60e51b815260206004820152603960248201527f45524332305072657365744d696e7465725061757365723a206d75737420686160448201527f76652070617573657220726f6c6520746f20756e7061757365000000000000006064820152608401610609565b6106e6610f15565b565b6107127f9f2df0fed2c77648de5860a4cc508cd0818c85b8b8a1ab4ceeef8d981c8956a6336103a1565b61077d5760405162461bcd60e51b815260206004820152603660248201527f45524332305072657365744d696e7465725061757365723a206d7573742068616044820152751d99481b5a5b9d195c881c9bdb19481d1bc81b5a5b9d60521b6064820152608401610609565b61061c8282610f67565b6107913382611053565b50565b61079c6111ad565b6106e6600061120d565b6107b1823383610c74565b61061c8282611053565b6107e57f65d7a28e3265b37a6474929f336521b332c1681b933f6cb9f3376673440d862a336103a1565b6108575760405162461bcd60e51b815260206004820152603760248201527f45524332305072657365744d696e7465725061757365723a206d75737420686160448201527f76652070617573657220726f6c6520746f2070617573650000000000000000006064820152608401610609565b6106e6611267565b600082815260016020526040812061087790836112a4565b9392505050565b6000918252602082815260408084206001600160a01b0393909316845291905290205460ff1690565b6060600680546104b290611a3b565b600033816108c4828661097b565b9050838110156109245760405162461bcd60e51b815260206004820152602560248201527f45524332303a2064656372656173656420616c6c6f77616e63652062656c6f77604482015264207a65726f60d81b6064820152608401610609565b6105688286868403610b50565b600033610543818585610cee565b600081815260016020526040812061049b906112b0565b60008281526020819052604090206001015461097181610ec7565b6105988383610ef3565b6001600160a01b03918216600090815260036020908152604080832093909416825291909152205490565b6109ae6111ad565b6001600160a01b038116610a135760405162461bcd60e51b815260206004820152602660248201527f4f776e61626c653a206e6577206f776e657220697320746865207a65726f206160448201526564647265737360d01b6064820152608401610609565b6107918161120d565b610a26828261087e565b61061c576000828152602081815260408083206001600160a01b03851684529091529020805460ff19166001179055610a5c3390565b6001600160a01b0316816001600160a01b0316837f2f8788117e7eff1d82e926ec794901d17c78024a50270940304540a733656f0d60405160405180910390a45050565b6000610877836001600160a01b0384166112ba565b60075460ff16156105985760405162461bcd60e51b815260206004820152602a60248201527f45524332305061757361626c653a20746f6b656e207472616e736665722077686044820152691a5b19481c185d5cd95960b21b6064820152608401610609565b60006001600160e01b03198216637965db0b60e01b148061049b57506301ffc9a760e01b6001600160e01b031983161461049b565b6001600160a01b038316610bb25760405162461bcd60e51b8152602060048201526024808201527f45524332303a20617070726f76652066726f6d20746865207a65726f206164646044820152637265737360e01b6064820152608401610609565b6001600160a01b038216610c135760405162461bcd60e51b815260206004820152602260248201527f45524332303a20617070726f766520746f20746865207a65726f206164647265604482015261737360f01b6064820152608401610609565b6001600160a01b0383811660008181526003602090815260408083209487168084529482529182902085905590518481527f8c5be1e5ebec7d5bd14f71427d1e84f3dd0314c0f7b2291e5b200ac8c7c3b925910160405180910390a3505050565b6000610c80848461097b565b90506000198114610ce85781811015610cdb5760405162461bcd60e51b815260206004820152601d60248201527f45524332303a20696e73756666696369656e7420616c6c6f77616e63650000006044820152606401610609565b610ce88484848403610b50565b50505050565b6001600160a01b038316610d525760405162461bcd60e51b815260206004820152602560248201527f45524332303a207472616e736665722066726f6d20746865207a65726f206164604482015264647265737360d81b6064820152608401610609565b6001600160a01b038216610db45760405162461bcd60e51b815260206004820152602360248201527f45524332303a207472616e7366657220746f20746865207a65726f206164647260448201526265737360e81b6064820152608401610609565b610dbf838383611309565b6001600160a01b03831660009081526002602052604090205481811015610e375760405162461bcd60e51b815260206004820152602660248201527f45524332303a207472616e7366657220616d6f756e7420657863656564732062604482015265616c616e636560d01b6064820152608401610609565b6001600160a01b03808516600090815260026020526040808220858503905591851681529081208054849290610e6e9084906119aa565b92505081905550826001600160a01b0316846001600160a01b03167fddf252ad1be2c89b69c2b068fc378daa952ba7f163c4a11628f55a4df523b3ef84604051610eba91815260200190565b60405180910390a3610ce8565b6107918133611314565b610edb8282610a1c565b60008281526001602052604090206105989082610aa0565b610efd8282611378565b600082815260016020526040902061059890826113dd565b610f1d6113f2565b6007805460ff191690557f5db9ee0a495bf2e6ff9c91a7834c1ba4fdd244a5e8aa4e537bd38aeae4b073aa335b6040516001600160a01b03909116815260200160405180910390a1565b6001600160a01b038216610fbd5760405162461bcd60e51b815260206004820152601f60248201527f45524332303a206d696e7420746f20746865207a65726f2061646472657373006044820152606401610609565b610fc960008383611309565b8060046000828254610fdb91906119aa565b90915550506001600160a01b038216600090815260026020526040812080548392906110089084906119aa565b90915550506040518181526001600160a01b038316906000907fddf252ad1be2c89b69c2b068fc378daa952ba7f163c4a11628f55a4df523b3ef9060200160405180910390a361061c565b6001600160a01b0382166110b35760405162461bcd60e51b815260206004820152602160248201527f45524332303a206275726e2066726f6d20746865207a65726f206164647265736044820152607360f81b6064820152608401610609565b6110bf82600083611309565b6001600160a01b038216600090815260026020526040902054818110156111335760405162461bcd60e51b815260206004820152602260248201527f45524332303a206275726e20616d6f756e7420657863656564732062616c616e604482015261636560f01b6064820152608401610609565b6001600160a01b03831660009081526002602052604081208383039055600480548492906111629084906119e1565b90915550506040518281526000906001600160a01b038516907fddf252ad1be2c89b69c2b068fc378daa952ba7f163c4a11628f55a4df523b3ef9060200160405180910390a3610598565b6007546001600160a01b036101009091041633146106e65760405162461bcd60e51b815260206004820181905260248201527f4f776e61626c653a2063616c6c6572206973206e6f7420746865206f776e65726044820152606401610609565b600780546001600160a01b03838116610100818102610100600160a81b031985161790945560405193909204169182907f8be0079c531659141344cd1fd0a4f28419497f9722a3daafe3b4186f6b6457e090600090a35050565b61126f61143b565b6007805460ff191660011790557f62e78cea01bee320cd4e420270b5ea74000d11b0c9f74754ebdbfc544b05a258610f4a3390565b60006108778383611481565b600061049b825490565b600081815260018301602052604081205461130157508154600181810184556000848152602080822090930184905584548482528286019093526040902091909155610549565b506000610549565b610598838383610ab5565b61131e828261087e565b61061c57611336816001600160a01b031660146114b9565b6113418360206114b9565b604051602001611352929190611902565b60408051601f198184030181529082905262461bcd60e51b825261060991600401611977565b611382828261087e565b1561061c576000828152602081815260408083206001600160a01b0385168085529252808320805460ff1916905551339285917ff6391f5c32d9c69d2a47ea670b442974b53935d1edc7fd64eb21e047a839171b9190a45050565b6000610877836001600160a01b03841661169b565b60075460ff166106e65760405162461bcd60e51b815260206004820152601460248201527314185d5cd8589b194e881b9bdd081c185d5cd95960621b6044820152606401610609565b60075460ff16156106e65760405162461bcd60e51b815260206004820152601060248201526f14185d5cd8589b194e881c185d5cd95960821b6044820152606401610609565b60008260000182815481106114a657634e487b7160e01b600052603260045260246000fd5b9060005260206000200154905092915050565b606060006114c88360026119c2565b6114d39060026119aa565b67ffffffffffffffff8111156114f957634e487b7160e01b600052604160045260246000fd5b6040519080825280601f01601f191660200182016040528015611523576020820181803683370190505b509050600360fc1b8160008151811061154c57634e487b7160e01b600052603260045260246000fd5b60200101906001600160f81b031916908160001a905350600f60fb1b8160018151811061158957634e487b7160e01b600052603260045260246000fd5b60200101906001600160f81b031916908160001a90535060006115ad8460026119c2565b6115b89060016119aa565b90505b600181111561164c576f181899199a1a9b1b9c1cb0b131b232b360811b85600f16601081106115fa57634e487b7160e01b600052603260045260246000fd5b1a60f81b82828151811061161e57634e487b7160e01b600052603260045260246000fd5b60200101906001600160f81b031916908160001a90535060049490941c9361164581611a24565b90506115bb565b5083156108775760405162461bcd60e51b815260206004820181905260248201527f537472696e67733a20686578206c656e67746820696e73756666696369656e746044820152606401610609565b600081815260018301602052604081205480156117ae5760006116bf6001836119e1565b85549091506000906116d3906001906119e1565b905081811461175457600086600001828154811061170157634e487b7160e01b600052603260045260246000fd5b906000526020600020015490508087600001848154811061173257634e487b7160e01b600052603260045260246000fd5b6000918252602080832090910192909255918252600188019052604090208390555b855486908061177357634e487b7160e01b600052603160045260246000fd5b600190038181906000526020600020016000905590558560010160008681526020019081526020016000206000905560019350505050610549565b6000915050610549565b80356001600160a01b038116811461049e57600080fd5b6000602082840312156117e0578081fd5b610877826117b8565b600080604083850312156117fb578081fd5b611804836117b8565b9150611812602084016117b8565b90509250929050565b60008060006060848603121561182f578081fd5b611838846117b8565b9250611846602085016117b8565b9150604084013590509250925092565b60008060408385031215611868578182fd5b611871836117b8565b946020939093013593505050565b600060208284031215611890578081fd5b5035919050565b600080604083850312156118a9578182fd5b82359150611812602084016117b8565b600080604083850312156118cb578182fd5b50508035926020909101359150565b6000602082840312156118eb578081fd5b81356001600160e01b031981168114610877578182fd5b60007f416363657373436f6e74726f6c3a206163636f756e74200000000000000000008252835161193a8160178501602088016119f8565b7001034b99036b4b9b9b4b733903937b6329607d1b601791840191820152835161196b8160288401602088016119f8565b01602801949350505050565b60006020825282518060208401526119968160408501602087016119f8565b601f01601f19169190910160400192915050565b600082198211156119bd576119bd611a76565b500190565b60008160001904831182151516156119dc576119dc611a76565b500290565b6000828210156119f3576119f3611a76565b500390565b60005b83811015611a135781810151838201526020016119fb565b83811115610ce85750506000910152565b600081611a3357611a33611a76565b506000190190565b600281046001821680611a4f57607f821691505b60208210811415611a7057634e487b7160e01b600052602260045260246000fd5b50919050565b634e487b7160e01b600052601160045260246000fdfea2646970667358221220035a115ce900fdd86e4a0869abf5c3fc7a5a4d6f86aea298f543065211f7668864736f6c63430008020033",
  "linkReferences": {},
  "deployedLinkReferences": {}
}